{
	"RPS.sol": {
		"RPS": {
			"abi": [
				{
					"inputs": [
						{
							"internalType": "address",
							"name": "_commitReveal",
							"type": "address"
						},
						{
							"internalType": "address",
							"name": "_timeUnit",
							"type": "address"
						}
					],
					"stateMutability": "nonpayable",
					"type": "constructor"
				},
				{
					"inputs": [],
					"name": "addPlayer",
					"outputs": [],
					"stateMutability": "payable",
					"type": "function"
				},
				{
					"inputs": [],
					"name": "claimTimeout",
					"outputs": [],
					"stateMutability": "nonpayable",
					"type": "function"
				},
				{
					"inputs": [],
					"name": "commitReveal",
					"outputs": [
						{
							"internalType": "contract CommitReveal",
							"name": "",
							"type": "address"
						}
					],
					"stateMutability": "view",
					"type": "function"
				},
				{
					"inputs": [],
					"name": "numPlayer",
					"outputs": [
						{
							"internalType": "uint256",
							"name": "",
							"type": "uint256"
						}
					],
					"stateMutability": "view",
					"type": "function"
				},
				{
					"inputs": [
						{
							"internalType": "address",
							"name": "",
							"type": "address"
						}
					],
					"name": "player_commit",
					"outputs": [
						{
							"internalType": "bytes32",
							"name": "",
							"type": "bytes32"
						}
					],
					"stateMutability": "view",
					"type": "function"
				},
				{
					"inputs": [
						{
							"internalType": "address",
							"name": "",
							"type": "address"
						}
					],
					"name": "player_revealed",
					"outputs": [
						{
							"internalType": "bool",
							"name": "",
							"type": "bool"
						}
					],
					"stateMutability": "view",
					"type": "function"
				},
				{
					"inputs": [
						{
							"internalType": "uint256",
							"name": "",
							"type": "uint256"
						}
					],
					"name": "players",
					"outputs": [
						{
							"internalType": "address",
							"name": "",
							"type": "address"
						}
					],
					"stateMutability": "view",
					"type": "function"
				},
				{
					"inputs": [
						{
							"internalType": "bytes32",
							"name": "choice",
							"type": "bytes32"
						}
					],
					"name": "reveal",
					"outputs": [],
					"stateMutability": "nonpayable",
					"type": "function"
				},
				{
					"inputs": [],
					"name": "revealDeadline",
					"outputs": [
						{
							"internalType": "uint256",
							"name": "",
							"type": "uint256"
						}
					],
					"stateMutability": "view",
					"type": "function"
				},
				{
					"inputs": [],
					"name": "reward",
					"outputs": [
						{
							"internalType": "uint256",
							"name": "",
							"type": "uint256"
						}
					],
					"stateMutability": "view",
					"type": "function"
				},
				{
					"inputs": [],
					"name": "timeUnit",
					"outputs": [
						{
							"internalType": "contract TimeUnit",
							"name": "",
							"type": "address"
						}
					],
					"stateMutability": "view",
					"type": "function"
				}
			],
			"devdoc": {
				"kind": "dev",
				"methods": {},
				"version": 1
			},
			"evm": {
				"assembly": "    /* \"RPS.sol\":69:2523  contract RPS {... */\n  mstore(0x40, 0x80)\n    /* \"RPS.sol\":112:113  0 */\n  0x00\n    /* \"RPS.sol\":88:113  uint public numPlayer = 0 */\n  dup1\n  sstore\n    /* \"RPS.sol\":140:141  0 */\n  0x00\n    /* \"RPS.sol\":119:141  uint public reward = 0 */\n  0x01\n  sstore\n    /* \"RPS.sol\":394:547  constructor(address _commitReveal, address _timeUnit) {... */\n  callvalue\n  dup1\n  iszero\n  tag_1\n  jumpi\n  0x00\n  dup1\n  revert\ntag_1:\n  pop\n  mload(0x40)\n  sub(codesize, bytecodeSize)\n  dup1\n  bytecodeSize\n  dup4\n  codecopy\n  dup2\n  dup2\n  add\n  0x40\n  mstore\n  dup2\n  add\n  swap1\n  tag_2\n  swap2\n  swap1\n  tag_3\n  jump\t// in\ntag_2:\n    /* \"RPS.sol\":486:499  _commitReveal */\n  dup2\n    /* \"RPS.sol\":458:470  commitReveal */\n  0x06\n  0x00\n    /* \"RPS.sol\":458:500  commitReveal = CommitReveal(_commitReveal) */\n  0x0100\n  exp\n  dup2\n  sload\n  dup2\n  0xffffffffffffffffffffffffffffffffffffffff\n  mul\n  not\n  and\n  swap1\n  dup4\n  0xffffffffffffffffffffffffffffffffffffffff\n  and\n  mul\n  or\n  swap1\n  sstore\n  pop\n    /* \"RPS.sol\":530:539  _timeUnit */\n  dup1\n    /* \"RPS.sol\":510:518  timeUnit */\n  0x07\n  0x00\n    /* \"RPS.sol\":510:540  timeUnit = TimeUnit(_timeUnit) */\n  0x0100\n  exp\n  dup2\n  sload\n  dup2\n  0xffffffffffffffffffffffffffffffffffffffff\n  mul\n  not\n  and\n  swap1\n  dup4\n  0xffffffffffffffffffffffffffffffffffffffff\n  and\n  mul\n  or\n  swap1\n  sstore\n  pop\n    /* \"RPS.sol\":394:547  constructor(address _commitReveal, address _timeUnit) {... */\n  pop\n  pop\n    /* \"RPS.sol\":69:2523  contract RPS {... */\n  jump(tag_6)\n    /* \"#utility.yul\":88:205   */\ntag_8:\n    /* \"#utility.yul\":197:198   */\n  0x00\n    /* \"#utility.yul\":194:195   */\n  dup1\n    /* \"#utility.yul\":187:199   */\n  revert\n    /* \"#utility.yul\":334:460   */\ntag_10:\n    /* \"#utility.yul\":371:378   */\n  0x00\n    /* \"#utility.yul\":411:453   */\n  0xffffffffffffffffffffffffffffffffffffffff\n    /* \"#utility.yul\":404:409   */\n  dup3\n    /* \"#utility.yul\":400:454   */\n  and\n    /* \"#utility.yul\":389:454   */\n  swap1\n  pop\n    /* \"#utility.yul\":334:460   */\n  swap2\n  swap1\n  pop\n  jump\t// out\n    /* \"#utility.yul\":466:562   */\ntag_11:\n    /* \"#utility.yul\":503:510   */\n  0x00\n    /* \"#utility.yul\":532:556   */\n  tag_20\n    /* \"#utility.yul\":550:555   */\n  dup3\n    /* \"#utility.yul\":532:556   */\n  tag_10\n  jump\t// in\ntag_20:\n    /* \"#utility.yul\":521:556   */\n  swap1\n  pop\n    /* \"#utility.yul\":466:562   */\n  swap2\n  swap1\n  pop\n  jump\t// out\n    /* \"#utility.yul\":568:690   */\ntag_12:\n    /* \"#utility.yul\":641:665   */\n  tag_22\n    /* \"#utility.yul\":659:664   */\n  dup2\n    /* \"#utility.yul\":641:665   */\n  tag_11\n  jump\t// in\ntag_22:\n    /* \"#utility.yul\":634:639   */\n  dup2\n    /* \"#utility.yul\":631:666   */\n  eq\n    /* \"#utility.yul\":621:684   */\n  tag_23\n  jumpi\n    /* \"#utility.yul\":680:681   */\n  0x00\n    /* \"#utility.yul\":677:678   */\n  dup1\n    /* \"#utility.yul\":670:682   */\n  revert\n    /* \"#utility.yul\":621:684   */\ntag_23:\n    /* \"#utility.yul\":568:690   */\n  pop\n  jump\t// out\n    /* \"#utility.yul\":696:839   */\ntag_13:\n    /* \"#utility.yul\":753:758   */\n  0x00\n    /* \"#utility.yul\":784:790   */\n  dup2\n    /* \"#utility.yul\":778:791   */\n  mload\n    /* \"#utility.yul\":769:791   */\n  swap1\n  pop\n    /* \"#utility.yul\":800:833   */\n  tag_25\n    /* \"#utility.yul\":827:832   */\n  dup2\n    /* \"#utility.yul\":800:833   */\n  tag_12\n  jump\t// in\ntag_25:\n    /* \"#utility.yul\":696:839   */\n  swap3\n  swap2\n  pop\n  pop\n  jump\t// out\n    /* \"#utility.yul\":845:1352   */\ntag_3:\n    /* \"#utility.yul\":924:930   */\n  0x00\n    /* \"#utility.yul\":932:938   */\n  dup1\n    /* \"#utility.yul\":981:983   */\n  0x40\n    /* \"#utility.yul\":969:978   */\n  dup4\n    /* \"#utility.yul\":960:967   */\n  dup6\n    /* \"#utility.yul\":956:979   */\n  sub\n    /* \"#utility.yul\":952:984   */\n  slt\n    /* \"#utility.yul\":949:1068   */\n  iszero\n  tag_27\n  jumpi\n    /* \"#utility.yul\":987:1066   */\n  tag_28\n  tag_8\n  jump\t// in\ntag_28:\n    /* \"#utility.yul\":949:1068   */\ntag_27:\n    /* \"#utility.yul\":1107:1108   */\n  0x00\n    /* \"#utility.yul\":1132:1196   */\n  tag_29\n    /* \"#utility.yul\":1188:1195   */\n  dup6\n    /* \"#utility.yul\":1179:1185   */\n  dup3\n    /* \"#utility.yul\":1168:1177   */\n  dup7\n    /* \"#utility.yul\":1164:1186   */\n  add\n    /* \"#utility.yul\":1132:1196   */\n  tag_13\n  jump\t// in\ntag_29:\n    /* \"#utility.yul\":1122:1196   */\n  swap3\n  pop\n    /* \"#utility.yul\":1078:1206   */\n  pop\n    /* \"#utility.yul\":1245:1247   */\n  0x20\n    /* \"#utility.yul\":1271:1335   */\n  tag_30\n    /* \"#utility.yul\":1327:1334   */\n  dup6\n    /* \"#utility.yul\":1318:1324   */\n  dup3\n    /* \"#utility.yul\":1307:1316   */\n  dup7\n    /* \"#utility.yul\":1303:1325   */\n  add\n    /* \"#utility.yul\":1271:1335   */\n  tag_13\n  jump\t// in\ntag_30:\n    /* \"#utility.yul\":1261:1335   */\n  swap2\n  pop\n    /* \"#utility.yul\":1216:1345   */\n  pop\n    /* \"#utility.yul\":845:1352   */\n  swap3\n  pop\n  swap3\n  swap1\n  pop\n  jump\t// out\n    /* \"RPS.sol\":69:2523  contract RPS {... */\ntag_6:\n  dataSize(sub_0)\n  dup1\n  dataOffset(sub_0)\n  0x00\n  codecopy\n  0x00\n  return\nstop\n\nsub_0: assembly {\n        /* \"RPS.sol\":69:2523  contract RPS {... */\n      mstore(0x40, 0x80)\n      jumpi(tag_1, lt(calldatasize, 0x04))\n      shr(0xe0, calldataload(0x00))\n      dup1\n      0x53356721\n      gt\n      tag_13\n      jumpi\n      dup1\n      0x53356721\n      eq\n      tag_7\n      jumpi\n      dup1\n      0x701fd0f1\n      eq\n      tag_8\n      jumpi\n      dup1\n      0x90d5d0c3\n      eq\n      tag_9\n      jumpi\n      dup1\n      0x9d7b3f2d\n      eq\n      tag_10\n      jumpi\n      dup1\n      0xb14b28a3\n      eq\n      tag_11\n      jumpi\n      dup1\n      0xf71d96cb\n      eq\n      tag_12\n      jumpi\n      jump(tag_1)\n    tag_13:\n      dup1\n      0x07b06720\n      eq\n      tag_2\n      jumpi\n      dup1\n      0x0e1da6c3\n      eq\n      tag_3\n      jumpi\n      dup1\n      0x228cb733\n      eq\n      tag_4\n      jumpi\n      dup1\n      0x27b5db8a\n      eq\n      tag_5\n      jumpi\n      dup1\n      0x3c6a7f9b\n      eq\n      tag_6\n      jumpi\n    tag_1:\n      0x00\n      dup1\n      revert\n        /* \"RPS.sol\":201:248  mapping(address => bool) public player_revealed */\n    tag_2:\n      callvalue\n      dup1\n      iszero\n      tag_14\n      jumpi\n      0x00\n      dup1\n      revert\n    tag_14:\n      pop\n      tag_15\n      0x04\n      dup1\n      calldatasize\n      sub\n      dup2\n      add\n      swap1\n      tag_16\n      swap2\n      swap1\n      tag_17\n      jump\t// in\n    tag_16:\n      tag_18\n      jump\t// in\n    tag_15:\n      mload(0x40)\n      tag_19\n      swap2\n      swap1\n      tag_20\n      jump\t// in\n    tag_19:\n      mload(0x40)\n      dup1\n      swap2\n      sub\n      swap1\n      return\n        /* \"RPS.sol\":2070:2521  function claimTimeout() public {... */\n    tag_3:\n      callvalue\n      dup1\n      iszero\n      tag_21\n      jumpi\n      0x00\n      dup1\n      revert\n    tag_21:\n      pop\n      tag_22\n      tag_23\n      jump\t// in\n    tag_22:\n      stop\n        /* \"RPS.sol\":119:141  uint public reward = 0 */\n    tag_4:\n      callvalue\n      dup1\n      iszero\n      tag_24\n      jumpi\n      0x00\n      dup1\n      revert\n    tag_24:\n      pop\n      tag_25\n      tag_26\n      jump\t// in\n    tag_25:\n      mload(0x40)\n      tag_27\n      swap2\n      swap1\n      tag_28\n      jump\t// in\n    tag_27:\n      mload(0x40)\n      dup1\n      swap2\n      sub\n      swap1\n      return\n        /* \"RPS.sol\":553:897  function addPlayer() public payable {... */\n    tag_5:\n      tag_29\n      tag_30\n      jump\t// in\n    tag_29:\n      stop\n        /* \"RPS.sol\":359:383  TimeUnit public timeUnit */\n    tag_6:\n      callvalue\n      dup1\n      iszero\n      tag_31\n      jumpi\n      0x00\n      dup1\n      revert\n    tag_31:\n      pop\n      tag_32\n      tag_33\n      jump\t// in\n    tag_32:\n      mload(0x40)\n      tag_34\n      swap2\n      swap1\n      tag_35\n      jump\t// in\n    tag_34:\n      mload(0x40)\n      dup1\n      swap2\n      sub\n      swap1\n      return\n        /* \"RPS.sol\":147:195  mapping(address => bytes32) public player_commit */\n    tag_7:\n      callvalue\n      dup1\n      iszero\n      tag_36\n      jumpi\n      0x00\n      dup1\n      revert\n    tag_36:\n      pop\n      tag_37\n      0x04\n      dup1\n      calldatasize\n      sub\n      dup2\n      add\n      swap1\n      tag_38\n      swap2\n      swap1\n      tag_17\n      jump\t// in\n    tag_38:\n      tag_39\n      jump\t// in\n    tag_37:\n      mload(0x40)\n      tag_40\n      swap2\n      swap1\n      tag_41\n      jump\t// in\n    tag_40:\n      mload(0x40)\n      dup1\n      swap2\n      sub\n      swap1\n      return\n        /* \"RPS.sol\":903:1382  function reveal(bytes32 choice) public {... */\n    tag_8:\n      callvalue\n      dup1\n      iszero\n      tag_42\n      jumpi\n      0x00\n      dup1\n      revert\n    tag_42:\n      pop\n      tag_43\n      0x04\n      dup1\n      calldatasize\n      sub\n      dup2\n      add\n      swap1\n      tag_44\n      swap2\n      swap1\n      tag_45\n      jump\t// in\n    tag_44:\n      tag_46\n      jump\t// in\n    tag_43:\n      stop\n        /* \"RPS.sol\":88:113  uint public numPlayer = 0 */\n    tag_9:\n      callvalue\n      dup1\n      iszero\n      tag_47\n      jumpi\n      0x00\n      dup1\n      revert\n    tag_47:\n      pop\n      tag_48\n      tag_49\n      jump\t// in\n    tag_48:\n      mload(0x40)\n      tag_50\n      swap2\n      swap1\n      tag_28\n      jump\t// in\n    tag_50:\n      mload(0x40)\n      dup1\n      swap2\n      sub\n      swap1\n      return\n        /* \"RPS.sol\":321:353  CommitReveal public commitReveal */\n    tag_10:\n      callvalue\n      dup1\n      iszero\n      tag_51\n      jumpi\n      0x00\n      dup1\n      revert\n    tag_51:\n      pop\n      tag_52\n      tag_53\n      jump\t// in\n    tag_52:\n      mload(0x40)\n      tag_54\n      swap2\n      swap1\n      tag_55\n      jump\t// in\n    tag_54:\n      mload(0x40)\n      dup1\n      swap2\n      sub\n      swap1\n      return\n        /* \"RPS.sol\":289:315  uint public revealDeadline */\n    tag_11:\n      callvalue\n      dup1\n      iszero\n      tag_56\n      jumpi\n      0x00\n      dup1\n      revert\n    tag_56:\n      pop\n      tag_57\n      tag_58\n      jump\t// in\n    tag_57:\n      mload(0x40)\n      tag_59\n      swap2\n      swap1\n      tag_28\n      jump\t// in\n    tag_59:\n      mload(0x40)\n      dup1\n      swap2\n      sub\n      swap1\n      return\n        /* \"RPS.sol\":254:278  address[] public players */\n    tag_12:\n      callvalue\n      dup1\n      iszero\n      tag_60\n      jumpi\n      0x00\n      dup1\n      revert\n    tag_60:\n      pop\n      tag_61\n      0x04\n      dup1\n      calldatasize\n      sub\n      dup2\n      add\n      swap1\n      tag_62\n      swap2\n      swap1\n      tag_63\n      jump\t// in\n    tag_62:\n      tag_64\n      jump\t// in\n    tag_61:\n      mload(0x40)\n      tag_65\n      swap2\n      swap1\n      tag_66\n      jump\t// in\n    tag_65:\n      mload(0x40)\n      dup1\n      swap2\n      sub\n      swap1\n      return\n        /* \"RPS.sol\":201:248  mapping(address => bool) public player_revealed */\n    tag_18:\n      mstore(0x20, 0x03)\n      dup1\n      0x00\n      mstore\n      keccak256(0x00, 0x40)\n      0x00\n      swap2\n      pop\n      sload\n      swap1\n      0x0100\n      exp\n      swap1\n      div\n      0xff\n      and\n      dup2\n      jump\t// out\n        /* \"RPS.sol\":2070:2521  function claimTimeout() public {... */\n    tag_23:\n        /* \"RPS.sol\":2147:2150  300 */\n      0x012c\n        /* \"RPS.sol\":2119:2127  timeUnit */\n      0x07\n      0x00\n      swap1\n      sload\n      swap1\n      0x0100\n      exp\n      swap1\n      div\n      0xffffffffffffffffffffffffffffffffffffffff\n      and\n        /* \"RPS.sol\":2119:2142  timeUnit.elapsedSeconds */\n      0xffffffffffffffffffffffffffffffffffffffff\n      and\n      0xbc06b8cd\n        /* \"RPS.sol\":2119:2144  timeUnit.elapsedSeconds() */\n      mload(0x40)\n      dup2\n      0xffffffff\n      and\n      0xe0\n      shl\n      dup2\n      mstore\n      0x04\n      add\n      0x20\n      mload(0x40)\n      dup1\n      dup4\n      sub\n      dup2\n      dup7\n      gas\n      staticcall\n      iszero\n      dup1\n      iszero\n      tag_69\n      jumpi\n      returndatasize\n      0x00\n      dup1\n      returndatacopy\n      revert(0x00, returndatasize)\n    tag_69:\n      pop\n      pop\n      pop\n      pop\n      mload(0x40)\n      returndatasize\n      not(0x1f)\n      0x1f\n      dup3\n      add\n      and\n      dup3\n      add\n      dup1\n      0x40\n      mstore\n      pop\n      dup2\n      add\n      swap1\n      tag_70\n      swap2\n      swap1\n      tag_71\n      jump\t// in\n    tag_70:\n        /* \"RPS.sol\":2119:2150  timeUnit.elapsedSeconds() > 300 */\n      gt\n        /* \"RPS.sol\":2111:2171  require(timeUnit.elapsedSeconds() > 300, \"Time not expired\") */\n      tag_72\n      jumpi\n      mload(0x40)\n      0x08c379a000000000000000000000000000000000000000000000000000000000\n      dup2\n      mstore\n      0x04\n      add\n      tag_73\n      swap1\n      tag_74\n      jump\t// in\n    tag_73:\n      mload(0x40)\n      dup1\n      swap2\n      sub\n      swap1\n      revert\n    tag_72:\n        /* \"RPS.sol\":2194:2209  player_revealed */\n      0x03\n        /* \"RPS.sol\":2194:2221  player_revealed[players[0]] */\n      0x00\n        /* \"RPS.sol\":2210:2217  players */\n      0x04\n        /* \"RPS.sol\":2218:2219  0 */\n      0x00\n        /* \"RPS.sol\":2210:2220  players[0] */\n      dup2\n      sload\n      dup2\n      lt\n      tag_75\n      jumpi\n      tag_76\n      tag_77\n      jump\t// in\n    tag_76:\n    tag_75:\n      swap1\n      0x00\n      mstore\n      keccak256(0x00, 0x20)\n      add\n      0x00\n      swap1\n      sload\n      swap1\n      0x0100\n      exp\n      swap1\n      div\n      0xffffffffffffffffffffffffffffffffffffffff\n      and\n        /* \"RPS.sol\":2194:2221  player_revealed[players[0]] */\n      0xffffffffffffffffffffffffffffffffffffffff\n      and\n      0xffffffffffffffffffffffffffffffffffffffff\n      and\n      dup2\n      mstore\n      0x20\n      add\n      swap1\n      dup2\n      mstore\n      0x20\n      add\n      0x00\n      keccak256\n      0x00\n      swap1\n      sload\n      swap1\n      0x0100\n      exp\n      swap1\n      div\n      0xff\n      and\n        /* \"RPS.sol\":2194:2253  player_revealed[players[0]] && !player_revealed[players[1]] */\n      dup1\n      iszero\n      tag_79\n      jumpi\n      pop\n        /* \"RPS.sol\":2226:2241  player_revealed */\n      0x03\n        /* \"RPS.sol\":2226:2253  player_revealed[players[1]] */\n      0x00\n        /* \"RPS.sol\":2242:2249  players */\n      0x04\n        /* \"RPS.sol\":2250:2251  1 */\n      0x01\n        /* \"RPS.sol\":2242:2252  players[1] */\n      dup2\n      sload\n      dup2\n      lt\n      tag_80\n      jumpi\n      tag_81\n      tag_77\n      jump\t// in\n    tag_81:\n    tag_80:\n      swap1\n      0x00\n      mstore\n      keccak256(0x00, 0x20)\n      add\n      0x00\n      swap1\n      sload\n      swap1\n      0x0100\n      exp\n      swap1\n      div\n      0xffffffffffffffffffffffffffffffffffffffff\n      and\n        /* \"RPS.sol\":2226:2253  player_revealed[players[1]] */\n      0xffffffffffffffffffffffffffffffffffffffff\n      and\n      0xffffffffffffffffffffffffffffffffffffffff\n      and\n      dup2\n      mstore\n      0x20\n      add\n      swap1\n      dup2\n      mstore\n      0x20\n      add\n      0x00\n      keccak256\n      0x00\n      swap1\n      sload\n      swap1\n      0x0100\n      exp\n      swap1\n      div\n      0xff\n      and\n        /* \"RPS.sol\":2225:2253  !player_revealed[players[1]] */\n      iszero\n        /* \"RPS.sol\":2194:2253  player_revealed[players[0]] && !player_revealed[players[1]] */\n    tag_79:\n        /* \"RPS.sol\":2190:2515  if (player_revealed[players[0]] && !player_revealed[players[1]]) {... */\n      iszero\n      tag_83\n      jumpi\n        /* \"RPS.sol\":2277:2284  players */\n      0x04\n        /* \"RPS.sol\":2285:2286  0 */\n      0x00\n        /* \"RPS.sol\":2277:2287  players[0] */\n      dup2\n      sload\n      dup2\n      lt\n      tag_84\n      jumpi\n      tag_85\n      tag_77\n      jump\t// in\n    tag_85:\n    tag_84:\n      swap1\n      0x00\n      mstore\n      keccak256(0x00, 0x20)\n      add\n      0x00\n      swap1\n      sload\n      swap1\n      0x0100\n      exp\n      swap1\n      div\n      0xffffffffffffffffffffffffffffffffffffffff\n      and\n        /* \"RPS.sol\":2269:2297  payable(players[0]).transfer */\n      0xffffffffffffffffffffffffffffffffffffffff\n      and\n        /* \"RPS.sol\":2269:2305  payable(players[0]).transfer(reward) */\n      0x08fc\n        /* \"RPS.sol\":2298:2304  reward */\n      sload(0x01)\n        /* \"RPS.sol\":2269:2305  payable(players[0]).transfer(reward) */\n      swap1\n      dup2\n      iszero\n      mul\n      swap1\n      mload(0x40)\n      0x00\n      mload(0x40)\n      dup1\n      dup4\n      sub\n      dup2\n      dup6\n      dup9\n      dup9\n      call\n      swap4\n      pop\n      pop\n      pop\n      pop\n      iszero\n      dup1\n      iszero\n      tag_88\n      jumpi\n      returndatasize\n      0x00\n      dup1\n      returndatacopy\n      revert(0x00, returndatasize)\n    tag_88:\n      pop\n        /* \"RPS.sol\":2190:2515  if (player_revealed[players[0]] && !player_revealed[players[1]]) {... */\n      jump(tag_89)\n    tag_83:\n        /* \"RPS.sol\":2327:2342  player_revealed */\n      0x03\n        /* \"RPS.sol\":2327:2354  player_revealed[players[0]] */\n      0x00\n        /* \"RPS.sol\":2343:2350  players */\n      0x04\n        /* \"RPS.sol\":2351:2352  0 */\n      0x00\n        /* \"RPS.sol\":2343:2353  players[0] */\n      dup2\n      sload\n      dup2\n      lt\n      tag_90\n      jumpi\n      tag_91\n      tag_77\n      jump\t// in\n    tag_91:\n    tag_90:\n      swap1\n      0x00\n      mstore\n      keccak256(0x00, 0x20)\n      add\n      0x00\n      swap1\n      sload\n      swap1\n      0x0100\n      exp\n      swap1\n      div\n      0xffffffffffffffffffffffffffffffffffffffff\n      and\n        /* \"RPS.sol\":2327:2354  player_revealed[players[0]] */\n      0xffffffffffffffffffffffffffffffffffffffff\n      and\n      0xffffffffffffffffffffffffffffffffffffffff\n      and\n      dup2\n      mstore\n      0x20\n      add\n      swap1\n      dup2\n      mstore\n      0x20\n      add\n      0x00\n      keccak256\n      0x00\n      swap1\n      sload\n      swap1\n      0x0100\n      exp\n      swap1\n      div\n      0xff\n      and\n        /* \"RPS.sol\":2326:2354  !player_revealed[players[0]] */\n      iszero\n        /* \"RPS.sol\":2326:2385  !player_revealed[players[0]] && player_revealed[players[1]] */\n      dup1\n      iszero\n      tag_93\n      jumpi\n      pop\n        /* \"RPS.sol\":2358:2373  player_revealed */\n      0x03\n        /* \"RPS.sol\":2358:2385  player_revealed[players[1]] */\n      0x00\n        /* \"RPS.sol\":2374:2381  players */\n      0x04\n        /* \"RPS.sol\":2382:2383  1 */\n      0x01\n        /* \"RPS.sol\":2374:2384  players[1] */\n      dup2\n      sload\n      dup2\n      lt\n      tag_94\n      jumpi\n      tag_95\n      tag_77\n      jump\t// in\n    tag_95:\n    tag_94:\n      swap1\n      0x00\n      mstore\n      keccak256(0x00, 0x20)\n      add\n      0x00\n      swap1\n      sload\n      swap1\n      0x0100\n      exp\n      swap1\n      div\n      0xffffffffffffffffffffffffffffffffffffffff\n      and\n        /* \"RPS.sol\":2358:2385  player_revealed[players[1]] */\n      0xffffffffffffffffffffffffffffffffffffffff\n      and\n      0xffffffffffffffffffffffffffffffffffffffff\n      and\n      dup2\n      mstore\n      0x20\n      add\n      swap1\n      dup2\n      mstore\n      0x20\n      add\n      0x00\n      keccak256\n      0x00\n      swap1\n      sload\n      swap1\n      0x0100\n      exp\n      swap1\n      div\n      0xff\n      and\n        /* \"RPS.sol\":2326:2385  !player_revealed[players[0]] && player_revealed[players[1]] */\n    tag_93:\n        /* \"RPS.sol\":2322:2515  if (!player_revealed[players[0]] && player_revealed[players[1]]) {... */\n      iszero\n      tag_97\n      jumpi\n        /* \"RPS.sol\":2409:2416  players */\n      0x04\n        /* \"RPS.sol\":2417:2418  1 */\n      0x01\n        /* \"RPS.sol\":2409:2419  players[1] */\n      dup2\n      sload\n      dup2\n      lt\n      tag_98\n      jumpi\n      tag_99\n      tag_77\n      jump\t// in\n    tag_99:\n    tag_98:\n      swap1\n      0x00\n      mstore\n      keccak256(0x00, 0x20)\n      add\n      0x00\n      swap1\n      sload\n      swap1\n      0x0100\n      exp\n      swap1\n      div\n      0xffffffffffffffffffffffffffffffffffffffff\n      and\n        /* \"RPS.sol\":2401:2429  payable(players[1]).transfer */\n      0xffffffffffffffffffffffffffffffffffffffff\n      and\n        /* \"RPS.sol\":2401:2437  payable(players[1]).transfer(reward) */\n      0x08fc\n        /* \"RPS.sol\":2430:2436  reward */\n      sload(0x01)\n        /* \"RPS.sol\":2401:2437  payable(players[1]).transfer(reward) */\n      swap1\n      dup2\n      iszero\n      mul\n      swap1\n      mload(0x40)\n      0x00\n      mload(0x40)\n      dup1\n      dup4\n      sub\n      dup2\n      dup6\n      dup9\n      dup9\n      call\n      swap4\n      pop\n      pop\n      pop\n      pop\n      iszero\n      dup1\n      iszero\n      tag_102\n      jumpi\n      returndatasize\n      0x00\n      dup1\n      returndatacopy\n      revert(0x00, returndatasize)\n    tag_102:\n      pop\n        /* \"RPS.sol\":2322:2515  if (!player_revealed[players[0]] && player_revealed[players[1]]) {... */\n      jump(tag_103)\n    tag_97:\n        /* \"RPS.sol\":2476:2486  msg.sender */\n      caller\n        /* \"RPS.sol\":2468:2496  payable(msg.sender).transfer */\n      0xffffffffffffffffffffffffffffffffffffffff\n      and\n        /* \"RPS.sol\":2468:2504  payable(msg.sender).transfer(reward) */\n      0x08fc\n        /* \"RPS.sol\":2497:2503  reward */\n      sload(0x01)\n        /* \"RPS.sol\":2468:2504  payable(msg.sender).transfer(reward) */\n      swap1\n      dup2\n      iszero\n      mul\n      swap1\n      mload(0x40)\n      0x00\n      mload(0x40)\n      dup1\n      dup4\n      sub\n      dup2\n      dup6\n      dup9\n      dup9\n      call\n      swap4\n      pop\n      pop\n      pop\n      pop\n      iszero\n      dup1\n      iszero\n      tag_105\n      jumpi\n      returndatasize\n      0x00\n      dup1\n      returndatacopy\n      revert(0x00, returndatasize)\n    tag_105:\n      pop\n        /* \"RPS.sol\":2322:2515  if (!player_revealed[players[0]] && player_revealed[players[1]]) {... */\n    tag_103:\n        /* \"RPS.sol\":2190:2515  if (player_revealed[players[0]] && !player_revealed[players[1]]) {... */\n    tag_89:\n        /* \"RPS.sol\":2070:2521  function claimTimeout() public {... */\n      jump\t// out\n        /* \"RPS.sol\":119:141  uint public reward = 0 */\n    tag_26:\n      sload(0x01)\n      dup2\n      jump\t// out\n        /* \"RPS.sol\":553:897  function addPlayer() public payable {... */\n    tag_30:\n        /* \"RPS.sol\":619:620  2 */\n      0x02\n        /* \"RPS.sol\":607:616  numPlayer */\n      sload(0x00)\n        /* \"RPS.sol\":607:620  numPlayer < 2 */\n      lt\n        /* \"RPS.sol\":599:621  require(numPlayer < 2) */\n      tag_107\n      jumpi\n      0x00\n      dup1\n      revert\n    tag_107:\n        /* \"RPS.sol\":647:648  0 */\n      0x00\n        /* \"RPS.sol\":635:644  numPlayer */\n      dup1\n      sload\n        /* \"RPS.sol\":635:648  numPlayer > 0 */\n      gt\n        /* \"RPS.sol\":631:708  if (numPlayer > 0) {... */\n      iszero\n      tag_108\n      jumpi\n        /* \"RPS.sol\":686:693  players */\n      0x04\n        /* \"RPS.sol\":694:695  0 */\n      0x00\n        /* \"RPS.sol\":686:696  players[0] */\n      dup2\n      sload\n      dup2\n      lt\n      tag_109\n      jumpi\n      tag_110\n      tag_77\n      jump\t// in\n    tag_110:\n    tag_109:\n      swap1\n      0x00\n      mstore\n      keccak256(0x00, 0x20)\n      add\n      0x00\n      swap1\n      sload\n      swap1\n      0x0100\n      exp\n      swap1\n      div\n      0xffffffffffffffffffffffffffffffffffffffff\n      and\n        /* \"RPS.sol\":672:696  msg.sender != players[0] */\n      0xffffffffffffffffffffffffffffffffffffffff\n      and\n        /* \"RPS.sol\":672:682  msg.sender */\n      caller\n        /* \"RPS.sol\":672:696  msg.sender != players[0] */\n      0xffffffffffffffffffffffffffffffffffffffff\n      and\n      sub\n        /* \"RPS.sol\":664:697  require(msg.sender != players[0]) */\n      tag_112\n      jumpi\n      0x00\n      dup1\n      revert\n    tag_112:\n        /* \"RPS.sol\":631:708  if (numPlayer > 0) {... */\n    tag_108:\n        /* \"RPS.sol\":717:727  bool allow */\n      0x00\n        /* \"RPS.sol\":762:766  true */\n      0x01\n        /* \"RPS.sol\":753:766  allow == true */\n      iszero\n      iszero\n        /* \"RPS.sol\":753:758  allow */\n      dup2\n        /* \"RPS.sol\":753:766  allow == true */\n      iszero\n      iszero\n      eq\n        /* \"RPS.sol\":745:767  require(allow == true) */\n      tag_113\n      jumpi\n      0x00\n      dup1\n      revert\n    tag_113:\n        /* \"RPS.sol\":798:805  1 ether */\n      0x0de0b6b3a7640000\n        /* \"RPS.sol\":785:794  msg.value */\n      callvalue\n        /* \"RPS.sol\":785:805  msg.value == 1 ether */\n      eq\n        /* \"RPS.sol\":777:806  require(msg.value == 1 ether) */\n      tag_114\n      jumpi\n      0x00\n      dup1\n      revert\n    tag_114:\n        /* \"RPS.sol\":826:835  msg.value */\n      callvalue\n        /* \"RPS.sol\":816:822  reward */\n      0x01\n      0x00\n        /* \"RPS.sol\":816:835  reward += msg.value */\n      dup3\n      dup3\n      sload\n      tag_115\n      swap2\n      swap1\n      tag_116\n      jump\t// in\n    tag_115:\n      swap3\n      pop\n      pop\n      dup2\n      swap1\n      sstore\n      pop\n        /* \"RPS.sol\":845:852  players */\n      0x04\n        /* \"RPS.sol\":858:868  msg.sender */\n      caller\n        /* \"RPS.sol\":845:869  players.push(msg.sender) */\n      swap1\n      dup1\n      0x01\n      dup2\n      sload\n      add\n      dup1\n      dup3\n      sstore\n      dup1\n      swap2\n      pop\n      pop\n      0x01\n      swap1\n      sub\n      swap1\n      0x00\n      mstore\n      keccak256(0x00, 0x20)\n      add\n      0x00\n      swap1\n      swap2\n      swap1\n      swap2\n      swap1\n      swap2\n      0x0100\n      exp\n      dup2\n      sload\n      dup2\n      0xffffffffffffffffffffffffffffffffffffffff\n      mul\n      not\n      and\n      swap1\n      dup4\n      0xffffffffffffffffffffffffffffffffffffffff\n      and\n      mul\n      or\n      swap1\n      sstore\n      pop\n        /* \"RPS.sol\":879:888  numPlayer */\n      0x00\n      dup1\n        /* \"RPS.sol\":879:890  numPlayer++ */\n      dup2\n      sload\n      dup1\n      swap3\n      swap2\n      swap1\n      tag_118\n      swap1\n      tag_119\n      jump\t// in\n    tag_118:\n      swap2\n      swap1\n      pop\n      sstore\n      pop\n        /* \"RPS.sol\":589:897  {... */\n      pop\n        /* \"RPS.sol\":553:897  function addPlayer() public payable {... */\n      jump\t// out\n        /* \"RPS.sol\":359:383  TimeUnit public timeUnit */\n    tag_33:\n      0x07\n      0x00\n      swap1\n      sload\n      swap1\n      0x0100\n      exp\n      swap1\n      div\n      0xffffffffffffffffffffffffffffffffffffffff\n      and\n      dup2\n      jump\t// out\n        /* \"RPS.sol\":147:195  mapping(address => bytes32) public player_commit */\n    tag_39:\n      mstore(0x20, 0x02)\n      dup1\n      0x00\n      mstore\n      keccak256(0x00, 0x40)\n      0x00\n      swap2\n      pop\n      swap1\n      pop\n      sload\n      dup2\n      jump\t// out\n        /* \"RPS.sol\":903:1382  function reveal(bytes32 choice) public {... */\n    tag_46:\n        /* \"RPS.sol\":973:974  2 */\n      0x02\n        /* \"RPS.sol\":960:969  numPlayer */\n      sload(0x00)\n        /* \"RPS.sol\":960:974  numPlayer == 2 */\n      eq\n        /* \"RPS.sol\":952:997  require(numPlayer == 2, \"Not enough players\") */\n      tag_121\n      jumpi\n      mload(0x40)\n      0x08c379a000000000000000000000000000000000000000000000000000000000\n      dup2\n      mstore\n      0x04\n      add\n      tag_122\n      swap1\n      tag_123\n      jump\t// in\n    tag_122:\n      mload(0x40)\n      dup1\n      swap2\n      sub\n      swap1\n      revert\n    tag_121:\n        /* \"RPS.sol\":1016:1031  player_revealed */\n      0x03\n        /* \"RPS.sol\":1016:1043  player_revealed[msg.sender] */\n      0x00\n        /* \"RPS.sol\":1032:1042  msg.sender */\n      caller\n        /* \"RPS.sol\":1016:1043  player_revealed[msg.sender] */\n      0xffffffffffffffffffffffffffffffffffffffff\n      and\n      0xffffffffffffffffffffffffffffffffffffffff\n      and\n      dup2\n      mstore\n      0x20\n      add\n      swap1\n      dup2\n      mstore\n      0x20\n      add\n      0x00\n      keccak256\n      0x00\n      swap1\n      sload\n      swap1\n      0x0100\n      exp\n      swap1\n      div\n      0xff\n      and\n        /* \"RPS.sol\":1015:1043  !player_revealed[msg.sender] */\n      iszero\n        /* \"RPS.sol\":1007:1064  require(!player_revealed[msg.sender], \"Already revealed\") */\n      tag_124\n      jumpi\n      mload(0x40)\n      0x08c379a000000000000000000000000000000000000000000000000000000000\n      dup2\n      mstore\n      0x04\n      add\n      tag_125\n      swap1\n      tag_126\n      jump\t// in\n    tag_125:\n      mload(0x40)\n      dup1\n      swap2\n      sub\n      swap1\n      revert\n    tag_124:\n        /* \"RPS.sol\":1114:1127  player_commit */\n      0x02\n        /* \"RPS.sol\":1114:1139  player_commit[msg.sender] */\n      0x00\n        /* \"RPS.sol\":1128:1138  msg.sender */\n      caller\n        /* \"RPS.sol\":1114:1139  player_commit[msg.sender] */\n      0xffffffffffffffffffffffffffffffffffffffff\n      and\n      0xffffffffffffffffffffffffffffffffffffffff\n      and\n      dup2\n      mstore\n      0x20\n      add\n      swap1\n      dup2\n      mstore\n      0x20\n      add\n      0x00\n      keccak256\n      sload\n        /* \"RPS.sol\":1082:1094  commitReveal */\n      0x06\n      0x00\n      swap1\n      sload\n      swap1\n      0x0100\n      exp\n      swap1\n      div\n      0xffffffffffffffffffffffffffffffffffffffff\n      and\n        /* \"RPS.sol\":1082:1102  commitReveal.getHash */\n      0xffffffffffffffffffffffffffffffffffffffff\n      and\n      0x3cf5040a\n        /* \"RPS.sol\":1103:1109  choice */\n      dup4\n        /* \"RPS.sol\":1082:1110  commitReveal.getHash(choice) */\n      mload(0x40)\n      dup3\n      0xffffffff\n      and\n      0xe0\n      shl\n      dup2\n      mstore\n      0x04\n      add\n      tag_127\n      swap2\n      swap1\n      tag_41\n      jump\t// in\n    tag_127:\n      0x20\n      mload(0x40)\n      dup1\n      dup4\n      sub\n      dup2\n      dup7\n      gas\n      staticcall\n      iszero\n      dup1\n      iszero\n      tag_129\n      jumpi\n      returndatasize\n      0x00\n      dup1\n      returndatacopy\n      revert(0x00, returndatasize)\n    tag_129:\n      pop\n      pop\n      pop\n      pop\n      mload(0x40)\n      returndatasize\n      not(0x1f)\n      0x1f\n      dup3\n      add\n      and\n      dup3\n      add\n      dup1\n      0x40\n      mstore\n      pop\n      dup2\n      add\n      swap1\n      tag_130\n      swap2\n      swap1\n      tag_131\n      jump\t// in\n    tag_130:\n        /* \"RPS.sol\":1082:1139  commitReveal.getHash(choice) == player_commit[msg.sender] */\n      eq\n        /* \"RPS.sol\":1074:1158  require(commitReveal.getHash(choice) == player_commit[msg.sender], \"Invalid reveal\") */\n      tag_132\n      jumpi\n      mload(0x40)\n      0x08c379a000000000000000000000000000000000000000000000000000000000\n      dup2\n      mstore\n      0x04\n      add\n      tag_133\n      swap1\n      tag_134\n      jump\t// in\n    tag_133:\n      mload(0x40)\n      dup1\n      swap2\n      sub\n      swap1\n      revert\n    tag_132:\n        /* \"RPS.sol\":1207:1211  true */\n      0x01\n        /* \"RPS.sol\":1177:1192  player_revealed */\n      0x03\n        /* \"RPS.sol\":1177:1204  player_revealed[msg.sender] */\n      0x00\n        /* \"RPS.sol\":1193:1203  msg.sender */\n      caller\n        /* \"RPS.sol\":1177:1204  player_revealed[msg.sender] */\n      0xffffffffffffffffffffffffffffffffffffffff\n      and\n      0xffffffffffffffffffffffffffffffffffffffff\n      and\n      dup2\n      mstore\n      0x20\n      add\n      swap1\n      dup2\n      mstore\n      0x20\n      add\n      0x00\n      keccak256\n      0x00\n        /* \"RPS.sol\":1177:1211  player_revealed[msg.sender] = true */\n      0x0100\n      exp\n      dup2\n      sload\n      dup2\n      0xff\n      mul\n      not\n      and\n      swap1\n      dup4\n      iszero\n      iszero\n      mul\n      or\n      swap1\n      sstore\n      pop\n        /* \"RPS.sol\":1221:1233  commitReveal */\n      0x06\n      0x00\n      swap1\n      sload\n      swap1\n      0x0100\n      exp\n      swap1\n      div\n      0xffffffffffffffffffffffffffffffffffffffff\n      and\n        /* \"RPS.sol\":1221:1240  commitReveal.reveal */\n      0xffffffffffffffffffffffffffffffffffffffff\n      and\n      0x701fd0f1\n        /* \"RPS.sol\":1241:1247  choice */\n      dup3\n        /* \"RPS.sol\":1221:1248  commitReveal.reveal(choice) */\n      mload(0x40)\n      dup3\n      0xffffffff\n      and\n      0xe0\n      shl\n      dup2\n      mstore\n      0x04\n      add\n      tag_135\n      swap2\n      swap1\n      tag_41\n      jump\t// in\n    tag_135:\n      0x00\n      mload(0x40)\n      dup1\n      dup4\n      sub\n      dup2\n      0x00\n      dup8\n      dup1\n      extcodesize\n      iszero\n      dup1\n      iszero\n      tag_136\n      jumpi\n      0x00\n      dup1\n      revert\n    tag_136:\n      pop\n      gas\n      call\n      iszero\n      dup1\n      iszero\n      tag_138\n      jumpi\n      returndatasize\n      0x00\n      dup1\n      returndatacopy\n      revert(0x00, returndatasize)\n    tag_138:\n      pop\n      pop\n      pop\n      pop\n        /* \"RPS.sol\":1271:1286  player_revealed */\n      0x03\n        /* \"RPS.sol\":1271:1298  player_revealed[players[0]] */\n      0x00\n        /* \"RPS.sol\":1287:1294  players */\n      0x04\n        /* \"RPS.sol\":1295:1296  0 */\n      0x00\n        /* \"RPS.sol\":1287:1297  players[0] */\n      dup2\n      sload\n      dup2\n      lt\n      tag_139\n      jumpi\n      tag_140\n      tag_77\n      jump\t// in\n    tag_140:\n    tag_139:\n      swap1\n      0x00\n      mstore\n      keccak256(0x00, 0x20)\n      add\n      0x00\n      swap1\n      sload\n      swap1\n      0x0100\n      exp\n      swap1\n      div\n      0xffffffffffffffffffffffffffffffffffffffff\n      and\n        /* \"RPS.sol\":1271:1298  player_revealed[players[0]] */\n      0xffffffffffffffffffffffffffffffffffffffff\n      and\n      0xffffffffffffffffffffffffffffffffffffffff\n      and\n      dup2\n      mstore\n      0x20\n      add\n      swap1\n      dup2\n      mstore\n      0x20\n      add\n      0x00\n      keccak256\n      0x00\n      swap1\n      sload\n      swap1\n      0x0100\n      exp\n      swap1\n      div\n      0xff\n      and\n        /* \"RPS.sol\":1271:1329  player_revealed[players[0]] && player_revealed[players[1]] */\n      dup1\n      iszero\n      tag_142\n      jumpi\n      pop\n        /* \"RPS.sol\":1302:1317  player_revealed */\n      0x03\n        /* \"RPS.sol\":1302:1329  player_revealed[players[1]] */\n      0x00\n        /* \"RPS.sol\":1318:1325  players */\n      0x04\n        /* \"RPS.sol\":1326:1327  1 */\n      0x01\n        /* \"RPS.sol\":1318:1328  players[1] */\n      dup2\n      sload\n      dup2\n      lt\n      tag_143\n      jumpi\n      tag_144\n      tag_77\n      jump\t// in\n    tag_144:\n    tag_143:\n      swap1\n      0x00\n      mstore\n      keccak256(0x00, 0x20)\n      add\n      0x00\n      swap1\n      sload\n      swap1\n      0x0100\n      exp\n      swap1\n      div\n      0xffffffffffffffffffffffffffffffffffffffff\n      and\n        /* \"RPS.sol\":1302:1329  player_revealed[players[1]] */\n      0xffffffffffffffffffffffffffffffffffffffff\n      and\n      0xffffffffffffffffffffffffffffffffffffffff\n      and\n      dup2\n      mstore\n      0x20\n      add\n      swap1\n      dup2\n      mstore\n      0x20\n      add\n      0x00\n      keccak256\n      0x00\n      swap1\n      sload\n      swap1\n      0x0100\n      exp\n      swap1\n      div\n      0xff\n      and\n        /* \"RPS.sol\":1271:1329  player_revealed[players[0]] && player_revealed[players[1]] */\n    tag_142:\n        /* \"RPS.sol\":1267:1376  if (player_revealed[players[0]] && player_revealed[players[1]]) {... */\n      iszero\n      tag_146\n      jumpi\n        /* \"RPS.sol\":1345:1365  _checkWinnerAndPay() */\n      tag_147\n        /* \"RPS.sol\":1345:1363  _checkWinnerAndPay */\n      tag_148\n        /* \"RPS.sol\":1345:1365  _checkWinnerAndPay() */\n      jump\t// in\n    tag_147:\n        /* \"RPS.sol\":1267:1376  if (player_revealed[players[0]] && player_revealed[players[1]]) {... */\n    tag_146:\n        /* \"RPS.sol\":903:1382  function reveal(bytes32 choice) public {... */\n      pop\n      jump\t// out\n        /* \"RPS.sol\":88:113  uint public numPlayer = 0 */\n    tag_49:\n      sload(0x00)\n      dup2\n      jump\t// out\n        /* \"RPS.sol\":321:353  CommitReveal public commitReveal */\n    tag_53:\n      0x06\n      0x00\n      swap1\n      sload\n      swap1\n      0x0100\n      exp\n      swap1\n      div\n      0xffffffffffffffffffffffffffffffffffffffff\n      and\n      dup2\n      jump\t// out\n        /* \"RPS.sol\":289:315  uint public revealDeadline */\n    tag_58:\n      sload(0x05)\n      dup2\n      jump\t// out\n        /* \"RPS.sol\":254:278  address[] public players */\n    tag_64:\n      0x04\n      dup2\n      dup2\n      sload\n      dup2\n      lt\n      tag_149\n      jumpi\n      0x00\n      dup1\n      revert\n    tag_149:\n      swap1\n      0x00\n      mstore\n      keccak256(0x00, 0x20)\n      add\n      0x00\n      swap2\n      pop\n      sload\n      swap1\n      0x0100\n      exp\n      swap1\n      div\n      0xffffffffffffffffffffffffffffffffffffffff\n      and\n      dup2\n      jump\t// out\n        /* \"RPS.sol\":1388:2060  function _checkWinnerAndPay() private {... */\n    tag_148:\n        /* \"RPS.sol\":1436:1449  uint p0Choice */\n      0x00\n        /* \"RPS.sol\":1530:1531  3 */\n      0x03\n        /* \"RPS.sol\":1465:1477  commitReveal */\n      0x06\n      0x00\n      swap1\n      sload\n      swap1\n      0x0100\n      exp\n      swap1\n      div\n      0xffffffffffffffffffffffffffffffffffffffff\n      and\n        /* \"RPS.sol\":1465:1485  commitReveal.getHash */\n      0xffffffffffffffffffffffffffffffffffffffff\n      and\n      0x3cf5040a\n        /* \"RPS.sol\":1513:1520  players */\n      0x04\n        /* \"RPS.sol\":1521:1522  0 */\n      0x00\n        /* \"RPS.sol\":1513:1523  players[0] */\n      dup2\n      sload\n      dup2\n      lt\n      tag_152\n      jumpi\n      tag_153\n      tag_77\n      jump\t// in\n    tag_153:\n    tag_152:\n      swap1\n      0x00\n      mstore\n      keccak256(0x00, 0x20)\n      add\n      0x00\n      swap1\n      sload\n      swap1\n      0x0100\n      exp\n      swap1\n      div\n      0xffffffffffffffffffffffffffffffffffffffff\n      and\n        /* \"RPS.sol\":1496:1524  abi.encodePacked(players[0]) */\n      add(0x20, mload(0x40))\n      tag_155\n      swap2\n      swap1\n      tag_156\n      jump\t// in\n    tag_155:\n      mload(0x40)\n      0x20\n      dup2\n      dup4\n      sub\n      sub\n      dup2\n      mstore\n      swap1\n      0x40\n      mstore\n        /* \"RPS.sol\":1486:1525  keccak256(abi.encodePacked(players[0])) */\n      dup1\n      mload\n      swap1\n      0x20\n      add\n      keccak256\n        /* \"RPS.sol\":1465:1526  commitReveal.getHash(keccak256(abi.encodePacked(players[0]))) */\n      mload(0x40)\n      dup3\n      0xffffffff\n      and\n      0xe0\n      shl\n      dup2\n      mstore\n      0x04\n      add\n      tag_157\n      swap2\n      swap1\n      tag_41\n      jump\t// in\n    tag_157:\n      0x20\n      mload(0x40)\n      dup1\n      dup4\n      sub\n      dup2\n      dup7\n      gas\n      staticcall\n      iszero\n      dup1\n      iszero\n      tag_159\n      jumpi\n      returndatasize\n      0x00\n      dup1\n      returndatacopy\n      revert(0x00, returndatasize)\n    tag_159:\n      pop\n      pop\n      pop\n      pop\n      mload(0x40)\n      returndatasize\n      not(0x1f)\n      0x1f\n      dup3\n      add\n      and\n      dup3\n      add\n      dup1\n      0x40\n      mstore\n      pop\n      dup2\n      add\n      swap1\n      tag_160\n      swap2\n      swap1\n      tag_131\n      jump\t// in\n    tag_160:\n        /* \"RPS.sol\":1457:1527  uint256(commitReveal.getHash(keccak256(abi.encodePacked(players[0])))) */\n      0x00\n      shr\n        /* \"RPS.sol\":1457:1531  uint256(commitReveal.getHash(keccak256(abi.encodePacked(players[0])))) % 3 */\n      tag_161\n      swap2\n      swap1\n      tag_162\n      jump\t// in\n    tag_161:\n        /* \"RPS.sol\":1436:1532  uint p0Choice = uint(uint256(commitReveal.getHash(keccak256(abi.encodePacked(players[0])))) % 3) */\n      swap1\n      pop\n        /* \"RPS.sol\":1542:1555  uint p1Choice */\n      0x00\n        /* \"RPS.sol\":1636:1637  3 */\n      0x03\n        /* \"RPS.sol\":1571:1583  commitReveal */\n      0x06\n      0x00\n      swap1\n      sload\n      swap1\n      0x0100\n      exp\n      swap1\n      div\n      0xffffffffffffffffffffffffffffffffffffffff\n      and\n        /* \"RPS.sol\":1571:1591  commitReveal.getHash */\n      0xffffffffffffffffffffffffffffffffffffffff\n      and\n      0x3cf5040a\n        /* \"RPS.sol\":1619:1626  players */\n      0x04\n        /* \"RPS.sol\":1627:1628  1 */\n      0x01\n        /* \"RPS.sol\":1619:1629  players[1] */\n      dup2\n      sload\n      dup2\n      lt\n      tag_163\n      jumpi\n      tag_164\n      tag_77\n      jump\t// in\n    tag_164:\n    tag_163:\n      swap1\n      0x00\n      mstore\n      keccak256(0x00, 0x20)\n      add\n      0x00\n      swap1\n      sload\n      swap1\n      0x0100\n      exp\n      swap1\n      div\n      0xffffffffffffffffffffffffffffffffffffffff\n      and\n        /* \"RPS.sol\":1602:1630  abi.encodePacked(players[1]) */\n      add(0x20, mload(0x40))\n      tag_166\n      swap2\n      swap1\n      tag_156\n      jump\t// in\n    tag_166:\n      mload(0x40)\n      0x20\n      dup2\n      dup4\n      sub\n      sub\n      dup2\n      mstore\n      swap1\n      0x40\n      mstore\n        /* \"RPS.sol\":1592:1631  keccak256(abi.encodePacked(players[1])) */\n      dup1\n      mload\n      swap1\n      0x20\n      add\n      keccak256\n        /* \"RPS.sol\":1571:1632  commitReveal.getHash(keccak256(abi.encodePacked(players[1]))) */\n      mload(0x40)\n      dup3\n      0xffffffff\n      and\n      0xe0\n      shl\n      dup2\n      mstore\n      0x04\n      add\n      tag_167\n      swap2\n      swap1\n      tag_41\n      jump\t// in\n    tag_167:\n      0x20\n      mload(0x40)\n      dup1\n      dup4\n      sub\n      dup2\n      dup7\n      gas\n      staticcall\n      iszero\n      dup1\n      iszero\n      tag_169\n      jumpi\n      returndatasize\n      0x00\n      dup1\n      returndatacopy\n      revert(0x00, returndatasize)\n    tag_169:\n      pop\n      pop\n      pop\n      pop\n      mload(0x40)\n      returndatasize\n      not(0x1f)\n      0x1f\n      dup3\n      add\n      and\n      dup3\n      add\n      dup1\n      0x40\n      mstore\n      pop\n      dup2\n      add\n      swap1\n      tag_170\n      swap2\n      swap1\n      tag_131\n      jump\t// in\n    tag_170:\n        /* \"RPS.sol\":1563:1633  uint256(commitReveal.getHash(keccak256(abi.encodePacked(players[1])))) */\n      0x00\n      shr\n        /* \"RPS.sol\":1563:1637  uint256(commitReveal.getHash(keccak256(abi.encodePacked(players[1])))) % 3 */\n      tag_171\n      swap2\n      swap1\n      tag_162\n      jump\t// in\n    tag_171:\n        /* \"RPS.sol\":1542:1638  uint p1Choice = uint(uint256(commitReveal.getHash(keccak256(abi.encodePacked(players[1])))) % 3) */\n      swap1\n      pop\n        /* \"RPS.sol\":1648:1672  address payable account0 */\n      0x00\n        /* \"RPS.sol\":1683:1690  players */\n      0x04\n        /* \"RPS.sol\":1691:1692  0 */\n      0x00\n        /* \"RPS.sol\":1683:1693  players[0] */\n      dup2\n      sload\n      dup2\n      lt\n      tag_172\n      jumpi\n      tag_173\n      tag_77\n      jump\t// in\n    tag_173:\n    tag_172:\n      swap1\n      0x00\n      mstore\n      keccak256(0x00, 0x20)\n      add\n      0x00\n      swap1\n      sload\n      swap1\n      0x0100\n      exp\n      swap1\n      div\n      0xffffffffffffffffffffffffffffffffffffffff\n      and\n        /* \"RPS.sol\":1648:1694  address payable account0 = payable(players[0]) */\n      swap1\n      pop\n        /* \"RPS.sol\":1704:1728  address payable account1 */\n      0x00\n        /* \"RPS.sol\":1739:1746  players */\n      0x04\n        /* \"RPS.sol\":1747:1748  1 */\n      0x01\n        /* \"RPS.sol\":1739:1749  players[1] */\n      dup2\n      sload\n      dup2\n      lt\n      tag_175\n      jumpi\n      tag_176\n      tag_77\n      jump\t// in\n    tag_176:\n    tag_175:\n      swap1\n      0x00\n      mstore\n      keccak256(0x00, 0x20)\n      add\n      0x00\n      swap1\n      sload\n      swap1\n      0x0100\n      exp\n      swap1\n      div\n      0xffffffffffffffffffffffffffffffffffffffff\n      and\n        /* \"RPS.sol\":1704:1750  address payable account1 = payable(players[1]) */\n      swap1\n      pop\n        /* \"RPS.sol\":1795:1803  p1Choice */\n      dup3\n        /* \"RPS.sol\":1790:1791  3 */\n      0x03\n        /* \"RPS.sol\":1785:1786  1 */\n      0x01\n        /* \"RPS.sol\":1774:1782  p0Choice */\n      dup7\n        /* \"RPS.sol\":1774:1786  p0Choice + 1 */\n      tag_178\n      swap2\n      swap1\n      tag_116\n      jump\t// in\n    tag_178:\n        /* \"RPS.sol\":1773:1791  (p0Choice + 1) % 3 */\n      tag_179\n      swap2\n      swap1\n      tag_162\n      jump\t// in\n    tag_179:\n        /* \"RPS.sol\":1773:1803  (p0Choice + 1) % 3 == p1Choice */\n      sub\n        /* \"RPS.sol\":1769:2054  if ((p0Choice + 1) % 3 == p1Choice) {... */\n      tag_180\n      jumpi\n        /* \"RPS.sol\":1819:1827  account1 */\n      dup1\n        /* \"RPS.sol\":1819:1836  account1.transfer */\n      0xffffffffffffffffffffffffffffffffffffffff\n      and\n        /* \"RPS.sol\":1819:1844  account1.transfer(reward) */\n      0x08fc\n        /* \"RPS.sol\":1837:1843  reward */\n      sload(0x01)\n        /* \"RPS.sol\":1819:1844  account1.transfer(reward) */\n      swap1\n      dup2\n      iszero\n      mul\n      swap1\n      mload(0x40)\n      0x00\n      mload(0x40)\n      dup1\n      dup4\n      sub\n      dup2\n      dup6\n      dup9\n      dup9\n      call\n      swap4\n      pop\n      pop\n      pop\n      pop\n      iszero\n      dup1\n      iszero\n      tag_182\n      jumpi\n      returndatasize\n      0x00\n      dup1\n      returndatacopy\n      revert(0x00, returndatasize)\n    tag_182:\n      pop\n        /* \"RPS.sol\":1769:2054  if ((p0Choice + 1) % 3 == p1Choice) {... */\n      jump(tag_183)\n    tag_180:\n        /* \"RPS.sol\":1887:1895  p0Choice */\n      dup4\n        /* \"RPS.sol\":1882:1883  3 */\n      0x03\n        /* \"RPS.sol\":1877:1878  1 */\n      0x01\n        /* \"RPS.sol\":1866:1874  p1Choice */\n      dup6\n        /* \"RPS.sol\":1866:1878  p1Choice + 1 */\n      tag_184\n      swap2\n      swap1\n      tag_116\n      jump\t// in\n    tag_184:\n        /* \"RPS.sol\":1865:1883  (p1Choice + 1) % 3 */\n      tag_185\n      swap2\n      swap1\n      tag_162\n      jump\t// in\n    tag_185:\n        /* \"RPS.sol\":1865:1895  (p1Choice + 1) % 3 == p0Choice */\n      sub\n        /* \"RPS.sol\":1861:2054  if ((p1Choice + 1) % 3 == p0Choice) {... */\n      tag_186\n      jumpi\n        /* \"RPS.sol\":1911:1919  account0 */\n      dup2\n        /* \"RPS.sol\":1911:1928  account0.transfer */\n      0xffffffffffffffffffffffffffffffffffffffff\n      and\n        /* \"RPS.sol\":1911:1936  account0.transfer(reward) */\n      0x08fc\n        /* \"RPS.sol\":1929:1935  reward */\n      sload(0x01)\n        /* \"RPS.sol\":1911:1936  account0.transfer(reward) */\n      swap1\n      dup2\n      iszero\n      mul\n      swap1\n      mload(0x40)\n      0x00\n      mload(0x40)\n      dup1\n      dup4\n      sub\n      dup2\n      dup6\n      dup9\n      dup9\n      call\n      swap4\n      pop\n      pop\n      pop\n      pop\n      iszero\n      dup1\n      iszero\n      tag_188\n      jumpi\n      returndatasize\n      0x00\n      dup1\n      returndatacopy\n      revert(0x00, returndatasize)\n    tag_188:\n      pop\n        /* \"RPS.sol\":1861:2054  if ((p1Choice + 1) % 3 == p0Choice) {... */\n      jump(tag_189)\n    tag_186:\n        /* \"RPS.sol\":1971:1979  account0 */\n      dup2\n        /* \"RPS.sol\":1971:1988  account0.transfer */\n      0xffffffffffffffffffffffffffffffffffffffff\n      and\n        /* \"RPS.sol\":1971:2000  account0.transfer(reward / 2) */\n      0x08fc\n        /* \"RPS.sol\":1998:1999  2 */\n      0x02\n        /* \"RPS.sol\":1989:1995  reward */\n      sload(0x01)\n        /* \"RPS.sol\":1989:1999  reward / 2 */\n      tag_190\n      swap2\n      swap1\n      tag_191\n      jump\t// in\n    tag_190:\n        /* \"RPS.sol\":1971:2000  account0.transfer(reward / 2) */\n      swap1\n      dup2\n      iszero\n      mul\n      swap1\n      mload(0x40)\n      0x00\n      mload(0x40)\n      dup1\n      dup4\n      sub\n      dup2\n      dup6\n      dup9\n      dup9\n      call\n      swap4\n      pop\n      pop\n      pop\n      pop\n      iszero\n      dup1\n      iszero\n      tag_193\n      jumpi\n      returndatasize\n      0x00\n      dup1\n      returndatacopy\n      revert(0x00, returndatasize)\n    tag_193:\n      pop\n        /* \"RPS.sol\":2014:2022  account1 */\n      dup1\n        /* \"RPS.sol\":2014:2031  account1.transfer */\n      0xffffffffffffffffffffffffffffffffffffffff\n      and\n        /* \"RPS.sol\":2014:2043  account1.transfer(reward / 2) */\n      0x08fc\n        /* \"RPS.sol\":2041:2042  2 */\n      0x02\n        /* \"RPS.sol\":2032:2038  reward */\n      sload(0x01)\n        /* \"RPS.sol\":2032:2042  reward / 2 */\n      tag_194\n      swap2\n      swap1\n      tag_191\n      jump\t// in\n    tag_194:\n        /* \"RPS.sol\":2014:2043  account1.transfer(reward / 2) */\n      swap1\n      dup2\n      iszero\n      mul\n      swap1\n      mload(0x40)\n      0x00\n      mload(0x40)\n      dup1\n      dup4\n      sub\n      dup2\n      dup6\n      dup9\n      dup9\n      call\n      swap4\n      pop\n      pop\n      pop\n      pop\n      iszero\n      dup1\n      iszero\n      tag_196\n      jumpi\n      returndatasize\n      0x00\n      dup1\n      returndatacopy\n      revert(0x00, returndatasize)\n    tag_196:\n      pop\n        /* \"RPS.sol\":1861:2054  if ((p1Choice + 1) % 3 == p0Choice) {... */\n    tag_189:\n        /* \"RPS.sol\":1769:2054  if ((p0Choice + 1) % 3 == p1Choice) {... */\n    tag_183:\n        /* \"RPS.sol\":1426:2060  {... */\n      pop\n      pop\n      pop\n      pop\n        /* \"RPS.sol\":1388:2060  function _checkWinnerAndPay() private {... */\n      jump\t// out\n        /* \"#utility.yul\":88:205   */\n    tag_198:\n        /* \"#utility.yul\":197:198   */\n      0x00\n        /* \"#utility.yul\":194:195   */\n      dup1\n        /* \"#utility.yul\":187:199   */\n      revert\n        /* \"#utility.yul\":334:460   */\n    tag_200:\n        /* \"#utility.yul\":371:378   */\n      0x00\n        /* \"#utility.yul\":411:453   */\n      0xffffffffffffffffffffffffffffffffffffffff\n        /* \"#utility.yul\":404:409   */\n      dup3\n        /* \"#utility.yul\":400:454   */\n      and\n        /* \"#utility.yul\":389:454   */\n      swap1\n      pop\n        /* \"#utility.yul\":334:460   */\n      swap2\n      swap1\n      pop\n      jump\t// out\n        /* \"#utility.yul\":466:562   */\n    tag_201:\n        /* \"#utility.yul\":503:510   */\n      0x00\n        /* \"#utility.yul\":532:556   */\n      tag_245\n        /* \"#utility.yul\":550:555   */\n      dup3\n        /* \"#utility.yul\":532:556   */\n      tag_200\n      jump\t// in\n    tag_245:\n        /* \"#utility.yul\":521:556   */\n      swap1\n      pop\n        /* \"#utility.yul\":466:562   */\n      swap2\n      swap1\n      pop\n      jump\t// out\n        /* \"#utility.yul\":568:690   */\n    tag_202:\n        /* \"#utility.yul\":641:665   */\n      tag_247\n        /* \"#utility.yul\":659:664   */\n      dup2\n        /* \"#utility.yul\":641:665   */\n      tag_201\n      jump\t// in\n    tag_247:\n        /* \"#utility.yul\":634:639   */\n      dup2\n        /* \"#utility.yul\":631:666   */\n      eq\n        /* \"#utility.yul\":621:684   */\n      tag_248\n      jumpi\n        /* \"#utility.yul\":680:681   */\n      0x00\n        /* \"#utility.yul\":677:678   */\n      dup1\n        /* \"#utility.yul\":670:682   */\n      revert\n        /* \"#utility.yul\":621:684   */\n    tag_248:\n        /* \"#utility.yul\":568:690   */\n      pop\n      jump\t// out\n        /* \"#utility.yul\":696:835   */\n    tag_203:\n        /* \"#utility.yul\":742:747   */\n      0x00\n        /* \"#utility.yul\":780:786   */\n      dup2\n        /* \"#utility.yul\":767:787   */\n      calldataload\n        /* \"#utility.yul\":758:787   */\n      swap1\n      pop\n        /* \"#utility.yul\":796:829   */\n      tag_250\n        /* \"#utility.yul\":823:828   */\n      dup2\n        /* \"#utility.yul\":796:829   */\n      tag_202\n      jump\t// in\n    tag_250:\n        /* \"#utility.yul\":696:835   */\n      swap3\n      swap2\n      pop\n      pop\n      jump\t// out\n        /* \"#utility.yul\":841:1170   */\n    tag_17:\n        /* \"#utility.yul\":900:906   */\n      0x00\n        /* \"#utility.yul\":949:951   */\n      0x20\n        /* \"#utility.yul\":937:946   */\n      dup3\n        /* \"#utility.yul\":928:935   */\n      dup5\n        /* \"#utility.yul\":924:947   */\n      sub\n        /* \"#utility.yul\":920:952   */\n      slt\n        /* \"#utility.yul\":917:1036   */\n      iszero\n      tag_252\n      jumpi\n        /* \"#utility.yul\":955:1034   */\n      tag_253\n      tag_198\n      jump\t// in\n    tag_253:\n        /* \"#utility.yul\":917:1036   */\n    tag_252:\n        /* \"#utility.yul\":1075:1076   */\n      0x00\n        /* \"#utility.yul\":1100:1153   */\n      tag_254\n        /* \"#utility.yul\":1145:1152   */\n      dup5\n        /* \"#utility.yul\":1136:1142   */\n      dup3\n        /* \"#utility.yul\":1125:1134   */\n      dup6\n        /* \"#utility.yul\":1121:1143   */\n      add\n        /* \"#utility.yul\":1100:1153   */\n      tag_203\n      jump\t// in\n    tag_254:\n        /* \"#utility.yul\":1090:1153   */\n      swap2\n      pop\n        /* \"#utility.yul\":1046:1163   */\n      pop\n        /* \"#utility.yul\":841:1170   */\n      swap3\n      swap2\n      pop\n      pop\n      jump\t// out\n        /* \"#utility.yul\":1176:1266   */\n    tag_204:\n        /* \"#utility.yul\":1210:1217   */\n      0x00\n        /* \"#utility.yul\":1253:1258   */\n      dup2\n        /* \"#utility.yul\":1246:1259   */\n      iszero\n        /* \"#utility.yul\":1239:1260   */\n      iszero\n        /* \"#utility.yul\":1228:1260   */\n      swap1\n      pop\n        /* \"#utility.yul\":1176:1266   */\n      swap2\n      swap1\n      pop\n      jump\t// out\n        /* \"#utility.yul\":1272:1381   */\n    tag_205:\n        /* \"#utility.yul\":1353:1374   */\n      tag_257\n        /* \"#utility.yul\":1368:1373   */\n      dup2\n        /* \"#utility.yul\":1353:1374   */\n      tag_204\n      jump\t// in\n    tag_257:\n        /* \"#utility.yul\":1348:1351   */\n      dup3\n        /* \"#utility.yul\":1341:1375   */\n      mstore\n        /* \"#utility.yul\":1272:1381   */\n      pop\n      pop\n      jump\t// out\n        /* \"#utility.yul\":1387:1597   */\n    tag_20:\n        /* \"#utility.yul\":1474:1478   */\n      0x00\n        /* \"#utility.yul\":1512:1514   */\n      0x20\n        /* \"#utility.yul\":1501:1510   */\n      dup3\n        /* \"#utility.yul\":1497:1515   */\n      add\n        /* \"#utility.yul\":1489:1515   */\n      swap1\n      pop\n        /* \"#utility.yul\":1525:1590   */\n      tag_259\n        /* \"#utility.yul\":1587:1588   */\n      0x00\n        /* \"#utility.yul\":1576:1585   */\n      dup4\n        /* \"#utility.yul\":1572:1589   */\n      add\n        /* \"#utility.yul\":1563:1569   */\n      dup5\n        /* \"#utility.yul\":1525:1590   */\n      tag_205\n      jump\t// in\n    tag_259:\n        /* \"#utility.yul\":1387:1597   */\n      swap3\n      swap2\n      pop\n      pop\n      jump\t// out\n        /* \"#utility.yul\":1603:1680   */\n    tag_206:\n        /* \"#utility.yul\":1640:1647   */\n      0x00\n        /* \"#utility.yul\":1669:1674   */\n      dup2\n        /* \"#utility.yul\":1658:1674   */\n      swap1\n      pop\n        /* \"#utility.yul\":1603:1680   */\n      swap2\n      swap1\n      pop\n      jump\t// out\n        /* \"#utility.yul\":1686:1804   */\n    tag_207:\n        /* \"#utility.yul\":1773:1797   */\n      tag_262\n        /* \"#utility.yul\":1791:1796   */\n      dup2\n        /* \"#utility.yul\":1773:1797   */\n      tag_206\n      jump\t// in\n    tag_262:\n        /* \"#utility.yul\":1768:1771   */\n      dup3\n        /* \"#utility.yul\":1761:1798   */\n      mstore\n        /* \"#utility.yul\":1686:1804   */\n      pop\n      pop\n      jump\t// out\n        /* \"#utility.yul\":1810:2032   */\n    tag_28:\n        /* \"#utility.yul\":1903:1907   */\n      0x00\n        /* \"#utility.yul\":1941:1943   */\n      0x20\n        /* \"#utility.yul\":1930:1939   */\n      dup3\n        /* \"#utility.yul\":1926:1944   */\n      add\n        /* \"#utility.yul\":1918:1944   */\n      swap1\n      pop\n        /* \"#utility.yul\":1954:2025   */\n      tag_264\n        /* \"#utility.yul\":2022:2023   */\n      0x00\n        /* \"#utility.yul\":2011:2020   */\n      dup4\n        /* \"#utility.yul\":2007:2024   */\n      add\n        /* \"#utility.yul\":1998:2004   */\n      dup5\n        /* \"#utility.yul\":1954:2025   */\n      tag_207\n      jump\t// in\n    tag_264:\n        /* \"#utility.yul\":1810:2032   */\n      swap3\n      swap2\n      pop\n      pop\n      jump\t// out\n        /* \"#utility.yul\":2038:2098   */\n    tag_208:\n        /* \"#utility.yul\":2066:2069   */\n      0x00\n        /* \"#utility.yul\":2087:2092   */\n      dup2\n        /* \"#utility.yul\":2080:2092   */\n      swap1\n      pop\n        /* \"#utility.yul\":2038:2098   */\n      swap2\n      swap1\n      pop\n      jump\t// out\n        /* \"#utility.yul\":2104:2246   */\n    tag_209:\n        /* \"#utility.yul\":2154:2163   */\n      0x00\n        /* \"#utility.yul\":2187:2240   */\n      tag_267\n        /* \"#utility.yul\":2205:2239   */\n      tag_268\n        /* \"#utility.yul\":2214:2238   */\n      tag_269\n        /* \"#utility.yul\":2232:2237   */\n      dup5\n        /* \"#utility.yul\":2214:2238   */\n      tag_200\n      jump\t// in\n    tag_269:\n        /* \"#utility.yul\":2205:2239   */\n      tag_208\n      jump\t// in\n    tag_268:\n        /* \"#utility.yul\":2187:2240   */\n      tag_200\n      jump\t// in\n    tag_267:\n        /* \"#utility.yul\":2174:2240   */\n      swap1\n      pop\n        /* \"#utility.yul\":2104:2246   */\n      swap2\n      swap1\n      pop\n      jump\t// out\n        /* \"#utility.yul\":2252:2378   */\n    tag_210:\n        /* \"#utility.yul\":2302:2311   */\n      0x00\n        /* \"#utility.yul\":2335:2372   */\n      tag_271\n        /* \"#utility.yul\":2366:2371   */\n      dup3\n        /* \"#utility.yul\":2335:2372   */\n      tag_209\n      jump\t// in\n    tag_271:\n        /* \"#utility.yul\":2322:2372   */\n      swap1\n      pop\n        /* \"#utility.yul\":2252:2378   */\n      swap2\n      swap1\n      pop\n      jump\t// out\n        /* \"#utility.yul\":2384:2526   */\n    tag_211:\n        /* \"#utility.yul\":2450:2459   */\n      0x00\n        /* \"#utility.yul\":2483:2520   */\n      tag_273\n        /* \"#utility.yul\":2514:2519   */\n      dup3\n        /* \"#utility.yul\":2483:2520   */\n      tag_210\n      jump\t// in\n    tag_273:\n        /* \"#utility.yul\":2470:2520   */\n      swap1\n      pop\n        /* \"#utility.yul\":2384:2526   */\n      swap2\n      swap1\n      pop\n      jump\t// out\n        /* \"#utility.yul\":2532:2695   */\n    tag_212:\n        /* \"#utility.yul\":2635:2688   */\n      tag_275\n        /* \"#utility.yul\":2682:2687   */\n      dup2\n        /* \"#utility.yul\":2635:2688   */\n      tag_211\n      jump\t// in\n    tag_275:\n        /* \"#utility.yul\":2630:2633   */\n      dup3\n        /* \"#utility.yul\":2623:2689   */\n      mstore\n        /* \"#utility.yul\":2532:2695   */\n      pop\n      pop\n      jump\t// out\n        /* \"#utility.yul\":2701:2955   */\n    tag_35:\n        /* \"#utility.yul\":2810:2814   */\n      0x00\n        /* \"#utility.yul\":2848:2850   */\n      0x20\n        /* \"#utility.yul\":2837:2846   */\n      dup3\n        /* \"#utility.yul\":2833:2851   */\n      add\n        /* \"#utility.yul\":2825:2851   */\n      swap1\n      pop\n        /* \"#utility.yul\":2861:2948   */\n      tag_277\n        /* \"#utility.yul\":2945:2946   */\n      0x00\n        /* \"#utility.yul\":2934:2943   */\n      dup4\n        /* \"#utility.yul\":2930:2947   */\n      add\n        /* \"#utility.yul\":2921:2927   */\n      dup5\n        /* \"#utility.yul\":2861:2948   */\n      tag_212\n      jump\t// in\n    tag_277:\n        /* \"#utility.yul\":2701:2955   */\n      swap3\n      swap2\n      pop\n      pop\n      jump\t// out\n        /* \"#utility.yul\":2961:3038   */\n    tag_213:\n        /* \"#utility.yul\":2998:3005   */\n      0x00\n        /* \"#utility.yul\":3027:3032   */\n      dup2\n        /* \"#utility.yul\":3016:3032   */\n      swap1\n      pop\n        /* \"#utility.yul\":2961:3038   */\n      swap2\n      swap1\n      pop\n      jump\t// out\n        /* \"#utility.yul\":3044:3162   */\n    tag_214:\n        /* \"#utility.yul\":3131:3155   */\n      tag_280\n        /* \"#utility.yul\":3149:3154   */\n      dup2\n        /* \"#utility.yul\":3131:3155   */\n      tag_213\n      jump\t// in\n    tag_280:\n        /* \"#utility.yul\":3126:3129   */\n      dup3\n        /* \"#utility.yul\":3119:3156   */\n      mstore\n        /* \"#utility.yul\":3044:3162   */\n      pop\n      pop\n      jump\t// out\n        /* \"#utility.yul\":3168:3390   */\n    tag_41:\n        /* \"#utility.yul\":3261:3265   */\n      0x00\n        /* \"#utility.yul\":3299:3301   */\n      0x20\n        /* \"#utility.yul\":3288:3297   */\n      dup3\n        /* \"#utility.yul\":3284:3302   */\n      add\n        /* \"#utility.yul\":3276:3302   */\n      swap1\n      pop\n        /* \"#utility.yul\":3312:3383   */\n      tag_282\n        /* \"#utility.yul\":3380:3381   */\n      0x00\n        /* \"#utility.yul\":3369:3378   */\n      dup4\n        /* \"#utility.yul\":3365:3382   */\n      add\n        /* \"#utility.yul\":3356:3362   */\n      dup5\n        /* \"#utility.yul\":3312:3383   */\n      tag_214\n      jump\t// in\n    tag_282:\n        /* \"#utility.yul\":3168:3390   */\n      swap3\n      swap2\n      pop\n      pop\n      jump\t// out\n        /* \"#utility.yul\":3396:3518   */\n    tag_215:\n        /* \"#utility.yul\":3469:3493   */\n      tag_284\n        /* \"#utility.yul\":3487:3492   */\n      dup2\n        /* \"#utility.yul\":3469:3493   */\n      tag_213\n      jump\t// in\n    tag_284:\n        /* \"#utility.yul\":3462:3467   */\n      dup2\n        /* \"#utility.yul\":3459:3494   */\n      eq\n        /* \"#utility.yul\":3449:3512   */\n      tag_285\n      jumpi\n        /* \"#utility.yul\":3508:3509   */\n      0x00\n        /* \"#utility.yul\":3505:3506   */\n      dup1\n        /* \"#utility.yul\":3498:3510   */\n      revert\n        /* \"#utility.yul\":3449:3512   */\n    tag_285:\n        /* \"#utility.yul\":3396:3518   */\n      pop\n      jump\t// out\n        /* \"#utility.yul\":3524:3663   */\n    tag_216:\n        /* \"#utility.yul\":3570:3575   */\n      0x00\n        /* \"#utility.yul\":3608:3614   */\n      dup2\n        /* \"#utility.yul\":3595:3615   */\n      calldataload\n        /* \"#utility.yul\":3586:3615   */\n      swap1\n      pop\n        /* \"#utility.yul\":3624:3657   */\n      tag_287\n        /* \"#utility.yul\":3651:3656   */\n      dup2\n        /* \"#utility.yul\":3624:3657   */\n      tag_215\n      jump\t// in\n    tag_287:\n        /* \"#utility.yul\":3524:3663   */\n      swap3\n      swap2\n      pop\n      pop\n      jump\t// out\n        /* \"#utility.yul\":3669:3998   */\n    tag_45:\n        /* \"#utility.yul\":3728:3734   */\n      0x00\n        /* \"#utility.yul\":3777:3779   */\n      0x20\n        /* \"#utility.yul\":3765:3774   */\n      dup3\n        /* \"#utility.yul\":3756:3763   */\n      dup5\n        /* \"#utility.yul\":3752:3775   */\n      sub\n        /* \"#utility.yul\":3748:3780   */\n      slt\n        /* \"#utility.yul\":3745:3864   */\n      iszero\n      tag_289\n      jumpi\n        /* \"#utility.yul\":3783:3862   */\n      tag_290\n      tag_198\n      jump\t// in\n    tag_290:\n        /* \"#utility.yul\":3745:3864   */\n    tag_289:\n        /* \"#utility.yul\":3903:3904   */\n      0x00\n        /* \"#utility.yul\":3928:3981   */\n      tag_291\n        /* \"#utility.yul\":3973:3980   */\n      dup5\n        /* \"#utility.yul\":3964:3970   */\n      dup3\n        /* \"#utility.yul\":3953:3962   */\n      dup6\n        /* \"#utility.yul\":3949:3971   */\n      add\n        /* \"#utility.yul\":3928:3981   */\n      tag_216\n      jump\t// in\n    tag_291:\n        /* \"#utility.yul\":3918:3981   */\n      swap2\n      pop\n        /* \"#utility.yul\":3874:3991   */\n      pop\n        /* \"#utility.yul\":3669:3998   */\n      swap3\n      swap2\n      pop\n      pop\n      jump\t// out\n        /* \"#utility.yul\":4004:4150   */\n    tag_217:\n        /* \"#utility.yul\":4074:4083   */\n      0x00\n        /* \"#utility.yul\":4107:4144   */\n      tag_293\n        /* \"#utility.yul\":4138:4143   */\n      dup3\n        /* \"#utility.yul\":4107:4144   */\n      tag_210\n      jump\t// in\n    tag_293:\n        /* \"#utility.yul\":4094:4144   */\n      swap1\n      pop\n        /* \"#utility.yul\":4004:4150   */\n      swap2\n      swap1\n      pop\n      jump\t// out\n        /* \"#utility.yul\":4156:4327   */\n    tag_218:\n        /* \"#utility.yul\":4263:4320   */\n      tag_295\n        /* \"#utility.yul\":4314:4319   */\n      dup2\n        /* \"#utility.yul\":4263:4320   */\n      tag_217\n      jump\t// in\n    tag_295:\n        /* \"#utility.yul\":4258:4261   */\n      dup3\n        /* \"#utility.yul\":4251:4321   */\n      mstore\n        /* \"#utility.yul\":4156:4327   */\n      pop\n      pop\n      jump\t// out\n        /* \"#utility.yul\":4333:4595   */\n    tag_55:\n        /* \"#utility.yul\":4446:4450   */\n      0x00\n        /* \"#utility.yul\":4484:4486   */\n      0x20\n        /* \"#utility.yul\":4473:4482   */\n      dup3\n        /* \"#utility.yul\":4469:4487   */\n      add\n        /* \"#utility.yul\":4461:4487   */\n      swap1\n      pop\n        /* \"#utility.yul\":4497:4588   */\n      tag_297\n        /* \"#utility.yul\":4585:4586   */\n      0x00\n        /* \"#utility.yul\":4574:4583   */\n      dup4\n        /* \"#utility.yul\":4570:4587   */\n      add\n        /* \"#utility.yul\":4561:4567   */\n      dup5\n        /* \"#utility.yul\":4497:4588   */\n      tag_218\n      jump\t// in\n    tag_297:\n        /* \"#utility.yul\":4333:4595   */\n      swap3\n      swap2\n      pop\n      pop\n      jump\t// out\n        /* \"#utility.yul\":4601:4723   */\n    tag_219:\n        /* \"#utility.yul\":4674:4698   */\n      tag_299\n        /* \"#utility.yul\":4692:4697   */\n      dup2\n        /* \"#utility.yul\":4674:4698   */\n      tag_206\n      jump\t// in\n    tag_299:\n        /* \"#utility.yul\":4667:4672   */\n      dup2\n        /* \"#utility.yul\":4664:4699   */\n      eq\n        /* \"#utility.yul\":4654:4717   */\n      tag_300\n      jumpi\n        /* \"#utility.yul\":4713:4714   */\n      0x00\n        /* \"#utility.yul\":4710:4711   */\n      dup1\n        /* \"#utility.yul\":4703:4715   */\n      revert\n        /* \"#utility.yul\":4654:4717   */\n    tag_300:\n        /* \"#utility.yul\":4601:4723   */\n      pop\n      jump\t// out\n        /* \"#utility.yul\":4729:4868   */\n    tag_220:\n        /* \"#utility.yul\":4775:4780   */\n      0x00\n        /* \"#utility.yul\":4813:4819   */\n      dup2\n        /* \"#utility.yul\":4800:4820   */\n      calldataload\n        /* \"#utility.yul\":4791:4820   */\n      swap1\n      pop\n        /* \"#utility.yul\":4829:4862   */\n      tag_302\n        /* \"#utility.yul\":4856:4861   */\n      dup2\n        /* \"#utility.yul\":4829:4862   */\n      tag_219\n      jump\t// in\n    tag_302:\n        /* \"#utility.yul\":4729:4868   */\n      swap3\n      swap2\n      pop\n      pop\n      jump\t// out\n        /* \"#utility.yul\":4874:5203   */\n    tag_63:\n        /* \"#utility.yul\":4933:4939   */\n      0x00\n        /* \"#utility.yul\":4982:4984   */\n      0x20\n        /* \"#utility.yul\":4970:4979   */\n      dup3\n        /* \"#utility.yul\":4961:4968   */\n      dup5\n        /* \"#utility.yul\":4957:4980   */\n      sub\n        /* \"#utility.yul\":4953:4985   */\n      slt\n        /* \"#utility.yul\":4950:5069   */\n      iszero\n      tag_304\n      jumpi\n        /* \"#utility.yul\":4988:5067   */\n      tag_305\n      tag_198\n      jump\t// in\n    tag_305:\n        /* \"#utility.yul\":4950:5069   */\n    tag_304:\n        /* \"#utility.yul\":5108:5109   */\n      0x00\n        /* \"#utility.yul\":5133:5186   */\n      tag_306\n        /* \"#utility.yul\":5178:5185   */\n      dup5\n        /* \"#utility.yul\":5169:5175   */\n      dup3\n        /* \"#utility.yul\":5158:5167   */\n      dup6\n        /* \"#utility.yul\":5154:5176   */\n      add\n        /* \"#utility.yul\":5133:5186   */\n      tag_220\n      jump\t// in\n    tag_306:\n        /* \"#utility.yul\":5123:5186   */\n      swap2\n      pop\n        /* \"#utility.yul\":5079:5196   */\n      pop\n        /* \"#utility.yul\":4874:5203   */\n      swap3\n      swap2\n      pop\n      pop\n      jump\t// out\n        /* \"#utility.yul\":5209:5327   */\n    tag_221:\n        /* \"#utility.yul\":5296:5320   */\n      tag_308\n        /* \"#utility.yul\":5314:5319   */\n      dup2\n        /* \"#utility.yul\":5296:5320   */\n      tag_201\n      jump\t// in\n    tag_308:\n        /* \"#utility.yul\":5291:5294   */\n      dup3\n        /* \"#utility.yul\":5284:5321   */\n      mstore\n        /* \"#utility.yul\":5209:5327   */\n      pop\n      pop\n      jump\t// out\n        /* \"#utility.yul\":5333:5555   */\n    tag_66:\n        /* \"#utility.yul\":5426:5430   */\n      0x00\n        /* \"#utility.yul\":5464:5466   */\n      0x20\n        /* \"#utility.yul\":5453:5462   */\n      dup3\n        /* \"#utility.yul\":5449:5467   */\n      add\n        /* \"#utility.yul\":5441:5467   */\n      swap1\n      pop\n        /* \"#utility.yul\":5477:5548   */\n      tag_310\n        /* \"#utility.yul\":5545:5546   */\n      0x00\n        /* \"#utility.yul\":5534:5543   */\n      dup4\n        /* \"#utility.yul\":5530:5547   */\n      add\n        /* \"#utility.yul\":5521:5527   */\n      dup5\n        /* \"#utility.yul\":5477:5548   */\n      tag_221\n      jump\t// in\n    tag_310:\n        /* \"#utility.yul\":5333:5555   */\n      swap3\n      swap2\n      pop\n      pop\n      jump\t// out\n        /* \"#utility.yul\":5561:5704   */\n    tag_222:\n        /* \"#utility.yul\":5618:5623   */\n      0x00\n        /* \"#utility.yul\":5649:5655   */\n      dup2\n        /* \"#utility.yul\":5643:5656   */\n      mload\n        /* \"#utility.yul\":5634:5656   */\n      swap1\n      pop\n        /* \"#utility.yul\":5665:5698   */\n      tag_312\n        /* \"#utility.yul\":5692:5697   */\n      dup2\n        /* \"#utility.yul\":5665:5698   */\n      tag_219\n      jump\t// in\n    tag_312:\n        /* \"#utility.yul\":5561:5704   */\n      swap3\n      swap2\n      pop\n      pop\n      jump\t// out\n        /* \"#utility.yul\":5710:6061   */\n    tag_71:\n        /* \"#utility.yul\":5780:5786   */\n      0x00\n        /* \"#utility.yul\":5829:5831   */\n      0x20\n        /* \"#utility.yul\":5817:5826   */\n      dup3\n        /* \"#utility.yul\":5808:5815   */\n      dup5\n        /* \"#utility.yul\":5804:5827   */\n      sub\n        /* \"#utility.yul\":5800:5832   */\n      slt\n        /* \"#utility.yul\":5797:5916   */\n      iszero\n      tag_314\n      jumpi\n        /* \"#utility.yul\":5835:5914   */\n      tag_315\n      tag_198\n      jump\t// in\n    tag_315:\n        /* \"#utility.yul\":5797:5916   */\n    tag_314:\n        /* \"#utility.yul\":5955:5956   */\n      0x00\n        /* \"#utility.yul\":5980:6044   */\n      tag_316\n        /* \"#utility.yul\":6036:6043   */\n      dup5\n        /* \"#utility.yul\":6027:6033   */\n      dup3\n        /* \"#utility.yul\":6016:6025   */\n      dup6\n        /* \"#utility.yul\":6012:6034   */\n      add\n        /* \"#utility.yul\":5980:6044   */\n      tag_222\n      jump\t// in\n    tag_316:\n        /* \"#utility.yul\":5970:6044   */\n      swap2\n      pop\n        /* \"#utility.yul\":5926:6054   */\n      pop\n        /* \"#utility.yul\":5710:6061   */\n      swap3\n      swap2\n      pop\n      pop\n      jump\t// out\n        /* \"#utility.yul\":6067:6236   */\n    tag_223:\n        /* \"#utility.yul\":6151:6162   */\n      0x00\n        /* \"#utility.yul\":6185:6191   */\n      dup3\n        /* \"#utility.yul\":6180:6183   */\n      dup3\n        /* \"#utility.yul\":6173:6192   */\n      mstore\n        /* \"#utility.yul\":6225:6229   */\n      0x20\n        /* \"#utility.yul\":6220:6223   */\n      dup3\n        /* \"#utility.yul\":6216:6230   */\n      add\n        /* \"#utility.yul\":6201:6230   */\n      swap1\n      pop\n        /* \"#utility.yul\":6067:6236   */\n      swap3\n      swap2\n      pop\n      pop\n      jump\t// out\n        /* \"#utility.yul\":6242:6408   */\n    tag_224:\n        /* \"#utility.yul\":6382:6400   */\n      0x54696d65206e6f74206578706972656400000000000000000000000000000000\n        /* \"#utility.yul\":6378:6379   */\n      0x00\n        /* \"#utility.yul\":6370:6376   */\n      dup3\n        /* \"#utility.yul\":6366:6380   */\n      add\n        /* \"#utility.yul\":6359:6401   */\n      mstore\n        /* \"#utility.yul\":6242:6408   */\n      pop\n      jump\t// out\n        /* \"#utility.yul\":6414:6780   */\n    tag_225:\n        /* \"#utility.yul\":6556:6559   */\n      0x00\n        /* \"#utility.yul\":6577:6644   */\n      tag_320\n        /* \"#utility.yul\":6641:6643   */\n      0x10\n        /* \"#utility.yul\":6636:6639   */\n      dup4\n        /* \"#utility.yul\":6577:6644   */\n      tag_223\n      jump\t// in\n    tag_320:\n        /* \"#utility.yul\":6570:6644   */\n      swap2\n      pop\n        /* \"#utility.yul\":6653:6746   */\n      tag_321\n        /* \"#utility.yul\":6742:6745   */\n      dup3\n        /* \"#utility.yul\":6653:6746   */\n      tag_224\n      jump\t// in\n    tag_321:\n        /* \"#utility.yul\":6771:6773   */\n      0x20\n        /* \"#utility.yul\":6766:6769   */\n      dup3\n        /* \"#utility.yul\":6762:6774   */\n      add\n        /* \"#utility.yul\":6755:6774   */\n      swap1\n      pop\n        /* \"#utility.yul\":6414:6780   */\n      swap2\n      swap1\n      pop\n      jump\t// out\n        /* \"#utility.yul\":6786:7205   */\n    tag_74:\n        /* \"#utility.yul\":6952:6956   */\n      0x00\n        /* \"#utility.yul\":6990:6992   */\n      0x20\n        /* \"#utility.yul\":6979:6988   */\n      dup3\n        /* \"#utility.yul\":6975:6993   */\n      add\n        /* \"#utility.yul\":6967:6993   */\n      swap1\n      pop\n        /* \"#utility.yul\":7039:7048   */\n      dup2\n        /* \"#utility.yul\":7033:7037   */\n      dup2\n        /* \"#utility.yul\":7029:7049   */\n      sub\n        /* \"#utility.yul\":7025:7026   */\n      0x00\n        /* \"#utility.yul\":7014:7023   */\n      dup4\n        /* \"#utility.yul\":7010:7027   */\n      add\n        /* \"#utility.yul\":7003:7050   */\n      mstore\n        /* \"#utility.yul\":7067:7198   */\n      tag_323\n        /* \"#utility.yul\":7193:7197   */\n      dup2\n        /* \"#utility.yul\":7067:7198   */\n      tag_225\n      jump\t// in\n    tag_323:\n        /* \"#utility.yul\":7059:7198   */\n      swap1\n      pop\n        /* \"#utility.yul\":6786:7205   */\n      swap2\n      swap1\n      pop\n      jump\t// out\n        /* \"#utility.yul\":7211:7391   */\n    tag_77:\n        /* \"#utility.yul\":7259:7336   */\n      0x4e487b7100000000000000000000000000000000000000000000000000000000\n        /* \"#utility.yul\":7256:7257   */\n      0x00\n        /* \"#utility.yul\":7249:7337   */\n      mstore\n        /* \"#utility.yul\":7356:7360   */\n      0x32\n        /* \"#utility.yul\":7353:7354   */\n      0x04\n        /* \"#utility.yul\":7346:7361   */\n      mstore\n        /* \"#utility.yul\":7380:7384   */\n      0x24\n        /* \"#utility.yul\":7377:7378   */\n      0x00\n        /* \"#utility.yul\":7370:7385   */\n      revert\n        /* \"#utility.yul\":7397:7577   */\n    tag_226:\n        /* \"#utility.yul\":7445:7522   */\n      0x4e487b7100000000000000000000000000000000000000000000000000000000\n        /* \"#utility.yul\":7442:7443   */\n      0x00\n        /* \"#utility.yul\":7435:7523   */\n      mstore\n        /* \"#utility.yul\":7542:7546   */\n      0x11\n        /* \"#utility.yul\":7539:7540   */\n      0x04\n        /* \"#utility.yul\":7532:7547   */\n      mstore\n        /* \"#utility.yul\":7566:7570   */\n      0x24\n        /* \"#utility.yul\":7563:7564   */\n      0x00\n        /* \"#utility.yul\":7556:7571   */\n      revert\n        /* \"#utility.yul\":7583:7774   */\n    tag_116:\n        /* \"#utility.yul\":7623:7626   */\n      0x00\n        /* \"#utility.yul\":7642:7662   */\n      tag_327\n        /* \"#utility.yul\":7660:7661   */\n      dup3\n        /* \"#utility.yul\":7642:7662   */\n      tag_206\n      jump\t// in\n    tag_327:\n        /* \"#utility.yul\":7637:7662   */\n      swap2\n      pop\n        /* \"#utility.yul\":7676:7696   */\n      tag_328\n        /* \"#utility.yul\":7694:7695   */\n      dup4\n        /* \"#utility.yul\":7676:7696   */\n      tag_206\n      jump\t// in\n    tag_328:\n        /* \"#utility.yul\":7671:7696   */\n      swap3\n      pop\n        /* \"#utility.yul\":7719:7720   */\n      dup3\n        /* \"#utility.yul\":7716:7717   */\n      dup3\n        /* \"#utility.yul\":7712:7721   */\n      add\n        /* \"#utility.yul\":7705:7721   */\n      swap1\n      pop\n        /* \"#utility.yul\":7740:7743   */\n      dup1\n        /* \"#utility.yul\":7737:7738   */\n      dup3\n        /* \"#utility.yul\":7734:7744   */\n      gt\n        /* \"#utility.yul\":7731:7767   */\n      iszero\n      tag_329\n      jumpi\n        /* \"#utility.yul\":7747:7765   */\n      tag_330\n      tag_226\n      jump\t// in\n    tag_330:\n        /* \"#utility.yul\":7731:7767   */\n    tag_329:\n        /* \"#utility.yul\":7583:7774   */\n      swap3\n      swap2\n      pop\n      pop\n      jump\t// out\n        /* \"#utility.yul\":7780:8013   */\n    tag_119:\n        /* \"#utility.yul\":7819:7822   */\n      0x00\n        /* \"#utility.yul\":7842:7866   */\n      tag_332\n        /* \"#utility.yul\":7860:7865   */\n      dup3\n        /* \"#utility.yul\":7842:7866   */\n      tag_206\n      jump\t// in\n    tag_332:\n        /* \"#utility.yul\":7833:7866   */\n      swap2\n      pop\n        /* \"#utility.yul\":7888:7954   */\n      0xffffffffffffffffffffffffffffffffffffffffffffffffffffffffffffffff\n        /* \"#utility.yul\":7881:7886   */\n      dup3\n        /* \"#utility.yul\":7878:7955   */\n      sub\n        /* \"#utility.yul\":7875:7978   */\n      tag_333\n      jumpi\n        /* \"#utility.yul\":7958:7976   */\n      tag_334\n      tag_226\n      jump\t// in\n    tag_334:\n        /* \"#utility.yul\":7875:7978   */\n    tag_333:\n        /* \"#utility.yul\":8005:8006   */\n      0x01\n        /* \"#utility.yul\":7998:8003   */\n      dup3\n        /* \"#utility.yul\":7994:8007   */\n      add\n        /* \"#utility.yul\":7987:8007   */\n      swap1\n      pop\n        /* \"#utility.yul\":7780:8013   */\n      swap2\n      swap1\n      pop\n      jump\t// out\n        /* \"#utility.yul\":8019:8187   */\n    tag_227:\n        /* \"#utility.yul\":8159:8179   */\n      0x4e6f7420656e6f75676820706c61796572730000000000000000000000000000\n        /* \"#utility.yul\":8155:8156   */\n      0x00\n        /* \"#utility.yul\":8147:8153   */\n      dup3\n        /* \"#utility.yul\":8143:8157   */\n      add\n        /* \"#utility.yul\":8136:8180   */\n      mstore\n        /* \"#utility.yul\":8019:8187   */\n      pop\n      jump\t// out\n        /* \"#utility.yul\":8193:8559   */\n    tag_228:\n        /* \"#utility.yul\":8335:8338   */\n      0x00\n        /* \"#utility.yul\":8356:8423   */\n      tag_337\n        /* \"#utility.yul\":8420:8422   */\n      0x12\n        /* \"#utility.yul\":8415:8418   */\n      dup4\n        /* \"#utility.yul\":8356:8423   */\n      tag_223\n      jump\t// in\n    tag_337:\n        /* \"#utility.yul\":8349:8423   */\n      swap2\n      pop\n        /* \"#utility.yul\":8432:8525   */\n      tag_338\n        /* \"#utility.yul\":8521:8524   */\n      dup3\n        /* \"#utility.yul\":8432:8525   */\n      tag_227\n      jump\t// in\n    tag_338:\n        /* \"#utility.yul\":8550:8552   */\n      0x20\n        /* \"#utility.yul\":8545:8548   */\n      dup3\n        /* \"#utility.yul\":8541:8553   */\n      add\n        /* \"#utility.yul\":8534:8553   */\n      swap1\n      pop\n        /* \"#utility.yul\":8193:8559   */\n      swap2\n      swap1\n      pop\n      jump\t// out\n        /* \"#utility.yul\":8565:8984   */\n    tag_123:\n        /* \"#utility.yul\":8731:8735   */\n      0x00\n        /* \"#utility.yul\":8769:8771   */\n      0x20\n        /* \"#utility.yul\":8758:8767   */\n      dup3\n        /* \"#utility.yul\":8754:8772   */\n      add\n        /* \"#utility.yul\":8746:8772   */\n      swap1\n      pop\n        /* \"#utility.yul\":8818:8827   */\n      dup2\n        /* \"#utility.yul\":8812:8816   */\n      dup2\n        /* \"#utility.yul\":8808:8828   */\n      sub\n        /* \"#utility.yul\":8804:8805   */\n      0x00\n        /* \"#utility.yul\":8793:8802   */\n      dup4\n        /* \"#utility.yul\":8789:8806   */\n      add\n        /* \"#utility.yul\":8782:8829   */\n      mstore\n        /* \"#utility.yul\":8846:8977   */\n      tag_340\n        /* \"#utility.yul\":8972:8976   */\n      dup2\n        /* \"#utility.yul\":8846:8977   */\n      tag_228\n      jump\t// in\n    tag_340:\n        /* \"#utility.yul\":8838:8977   */\n      swap1\n      pop\n        /* \"#utility.yul\":8565:8984   */\n      swap2\n      swap1\n      pop\n      jump\t// out\n        /* \"#utility.yul\":8990:9156   */\n    tag_229:\n        /* \"#utility.yul\":9130:9148   */\n      0x416c72656164792072657665616c656400000000000000000000000000000000\n        /* \"#utility.yul\":9126:9127   */\n      0x00\n        /* \"#utility.yul\":9118:9124   */\n      dup3\n        /* \"#utility.yul\":9114:9128   */\n      add\n        /* \"#utility.yul\":9107:9149   */\n      mstore\n        /* \"#utility.yul\":8990:9156   */\n      pop\n      jump\t// out\n        /* \"#utility.yul\":9162:9528   */\n    tag_230:\n        /* \"#utility.yul\":9304:9307   */\n      0x00\n        /* \"#utility.yul\":9325:9392   */\n      tag_343\n        /* \"#utility.yul\":9389:9391   */\n      0x10\n        /* \"#utility.yul\":9384:9387   */\n      dup4\n        /* \"#utility.yul\":9325:9392   */\n      tag_223\n      jump\t// in\n    tag_343:\n        /* \"#utility.yul\":9318:9392   */\n      swap2\n      pop\n        /* \"#utility.yul\":9401:9494   */\n      tag_344\n        /* \"#utility.yul\":9490:9493   */\n      dup3\n        /* \"#utility.yul\":9401:9494   */\n      tag_229\n      jump\t// in\n    tag_344:\n        /* \"#utility.yul\":9519:9521   */\n      0x20\n        /* \"#utility.yul\":9514:9517   */\n      dup3\n        /* \"#utility.yul\":9510:9522   */\n      add\n        /* \"#utility.yul\":9503:9522   */\n      swap1\n      pop\n        /* \"#utility.yul\":9162:9528   */\n      swap2\n      swap1\n      pop\n      jump\t// out\n        /* \"#utility.yul\":9534:9953   */\n    tag_126:\n        /* \"#utility.yul\":9700:9704   */\n      0x00\n        /* \"#utility.yul\":9738:9740   */\n      0x20\n        /* \"#utility.yul\":9727:9736   */\n      dup3\n        /* \"#utility.yul\":9723:9741   */\n      add\n        /* \"#utility.yul\":9715:9741   */\n      swap1\n      pop\n        /* \"#utility.yul\":9787:9796   */\n      dup2\n        /* \"#utility.yul\":9781:9785   */\n      dup2\n        /* \"#utility.yul\":9777:9797   */\n      sub\n        /* \"#utility.yul\":9773:9774   */\n      0x00\n        /* \"#utility.yul\":9762:9771   */\n      dup4\n        /* \"#utility.yul\":9758:9775   */\n      add\n        /* \"#utility.yul\":9751:9798   */\n      mstore\n        /* \"#utility.yul\":9815:9946   */\n      tag_346\n        /* \"#utility.yul\":9941:9945   */\n      dup2\n        /* \"#utility.yul\":9815:9946   */\n      tag_230\n      jump\t// in\n    tag_346:\n        /* \"#utility.yul\":9807:9946   */\n      swap1\n      pop\n        /* \"#utility.yul\":9534:9953   */\n      swap2\n      swap1\n      pop\n      jump\t// out\n        /* \"#utility.yul\":9959:10102   */\n    tag_231:\n        /* \"#utility.yul\":10016:10021   */\n      0x00\n        /* \"#utility.yul\":10047:10053   */\n      dup2\n        /* \"#utility.yul\":10041:10054   */\n      mload\n        /* \"#utility.yul\":10032:10054   */\n      swap1\n      pop\n        /* \"#utility.yul\":10063:10096   */\n      tag_348\n        /* \"#utility.yul\":10090:10095   */\n      dup2\n        /* \"#utility.yul\":10063:10096   */\n      tag_215\n      jump\t// in\n    tag_348:\n        /* \"#utility.yul\":9959:10102   */\n      swap3\n      swap2\n      pop\n      pop\n      jump\t// out\n        /* \"#utility.yul\":10108:10459   */\n    tag_131:\n        /* \"#utility.yul\":10178:10184   */\n      0x00\n        /* \"#utility.yul\":10227:10229   */\n      0x20\n        /* \"#utility.yul\":10215:10224   */\n      dup3\n        /* \"#utility.yul\":10206:10213   */\n      dup5\n        /* \"#utility.yul\":10202:10225   */\n      sub\n        /* \"#utility.yul\":10198:10230   */\n      slt\n        /* \"#utility.yul\":10195:10314   */\n      iszero\n      tag_350\n      jumpi\n        /* \"#utility.yul\":10233:10312   */\n      tag_351\n      tag_198\n      jump\t// in\n    tag_351:\n        /* \"#utility.yul\":10195:10314   */\n    tag_350:\n        /* \"#utility.yul\":10353:10354   */\n      0x00\n        /* \"#utility.yul\":10378:10442   */\n      tag_352\n        /* \"#utility.yul\":10434:10441   */\n      dup5\n        /* \"#utility.yul\":10425:10431   */\n      dup3\n        /* \"#utility.yul\":10414:10423   */\n      dup6\n        /* \"#utility.yul\":10410:10432   */\n      add\n        /* \"#utility.yul\":10378:10442   */\n      tag_231\n      jump\t// in\n    tag_352:\n        /* \"#utility.yul\":10368:10442   */\n      swap2\n      pop\n        /* \"#utility.yul\":10324:10452   */\n      pop\n        /* \"#utility.yul\":10108:10459   */\n      swap3\n      swap2\n      pop\n      pop\n      jump\t// out\n        /* \"#utility.yul\":10465:10629   */\n    tag_232:\n        /* \"#utility.yul\":10605:10621   */\n      0x496e76616c69642072657665616c000000000000000000000000000000000000\n        /* \"#utility.yul\":10601:10602   */\n      0x00\n        /* \"#utility.yul\":10593:10599   */\n      dup3\n        /* \"#utility.yul\":10589:10603   */\n      add\n        /* \"#utility.yul\":10582:10622   */\n      mstore\n        /* \"#utility.yul\":10465:10629   */\n      pop\n      jump\t// out\n        /* \"#utility.yul\":10635:11001   */\n    tag_233:\n        /* \"#utility.yul\":10777:10780   */\n      0x00\n        /* \"#utility.yul\":10798:10865   */\n      tag_355\n        /* \"#utility.yul\":10862:10864   */\n      0x0e\n        /* \"#utility.yul\":10857:10860   */\n      dup4\n        /* \"#utility.yul\":10798:10865   */\n      tag_223\n      jump\t// in\n    tag_355:\n        /* \"#utility.yul\":10791:10865   */\n      swap2\n      pop\n        /* \"#utility.yul\":10874:10967   */\n      tag_356\n        /* \"#utility.yul\":10963:10966   */\n      dup3\n        /* \"#utility.yul\":10874:10967   */\n      tag_232\n      jump\t// in\n    tag_356:\n        /* \"#utility.yul\":10992:10994   */\n      0x20\n        /* \"#utility.yul\":10987:10990   */\n      dup3\n        /* \"#utility.yul\":10983:10995   */\n      add\n        /* \"#utility.yul\":10976:10995   */\n      swap1\n      pop\n        /* \"#utility.yul\":10635:11001   */\n      swap2\n      swap1\n      pop\n      jump\t// out\n        /* \"#utility.yul\":11007:11426   */\n    tag_134:\n        /* \"#utility.yul\":11173:11177   */\n      0x00\n        /* \"#utility.yul\":11211:11213   */\n      0x20\n        /* \"#utility.yul\":11200:11209   */\n      dup3\n        /* \"#utility.yul\":11196:11214   */\n      add\n        /* \"#utility.yul\":11188:11214   */\n      swap1\n      pop\n        /* \"#utility.yul\":11260:11269   */\n      dup2\n        /* \"#utility.yul\":11254:11258   */\n      dup2\n        /* \"#utility.yul\":11250:11270   */\n      sub\n        /* \"#utility.yul\":11246:11247   */\n      0x00\n        /* \"#utility.yul\":11235:11244   */\n      dup4\n        /* \"#utility.yul\":11231:11248   */\n      add\n        /* \"#utility.yul\":11224:11271   */\n      mstore\n        /* \"#utility.yul\":11288:11419   */\n      tag_358\n        /* \"#utility.yul\":11414:11418   */\n      dup2\n        /* \"#utility.yul\":11288:11419   */\n      tag_233\n      jump\t// in\n    tag_358:\n        /* \"#utility.yul\":11280:11419   */\n      swap1\n      pop\n        /* \"#utility.yul\":11007:11426   */\n      swap2\n      swap1\n      pop\n      jump\t// out\n        /* \"#utility.yul\":11432:11526   */\n    tag_234:\n        /* \"#utility.yul\":11465:11473   */\n      0x00\n        /* \"#utility.yul\":11513:11518   */\n      dup2\n        /* \"#utility.yul\":11509:11511   */\n      0x60\n        /* \"#utility.yul\":11505:11519   */\n      shl\n        /* \"#utility.yul\":11484:11519   */\n      swap1\n      pop\n        /* \"#utility.yul\":11432:11526   */\n      swap2\n      swap1\n      pop\n      jump\t// out\n        /* \"#utility.yul\":11532:11626   */\n    tag_235:\n        /* \"#utility.yul\":11571:11578   */\n      0x00\n        /* \"#utility.yul\":11600:11620   */\n      tag_361\n        /* \"#utility.yul\":11614:11619   */\n      dup3\n        /* \"#utility.yul\":11600:11620   */\n      tag_234\n      jump\t// in\n    tag_361:\n        /* \"#utility.yul\":11589:11620   */\n      swap1\n      pop\n        /* \"#utility.yul\":11532:11626   */\n      swap2\n      swap1\n      pop\n      jump\t// out\n        /* \"#utility.yul\":11632:11732   */\n    tag_236:\n        /* \"#utility.yul\":11671:11678   */\n      0x00\n        /* \"#utility.yul\":11700:11726   */\n      tag_363\n        /* \"#utility.yul\":11720:11725   */\n      dup3\n        /* \"#utility.yul\":11700:11726   */\n      tag_235\n      jump\t// in\n    tag_363:\n        /* \"#utility.yul\":11689:11726   */\n      swap1\n      pop\n        /* \"#utility.yul\":11632:11732   */\n      swap2\n      swap1\n      pop\n      jump\t// out\n        /* \"#utility.yul\":11738:11895   */\n    tag_237:\n        /* \"#utility.yul\":11843:11888   */\n      tag_365\n        /* \"#utility.yul\":11863:11887   */\n      tag_366\n        /* \"#utility.yul\":11881:11886   */\n      dup3\n        /* \"#utility.yul\":11863:11887   */\n      tag_201\n      jump\t// in\n    tag_366:\n        /* \"#utility.yul\":11843:11888   */\n      tag_236\n      jump\t// in\n    tag_365:\n        /* \"#utility.yul\":11838:11841   */\n      dup3\n        /* \"#utility.yul\":11831:11889   */\n      mstore\n        /* \"#utility.yul\":11738:11895   */\n      pop\n      pop\n      jump\t// out\n        /* \"#utility.yul\":11901:12157   */\n    tag_156:\n        /* \"#utility.yul\":12013:12016   */\n      0x00\n        /* \"#utility.yul\":12028:12103   */\n      tag_368\n        /* \"#utility.yul\":12099:12102   */\n      dup3\n        /* \"#utility.yul\":12090:12096   */\n      dup5\n        /* \"#utility.yul\":12028:12103   */\n      tag_237\n      jump\t// in\n    tag_368:\n        /* \"#utility.yul\":12128:12130   */\n      0x14\n        /* \"#utility.yul\":12123:12126   */\n      dup3\n        /* \"#utility.yul\":12119:12131   */\n      add\n        /* \"#utility.yul\":12112:12131   */\n      swap2\n      pop\n        /* \"#utility.yul\":12148:12151   */\n      dup2\n        /* \"#utility.yul\":12141:12151   */\n      swap1\n      pop\n        /* \"#utility.yul\":11901:12157   */\n      swap3\n      swap2\n      pop\n      pop\n      jump\t// out\n        /* \"#utility.yul\":12163:12343   */\n    tag_238:\n        /* \"#utility.yul\":12211:12288   */\n      0x4e487b7100000000000000000000000000000000000000000000000000000000\n        /* \"#utility.yul\":12208:12209   */\n      0x00\n        /* \"#utility.yul\":12201:12289   */\n      mstore\n        /* \"#utility.yul\":12308:12312   */\n      0x12\n        /* \"#utility.yul\":12305:12306   */\n      0x04\n        /* \"#utility.yul\":12298:12313   */\n      mstore\n        /* \"#utility.yul\":12332:12336   */\n      0x24\n        /* \"#utility.yul\":12329:12330   */\n      0x00\n        /* \"#utility.yul\":12322:12337   */\n      revert\n        /* \"#utility.yul\":12349:12525   */\n    tag_162:\n        /* \"#utility.yul\":12381:12382   */\n      0x00\n        /* \"#utility.yul\":12398:12418   */\n      tag_371\n        /* \"#utility.yul\":12416:12417   */\n      dup3\n        /* \"#utility.yul\":12398:12418   */\n      tag_206\n      jump\t// in\n    tag_371:\n        /* \"#utility.yul\":12393:12418   */\n      swap2\n      pop\n        /* \"#utility.yul\":12432:12452   */\n      tag_372\n        /* \"#utility.yul\":12450:12451   */\n      dup4\n        /* \"#utility.yul\":12432:12452   */\n      tag_206\n      jump\t// in\n    tag_372:\n        /* \"#utility.yul\":12427:12452   */\n      swap3\n      pop\n        /* \"#utility.yul\":12471:12472   */\n      dup3\n        /* \"#utility.yul\":12461:12496   */\n      tag_373\n      jumpi\n        /* \"#utility.yul\":12476:12494   */\n      tag_374\n      tag_238\n      jump\t// in\n    tag_374:\n        /* \"#utility.yul\":12461:12496   */\n    tag_373:\n        /* \"#utility.yul\":12517:12518   */\n      dup3\n        /* \"#utility.yul\":12514:12515   */\n      dup3\n        /* \"#utility.yul\":12510:12519   */\n      mod\n        /* \"#utility.yul\":12505:12519   */\n      swap1\n      pop\n        /* \"#utility.yul\":12349:12525   */\n      swap3\n      swap2\n      pop\n      pop\n      jump\t// out\n        /* \"#utility.yul\":12531:12716   */\n    tag_191:\n        /* \"#utility.yul\":12571:12572   */\n      0x00\n        /* \"#utility.yul\":12588:12608   */\n      tag_376\n        /* \"#utility.yul\":12606:12607   */\n      dup3\n        /* \"#utility.yul\":12588:12608   */\n      tag_206\n      jump\t// in\n    tag_376:\n        /* \"#utility.yul\":12583:12608   */\n      swap2\n      pop\n        /* \"#utility.yul\":12622:12642   */\n      tag_377\n        /* \"#utility.yul\":12640:12641   */\n      dup4\n        /* \"#utility.yul\":12622:12642   */\n      tag_206\n      jump\t// in\n    tag_377:\n        /* \"#utility.yul\":12617:12642   */\n      swap3\n      pop\n        /* \"#utility.yul\":12661:12662   */\n      dup3\n        /* \"#utility.yul\":12651:12686   */\n      tag_378\n      jumpi\n        /* \"#utility.yul\":12666:12684   */\n      tag_379\n      tag_238\n      jump\t// in\n    tag_379:\n        /* \"#utility.yul\":12651:12686   */\n    tag_378:\n        /* \"#utility.yul\":12708:12709   */\n      dup3\n        /* \"#utility.yul\":12705:12706   */\n      dup3\n        /* \"#utility.yul\":12701:12710   */\n      div\n        /* \"#utility.yul\":12696:12710   */\n      swap1\n      pop\n        /* \"#utility.yul\":12531:12716   */\n      swap3\n      swap2\n      pop\n      pop\n      jump\t// out\n\n    auxdata: 0xa2646970667358221220b7fef51a9c7af5288687aa0e9d6083290de900ab37f67ff114a3a656754cfe7b64736f6c634300081a0033\n}\n",
				"bytecode": {
					"linkReferences": {},
					"object": "60806040525f80555f600155348015610016575f80fd5b506040516118f13803806118f18339818101604052810190610038919061011d565b8160065f6101000a81548173ffffffffffffffffffffffffffffffffffffffff021916908373ffffffffffffffffffffffffffffffffffffffff1602179055508060075f6101000a81548173ffffffffffffffffffffffffffffffffffffffff021916908373ffffffffffffffffffffffffffffffffffffffff160217905550505061015b565b5f80fd5b5f73ffffffffffffffffffffffffffffffffffffffff82169050919050565b5f6100ec826100c3565b9050919050565b6100fc816100e2565b8114610106575f80fd5b50565b5f81519050610117816100f3565b92915050565b5f8060408385031215610133576101326100bf565b5b5f61014085828601610109565b925050602061015185828601610109565b9150509250929050565b611789806101685f395ff3fe60806040526004361061009b575f3560e01c80635335672111610063578063533567211461014f578063701fd0f11461018b57806390d5d0c3146101b35780639d7b3f2d146101dd578063b14b28a314610207578063f71d96cb146102315761009b565b806307b067201461009f5780630e1da6c3146100db578063228cb733146100f157806327b5db8a1461011b5780633c6a7f9b14610125575b5f80fd5b3480156100aa575f80fd5b506100c560048036038101906100c09190611126565b61026d565b6040516100d2919061116b565b60405180910390f35b3480156100e6575f80fd5b506100ef61028a565b005b3480156100fc575f80fd5b506101056106e4565b604051610112919061119c565b60405180910390f35b6101236106ea565b005b348015610130575f80fd5b50610139610828565b6040516101469190611210565b60405180910390f35b34801561015a575f80fd5b5061017560048036038101906101709190611126565b61084d565b6040516101829190611241565b60405180910390f35b348015610196575f80fd5b506101b160048036038101906101ac9190611284565b610862565b005b3480156101be575f80fd5b506101c7610c47565b6040516101d4919061119c565b60405180910390f35b3480156101e8575f80fd5b506101f1610c4c565b6040516101fe91906112cf565b60405180910390f35b348015610212575f80fd5b5061021b610c71565b604051610228919061119c565b60405180910390f35b34801561023c575f80fd5b5061025760048036038101906102529190611312565b610c77565b604051610264919061134c565b60405180910390f35b6003602052805f5260405f205f915054906101000a900460ff1681565b61012c60075f9054906101000a900473ffffffffffffffffffffffffffffffffffffffff1673ffffffffffffffffffffffffffffffffffffffff1663bc06b8cd6040518163ffffffff1660e01b8152600401602060405180830381865afa1580156102f7573d5f803e3d5ffd5b505050506040513d601f19601f8201168201806040525081019061031b9190611379565b1161035b576040517f08c379a0000000000000000000000000000000000000000000000000000000008152600401610352906113fe565b60405180910390fd5b60035f60045f815481106103725761037161141c565b5b905f5260205f20015f9054906101000a900473ffffffffffffffffffffffffffffffffffffffff1673ffffffffffffffffffffffffffffffffffffffff1673ffffffffffffffffffffffffffffffffffffffff1681526020019081526020015f205f9054906101000a900460ff16801561046f575060035f60046001815481106103ff576103fe61141c565b5b905f5260205f20015f9054906101000a900473ffffffffffffffffffffffffffffffffffffffff1673ffffffffffffffffffffffffffffffffffffffff1673ffffffffffffffffffffffffffffffffffffffff1681526020019081526020015f205f9054906101000a900460ff16155b156104fa5760045f815481106104885761048761141c565b5b905f5260205f20015f9054906101000a900473ffffffffffffffffffffffffffffffffffffffff1673ffffffffffffffffffffffffffffffffffffffff166108fc60015490811502906040515f60405180830381858888f193505050501580156104f4573d5f803e3d5ffd5b506106e2565b60035f60045f815481106105115761051061141c565b5b905f5260205f20015f9054906101000a900473ffffffffffffffffffffffffffffffffffffffff1673ffffffffffffffffffffffffffffffffffffffff1673ffffffffffffffffffffffffffffffffffffffff1681526020019081526020015f205f9054906101000a900460ff1615801561060e575060035f600460018154811061059f5761059e61141c565b5b905f5260205f20015f9054906101000a900473ffffffffffffffffffffffffffffffffffffffff1673ffffffffffffffffffffffffffffffffffffffff1673ffffffffffffffffffffffffffffffffffffffff1681526020019081526020015f205f9054906101000a900460ff165b1561069a5760046001815481106106285761062761141c565b5b905f5260205f20015f9054906101000a900473ffffffffffffffffffffffffffffffffffffffff1673ffffffffffffffffffffffffffffffffffffffff166108fc60015490811502906040515f60405180830381858888f19350505050158015610694573d5f803e3d5ffd5b506106e1565b3373ffffffffffffffffffffffffffffffffffffffff166108fc60015490811502906040515f60405180830381858888f193505050501580156106df573d5f803e3d5ffd5b505b5b565b60015481565b60025f54106106f7575f80fd5b5f805411156107735760045f815481106107145761071361141c565b5b905f5260205f20015f9054906101000a900473ffffffffffffffffffffffffffffffffffffffff1673ffffffffffffffffffffffffffffffffffffffff163373ffffffffffffffffffffffffffffffffffffffff1603610772575f80fd5b5b5f6001151581151514610784575f80fd5b670de0b6b3a76400003414610797575f80fd5b3460015f8282546107a89190611476565b92505081905550600433908060018154018082558091505060019003905f5260205f20015f9091909190916101000a81548173ffffffffffffffffffffffffffffffffffffffff021916908373ffffffffffffffffffffffffffffffffffffffff1602179055505f80815480929190610820906114a9565b919050555050565b60075f9054906101000a900473ffffffffffffffffffffffffffffffffffffffff1681565b6002602052805f5260405f205f915090505481565b60025f54146108a6576040517f08c379a000000000000000000000000000000000000000000000000000000000815260040161089d9061153a565b60405180910390fd5b60035f3373ffffffffffffffffffffffffffffffffffffffff1673ffffffffffffffffffffffffffffffffffffffff1681526020019081526020015f205f9054906101000a900460ff1615610930576040517f08c379a0000000000000000000000000000000000000000000000000000000008152600401610927906115a2565b60405180910390fd5b60025f3373ffffffffffffffffffffffffffffffffffffffff1673ffffffffffffffffffffffffffffffffffffffff1681526020019081526020015f205460065f9054906101000a900473ffffffffffffffffffffffffffffffffffffffff1673ffffffffffffffffffffffffffffffffffffffff16633cf5040a836040518263ffffffff1660e01b81526004016109c89190611241565b602060405180830381865afa1580156109e3573d5f803e3d5ffd5b505050506040513d601f19601f82011682018060405250810190610a0791906115d4565b14610a47576040517f08c379a0000000000000000000000000000000000000000000000000000000008152600401610a3e90611649565b60405180910390fd5b600160035f3373ffffffffffffffffffffffffffffffffffffffff1673ffffffffffffffffffffffffffffffffffffffff1681526020019081526020015f205f6101000a81548160ff02191690831515021790555060065f9054906101000a900473ffffffffffffffffffffffffffffffffffffffff1673ffffffffffffffffffffffffffffffffffffffff1663701fd0f1826040518263ffffffff1660e01b8152600401610af69190611241565b5f604051808303815f87803b158015610b0d575f80fd5b505af1158015610b1f573d5f803e3d5ffd5b5050505060035f60045f81548110610b3a57610b3961141c565b5b905f5260205f20015f9054906101000a900473ffffffffffffffffffffffffffffffffffffffff1673ffffffffffffffffffffffffffffffffffffffff1673ffffffffffffffffffffffffffffffffffffffff1681526020019081526020015f205f9054906101000a900460ff168015610c36575060035f6004600181548110610bc757610bc661141c565b5b905f5260205f20015f9054906101000a900473ffffffffffffffffffffffffffffffffffffffff1673ffffffffffffffffffffffffffffffffffffffff1673ffffffffffffffffffffffffffffffffffffffff1681526020019081526020015f205f9054906101000a900460ff165b15610c4457610c43610cb2565b5b50565b5f5481565b60065f9054906101000a900473ffffffffffffffffffffffffffffffffffffffff1681565b60055481565b60048181548110610c86575f80fd5b905f5260205f20015f915054906101000a900473ffffffffffffffffffffffffffffffffffffffff1681565b5f600360065f9054906101000a900473ffffffffffffffffffffffffffffffffffffffff1673ffffffffffffffffffffffffffffffffffffffff16633cf5040a60045f81548110610d0657610d0561141c565b5b905f5260205f20015f9054906101000a900473ffffffffffffffffffffffffffffffffffffffff16604051602001610d3e91906116ac565b604051602081830303815290604052805190602001206040518263ffffffff1660e01b8152600401610d709190611241565b602060405180830381865afa158015610d8b573d5f803e3d5ffd5b505050506040513d601f19601f82011682018060405250810190610daf91906115d4565b5f1c610dbb91906116f3565b90505f600360065f9054906101000a900473ffffffffffffffffffffffffffffffffffffffff1673ffffffffffffffffffffffffffffffffffffffff16633cf5040a6004600181548110610e1257610e1161141c565b5b905f5260205f20015f9054906101000a900473ffffffffffffffffffffffffffffffffffffffff16604051602001610e4a91906116ac565b604051602081830303815290604052805190602001206040518263ffffffff1660e01b8152600401610e7c9190611241565b602060405180830381865afa158015610e97573d5f803e3d5ffd5b505050506040513d601f19601f82011682018060405250810190610ebb91906115d4565b5f1c610ec791906116f3565b90505f60045f81548110610ede57610edd61141c565b5b905f5260205f20015f9054906101000a900473ffffffffffffffffffffffffffffffffffffffff1690505f6004600181548110610f1e57610f1d61141c565b5b905f5260205f20015f9054906101000a900473ffffffffffffffffffffffffffffffffffffffff169050826003600186610f589190611476565b610f6291906116f3565b03610fb2578073ffffffffffffffffffffffffffffffffffffffff166108fc60015490811502906040515f60405180830381858888f19350505050158015610fac573d5f803e3d5ffd5b506110c2565b836003600185610fc29190611476565b610fcc91906116f3565b0361101c578173ffffffffffffffffffffffffffffffffffffffff166108fc60015490811502906040515f60405180830381858888f19350505050158015611016573d5f803e3d5ffd5b506110c1565b8173ffffffffffffffffffffffffffffffffffffffff166108fc60026001546110459190611723565b90811502906040515f60405180830381858888f1935050505015801561106d573d5f803e3d5ffd5b508073ffffffffffffffffffffffffffffffffffffffff166108fc60026001546110979190611723565b90811502906040515f60405180830381858888f193505050501580156110bf573d5f803e3d5ffd5b505b5b50505050565b5f80fd5b5f73ffffffffffffffffffffffffffffffffffffffff82169050919050565b5f6110f5826110cc565b9050919050565b611105816110eb565b811461110f575f80fd5b50565b5f81359050611120816110fc565b92915050565b5f6020828403121561113b5761113a6110c8565b5b5f61114884828501611112565b91505092915050565b5f8115159050919050565b61116581611151565b82525050565b5f60208201905061117e5f83018461115c565b92915050565b5f819050919050565b61119681611184565b82525050565b5f6020820190506111af5f83018461118d565b92915050565b5f819050919050565b5f6111d86111d36111ce846110cc565b6111b5565b6110cc565b9050919050565b5f6111e9826111be565b9050919050565b5f6111fa826111df565b9050919050565b61120a816111f0565b82525050565b5f6020820190506112235f830184611201565b92915050565b5f819050919050565b61123b81611229565b82525050565b5f6020820190506112545f830184611232565b92915050565b61126381611229565b811461126d575f80fd5b50565b5f8135905061127e8161125a565b92915050565b5f60208284031215611299576112986110c8565b5b5f6112a684828501611270565b91505092915050565b5f6112b9826111df565b9050919050565b6112c9816112af565b82525050565b5f6020820190506112e25f8301846112c0565b92915050565b6112f181611184565b81146112fb575f80fd5b50565b5f8135905061130c816112e8565b92915050565b5f60208284031215611327576113266110c8565b5b5f611334848285016112fe565b91505092915050565b611346816110eb565b82525050565b5f60208201905061135f5f83018461133d565b92915050565b5f81519050611373816112e8565b92915050565b5f6020828403121561138e5761138d6110c8565b5b5f61139b84828501611365565b91505092915050565b5f82825260208201905092915050565b7f54696d65206e6f742065787069726564000000000000000000000000000000005f82015250565b5f6113e86010836113a4565b91506113f3826113b4565b602082019050919050565b5f6020820190508181035f830152611415816113dc565b9050919050565b7f4e487b71000000000000000000000000000000000000000000000000000000005f52603260045260245ffd5b7f4e487b71000000000000000000000000000000000000000000000000000000005f52601160045260245ffd5b5f61148082611184565b915061148b83611184565b92508282019050808211156114a3576114a2611449565b5b92915050565b5f6114b382611184565b91507fffffffffffffffffffffffffffffffffffffffffffffffffffffffffffffffff82036114e5576114e4611449565b5b600182019050919050565b7f4e6f7420656e6f75676820706c617965727300000000000000000000000000005f82015250565b5f6115246012836113a4565b915061152f826114f0565b602082019050919050565b5f6020820190508181035f83015261155181611518565b9050919050565b7f416c72656164792072657665616c6564000000000000000000000000000000005f82015250565b5f61158c6010836113a4565b915061159782611558565b602082019050919050565b5f6020820190508181035f8301526115b981611580565b9050919050565b5f815190506115ce8161125a565b92915050565b5f602082840312156115e9576115e86110c8565b5b5f6115f6848285016115c0565b91505092915050565b7f496e76616c69642072657665616c0000000000000000000000000000000000005f82015250565b5f611633600e836113a4565b915061163e826115ff565b602082019050919050565b5f6020820190508181035f83015261166081611627565b9050919050565b5f8160601b9050919050565b5f61167d82611667565b9050919050565b5f61168e82611673565b9050919050565b6116a66116a1826110eb565b611684565b82525050565b5f6116b78284611695565b60148201915081905092915050565b7f4e487b71000000000000000000000000000000000000000000000000000000005f52601260045260245ffd5b5f6116fd82611184565b915061170883611184565b925082611718576117176116c6565b5b828206905092915050565b5f61172d82611184565b915061173883611184565b925082611748576117476116c6565b5b82820490509291505056fea2646970667358221220b7fef51a9c7af5288687aa0e9d6083290de900ab37f67ff114a3a656754cfe7b64736f6c634300081a0033",
					"opcodes": "PUSH1 0x80 PUSH1 0x40 MSTORE PUSH0 DUP1 SSTORE PUSH0 PUSH1 0x1 SSTORE CALLVALUE DUP1 ISZERO PUSH2 0x16 JUMPI PUSH0 DUP1 REVERT JUMPDEST POP PUSH1 0x40 MLOAD PUSH2 0x18F1 CODESIZE SUB DUP1 PUSH2 0x18F1 DUP4 CODECOPY DUP2 DUP2 ADD PUSH1 0x40 MSTORE DUP2 ADD SWAP1 PUSH2 0x38 SWAP2 SWAP1 PUSH2 0x11D JUMP JUMPDEST DUP2 PUSH1 0x6 PUSH0 PUSH2 0x100 EXP DUP2 SLOAD DUP2 PUSH20 0xFFFFFFFFFFFFFFFFFFFFFFFFFFFFFFFFFFFFFFFF MUL NOT AND SWAP1 DUP4 PUSH20 0xFFFFFFFFFFFFFFFFFFFFFFFFFFFFFFFFFFFFFFFF AND MUL OR SWAP1 SSTORE POP DUP1 PUSH1 0x7 PUSH0 PUSH2 0x100 EXP DUP2 SLOAD DUP2 PUSH20 0xFFFFFFFFFFFFFFFFFFFFFFFFFFFFFFFFFFFFFFFF MUL NOT AND SWAP1 DUP4 PUSH20 0xFFFFFFFFFFFFFFFFFFFFFFFFFFFFFFFFFFFFFFFF AND MUL OR SWAP1 SSTORE POP POP POP PUSH2 0x15B JUMP JUMPDEST PUSH0 DUP1 REVERT JUMPDEST PUSH0 PUSH20 0xFFFFFFFFFFFFFFFFFFFFFFFFFFFFFFFFFFFFFFFF DUP3 AND SWAP1 POP SWAP2 SWAP1 POP JUMP JUMPDEST PUSH0 PUSH2 0xEC DUP3 PUSH2 0xC3 JUMP JUMPDEST SWAP1 POP SWAP2 SWAP1 POP JUMP JUMPDEST PUSH2 0xFC DUP2 PUSH2 0xE2 JUMP JUMPDEST DUP2 EQ PUSH2 0x106 JUMPI PUSH0 DUP1 REVERT JUMPDEST POP JUMP JUMPDEST PUSH0 DUP2 MLOAD SWAP1 POP PUSH2 0x117 DUP2 PUSH2 0xF3 JUMP JUMPDEST SWAP3 SWAP2 POP POP JUMP JUMPDEST PUSH0 DUP1 PUSH1 0x40 DUP4 DUP6 SUB SLT ISZERO PUSH2 0x133 JUMPI PUSH2 0x132 PUSH2 0xBF JUMP JUMPDEST JUMPDEST PUSH0 PUSH2 0x140 DUP6 DUP3 DUP7 ADD PUSH2 0x109 JUMP JUMPDEST SWAP3 POP POP PUSH1 0x20 PUSH2 0x151 DUP6 DUP3 DUP7 ADD PUSH2 0x109 JUMP JUMPDEST SWAP2 POP POP SWAP3 POP SWAP3 SWAP1 POP JUMP JUMPDEST PUSH2 0x1789 DUP1 PUSH2 0x168 PUSH0 CODECOPY PUSH0 RETURN INVALID PUSH1 0x80 PUSH1 0x40 MSTORE PUSH1 0x4 CALLDATASIZE LT PUSH2 0x9B JUMPI PUSH0 CALLDATALOAD PUSH1 0xE0 SHR DUP1 PUSH4 0x53356721 GT PUSH2 0x63 JUMPI DUP1 PUSH4 0x53356721 EQ PUSH2 0x14F JUMPI DUP1 PUSH4 0x701FD0F1 EQ PUSH2 0x18B JUMPI DUP1 PUSH4 0x90D5D0C3 EQ PUSH2 0x1B3 JUMPI DUP1 PUSH4 0x9D7B3F2D EQ PUSH2 0x1DD JUMPI DUP1 PUSH4 0xB14B28A3 EQ PUSH2 0x207 JUMPI DUP1 PUSH4 0xF71D96CB EQ PUSH2 0x231 JUMPI PUSH2 0x9B JUMP JUMPDEST DUP1 PUSH4 0x7B06720 EQ PUSH2 0x9F JUMPI DUP1 PUSH4 0xE1DA6C3 EQ PUSH2 0xDB JUMPI DUP1 PUSH4 0x228CB733 EQ PUSH2 0xF1 JUMPI DUP1 PUSH4 0x27B5DB8A EQ PUSH2 0x11B JUMPI DUP1 PUSH4 0x3C6A7F9B EQ PUSH2 0x125 JUMPI JUMPDEST PUSH0 DUP1 REVERT JUMPDEST CALLVALUE DUP1 ISZERO PUSH2 0xAA JUMPI PUSH0 DUP1 REVERT JUMPDEST POP PUSH2 0xC5 PUSH1 0x4 DUP1 CALLDATASIZE SUB DUP2 ADD SWAP1 PUSH2 0xC0 SWAP2 SWAP1 PUSH2 0x1126 JUMP JUMPDEST PUSH2 0x26D JUMP JUMPDEST PUSH1 0x40 MLOAD PUSH2 0xD2 SWAP2 SWAP1 PUSH2 0x116B JUMP JUMPDEST PUSH1 0x40 MLOAD DUP1 SWAP2 SUB SWAP1 RETURN JUMPDEST CALLVALUE DUP1 ISZERO PUSH2 0xE6 JUMPI PUSH0 DUP1 REVERT JUMPDEST POP PUSH2 0xEF PUSH2 0x28A JUMP JUMPDEST STOP JUMPDEST CALLVALUE DUP1 ISZERO PUSH2 0xFC JUMPI PUSH0 DUP1 REVERT JUMPDEST POP PUSH2 0x105 PUSH2 0x6E4 JUMP JUMPDEST PUSH1 0x40 MLOAD PUSH2 0x112 SWAP2 SWAP1 PUSH2 0x119C JUMP JUMPDEST PUSH1 0x40 MLOAD DUP1 SWAP2 SUB SWAP1 RETURN JUMPDEST PUSH2 0x123 PUSH2 0x6EA JUMP JUMPDEST STOP JUMPDEST CALLVALUE DUP1 ISZERO PUSH2 0x130 JUMPI PUSH0 DUP1 REVERT JUMPDEST POP PUSH2 0x139 PUSH2 0x828 JUMP JUMPDEST PUSH1 0x40 MLOAD PUSH2 0x146 SWAP2 SWAP1 PUSH2 0x1210 JUMP JUMPDEST PUSH1 0x40 MLOAD DUP1 SWAP2 SUB SWAP1 RETURN JUMPDEST CALLVALUE DUP1 ISZERO PUSH2 0x15A JUMPI PUSH0 DUP1 REVERT JUMPDEST POP PUSH2 0x175 PUSH1 0x4 DUP1 CALLDATASIZE SUB DUP2 ADD SWAP1 PUSH2 0x170 SWAP2 SWAP1 PUSH2 0x1126 JUMP JUMPDEST PUSH2 0x84D JUMP JUMPDEST PUSH1 0x40 MLOAD PUSH2 0x182 SWAP2 SWAP1 PUSH2 0x1241 JUMP JUMPDEST PUSH1 0x40 MLOAD DUP1 SWAP2 SUB SWAP1 RETURN JUMPDEST CALLVALUE DUP1 ISZERO PUSH2 0x196 JUMPI PUSH0 DUP1 REVERT JUMPDEST POP PUSH2 0x1B1 PUSH1 0x4 DUP1 CALLDATASIZE SUB DUP2 ADD SWAP1 PUSH2 0x1AC SWAP2 SWAP1 PUSH2 0x1284 JUMP JUMPDEST PUSH2 0x862 JUMP JUMPDEST STOP JUMPDEST CALLVALUE DUP1 ISZERO PUSH2 0x1BE JUMPI PUSH0 DUP1 REVERT JUMPDEST POP PUSH2 0x1C7 PUSH2 0xC47 JUMP JUMPDEST PUSH1 0x40 MLOAD PUSH2 0x1D4 SWAP2 SWAP1 PUSH2 0x119C JUMP JUMPDEST PUSH1 0x40 MLOAD DUP1 SWAP2 SUB SWAP1 RETURN JUMPDEST CALLVALUE DUP1 ISZERO PUSH2 0x1E8 JUMPI PUSH0 DUP1 REVERT JUMPDEST POP PUSH2 0x1F1 PUSH2 0xC4C JUMP JUMPDEST PUSH1 0x40 MLOAD PUSH2 0x1FE SWAP2 SWAP1 PUSH2 0x12CF JUMP JUMPDEST PUSH1 0x40 MLOAD DUP1 SWAP2 SUB SWAP1 RETURN JUMPDEST CALLVALUE DUP1 ISZERO PUSH2 0x212 JUMPI PUSH0 DUP1 REVERT JUMPDEST POP PUSH2 0x21B PUSH2 0xC71 JUMP JUMPDEST PUSH1 0x40 MLOAD PUSH2 0x228 SWAP2 SWAP1 PUSH2 0x119C JUMP JUMPDEST PUSH1 0x40 MLOAD DUP1 SWAP2 SUB SWAP1 RETURN JUMPDEST CALLVALUE DUP1 ISZERO PUSH2 0x23C JUMPI PUSH0 DUP1 REVERT JUMPDEST POP PUSH2 0x257 PUSH1 0x4 DUP1 CALLDATASIZE SUB DUP2 ADD SWAP1 PUSH2 0x252 SWAP2 SWAP1 PUSH2 0x1312 JUMP JUMPDEST PUSH2 0xC77 JUMP JUMPDEST PUSH1 0x40 MLOAD PUSH2 0x264 SWAP2 SWAP1 PUSH2 0x134C JUMP JUMPDEST PUSH1 0x40 MLOAD DUP1 SWAP2 SUB SWAP1 RETURN JUMPDEST PUSH1 0x3 PUSH1 0x20 MSTORE DUP1 PUSH0 MSTORE PUSH1 0x40 PUSH0 KECCAK256 PUSH0 SWAP2 POP SLOAD SWAP1 PUSH2 0x100 EXP SWAP1 DIV PUSH1 0xFF AND DUP2 JUMP JUMPDEST PUSH2 0x12C PUSH1 0x7 PUSH0 SWAP1 SLOAD SWAP1 PUSH2 0x100 EXP SWAP1 DIV PUSH20 0xFFFFFFFFFFFFFFFFFFFFFFFFFFFFFFFFFFFFFFFF AND PUSH20 0xFFFFFFFFFFFFFFFFFFFFFFFFFFFFFFFFFFFFFFFF AND PUSH4 0xBC06B8CD PUSH1 0x40 MLOAD DUP2 PUSH4 0xFFFFFFFF AND PUSH1 0xE0 SHL DUP2 MSTORE PUSH1 0x4 ADD PUSH1 0x20 PUSH1 0x40 MLOAD DUP1 DUP4 SUB DUP2 DUP7 GAS STATICCALL ISZERO DUP1 ISZERO PUSH2 0x2F7 JUMPI RETURNDATASIZE PUSH0 DUP1 RETURNDATACOPY RETURNDATASIZE PUSH0 REVERT JUMPDEST POP POP POP POP PUSH1 0x40 MLOAD RETURNDATASIZE PUSH1 0x1F NOT PUSH1 0x1F DUP3 ADD AND DUP3 ADD DUP1 PUSH1 0x40 MSTORE POP DUP2 ADD SWAP1 PUSH2 0x31B SWAP2 SWAP1 PUSH2 0x1379 JUMP JUMPDEST GT PUSH2 0x35B JUMPI PUSH1 0x40 MLOAD PUSH32 0x8C379A000000000000000000000000000000000000000000000000000000000 DUP2 MSTORE PUSH1 0x4 ADD PUSH2 0x352 SWAP1 PUSH2 0x13FE JUMP JUMPDEST PUSH1 0x40 MLOAD DUP1 SWAP2 SUB SWAP1 REVERT JUMPDEST PUSH1 0x3 PUSH0 PUSH1 0x4 PUSH0 DUP2 SLOAD DUP2 LT PUSH2 0x372 JUMPI PUSH2 0x371 PUSH2 0x141C JUMP JUMPDEST JUMPDEST SWAP1 PUSH0 MSTORE PUSH1 0x20 PUSH0 KECCAK256 ADD PUSH0 SWAP1 SLOAD SWAP1 PUSH2 0x100 EXP SWAP1 DIV PUSH20 0xFFFFFFFFFFFFFFFFFFFFFFFFFFFFFFFFFFFFFFFF AND PUSH20 0xFFFFFFFFFFFFFFFFFFFFFFFFFFFFFFFFFFFFFFFF AND PUSH20 0xFFFFFFFFFFFFFFFFFFFFFFFFFFFFFFFFFFFFFFFF AND DUP2 MSTORE PUSH1 0x20 ADD SWAP1 DUP2 MSTORE PUSH1 0x20 ADD PUSH0 KECCAK256 PUSH0 SWAP1 SLOAD SWAP1 PUSH2 0x100 EXP SWAP1 DIV PUSH1 0xFF AND DUP1 ISZERO PUSH2 0x46F JUMPI POP PUSH1 0x3 PUSH0 PUSH1 0x4 PUSH1 0x1 DUP2 SLOAD DUP2 LT PUSH2 0x3FF JUMPI PUSH2 0x3FE PUSH2 0x141C JUMP JUMPDEST JUMPDEST SWAP1 PUSH0 MSTORE PUSH1 0x20 PUSH0 KECCAK256 ADD PUSH0 SWAP1 SLOAD SWAP1 PUSH2 0x100 EXP SWAP1 DIV PUSH20 0xFFFFFFFFFFFFFFFFFFFFFFFFFFFFFFFFFFFFFFFF AND PUSH20 0xFFFFFFFFFFFFFFFFFFFFFFFFFFFFFFFFFFFFFFFF AND PUSH20 0xFFFFFFFFFFFFFFFFFFFFFFFFFFFFFFFFFFFFFFFF AND DUP2 MSTORE PUSH1 0x20 ADD SWAP1 DUP2 MSTORE PUSH1 0x20 ADD PUSH0 KECCAK256 PUSH0 SWAP1 SLOAD SWAP1 PUSH2 0x100 EXP SWAP1 DIV PUSH1 0xFF AND ISZERO JUMPDEST ISZERO PUSH2 0x4FA JUMPI PUSH1 0x4 PUSH0 DUP2 SLOAD DUP2 LT PUSH2 0x488 JUMPI PUSH2 0x487 PUSH2 0x141C JUMP JUMPDEST JUMPDEST SWAP1 PUSH0 MSTORE PUSH1 0x20 PUSH0 KECCAK256 ADD PUSH0 SWAP1 SLOAD SWAP1 PUSH2 0x100 EXP SWAP1 DIV PUSH20 0xFFFFFFFFFFFFFFFFFFFFFFFFFFFFFFFFFFFFFFFF AND PUSH20 0xFFFFFFFFFFFFFFFFFFFFFFFFFFFFFFFFFFFFFFFF AND PUSH2 0x8FC PUSH1 0x1 SLOAD SWAP1 DUP2 ISZERO MUL SWAP1 PUSH1 0x40 MLOAD PUSH0 PUSH1 0x40 MLOAD DUP1 DUP4 SUB DUP2 DUP6 DUP9 DUP9 CALL SWAP4 POP POP POP POP ISZERO DUP1 ISZERO PUSH2 0x4F4 JUMPI RETURNDATASIZE PUSH0 DUP1 RETURNDATACOPY RETURNDATASIZE PUSH0 REVERT JUMPDEST POP PUSH2 0x6E2 JUMP JUMPDEST PUSH1 0x3 PUSH0 PUSH1 0x4 PUSH0 DUP2 SLOAD DUP2 LT PUSH2 0x511 JUMPI PUSH2 0x510 PUSH2 0x141C JUMP JUMPDEST JUMPDEST SWAP1 PUSH0 MSTORE PUSH1 0x20 PUSH0 KECCAK256 ADD PUSH0 SWAP1 SLOAD SWAP1 PUSH2 0x100 EXP SWAP1 DIV PUSH20 0xFFFFFFFFFFFFFFFFFFFFFFFFFFFFFFFFFFFFFFFF AND PUSH20 0xFFFFFFFFFFFFFFFFFFFFFFFFFFFFFFFFFFFFFFFF AND PUSH20 0xFFFFFFFFFFFFFFFFFFFFFFFFFFFFFFFFFFFFFFFF AND DUP2 MSTORE PUSH1 0x20 ADD SWAP1 DUP2 MSTORE PUSH1 0x20 ADD PUSH0 KECCAK256 PUSH0 SWAP1 SLOAD SWAP1 PUSH2 0x100 EXP SWAP1 DIV PUSH1 0xFF AND ISZERO DUP1 ISZERO PUSH2 0x60E JUMPI POP PUSH1 0x3 PUSH0 PUSH1 0x4 PUSH1 0x1 DUP2 SLOAD DUP2 LT PUSH2 0x59F JUMPI PUSH2 0x59E PUSH2 0x141C JUMP JUMPDEST JUMPDEST SWAP1 PUSH0 MSTORE PUSH1 0x20 PUSH0 KECCAK256 ADD PUSH0 SWAP1 SLOAD SWAP1 PUSH2 0x100 EXP SWAP1 DIV PUSH20 0xFFFFFFFFFFFFFFFFFFFFFFFFFFFFFFFFFFFFFFFF AND PUSH20 0xFFFFFFFFFFFFFFFFFFFFFFFFFFFFFFFFFFFFFFFF AND PUSH20 0xFFFFFFFFFFFFFFFFFFFFFFFFFFFFFFFFFFFFFFFF AND DUP2 MSTORE PUSH1 0x20 ADD SWAP1 DUP2 MSTORE PUSH1 0x20 ADD PUSH0 KECCAK256 PUSH0 SWAP1 SLOAD SWAP1 PUSH2 0x100 EXP SWAP1 DIV PUSH1 0xFF AND JUMPDEST ISZERO PUSH2 0x69A JUMPI PUSH1 0x4 PUSH1 0x1 DUP2 SLOAD DUP2 LT PUSH2 0x628 JUMPI PUSH2 0x627 PUSH2 0x141C JUMP JUMPDEST JUMPDEST SWAP1 PUSH0 MSTORE PUSH1 0x20 PUSH0 KECCAK256 ADD PUSH0 SWAP1 SLOAD SWAP1 PUSH2 0x100 EXP SWAP1 DIV PUSH20 0xFFFFFFFFFFFFFFFFFFFFFFFFFFFFFFFFFFFFFFFF AND PUSH20 0xFFFFFFFFFFFFFFFFFFFFFFFFFFFFFFFFFFFFFFFF AND PUSH2 0x8FC PUSH1 0x1 SLOAD SWAP1 DUP2 ISZERO MUL SWAP1 PUSH1 0x40 MLOAD PUSH0 PUSH1 0x40 MLOAD DUP1 DUP4 SUB DUP2 DUP6 DUP9 DUP9 CALL SWAP4 POP POP POP POP ISZERO DUP1 ISZERO PUSH2 0x694 JUMPI RETURNDATASIZE PUSH0 DUP1 RETURNDATACOPY RETURNDATASIZE PUSH0 REVERT JUMPDEST POP PUSH2 0x6E1 JUMP JUMPDEST CALLER PUSH20 0xFFFFFFFFFFFFFFFFFFFFFFFFFFFFFFFFFFFFFFFF AND PUSH2 0x8FC PUSH1 0x1 SLOAD SWAP1 DUP2 ISZERO MUL SWAP1 PUSH1 0x40 MLOAD PUSH0 PUSH1 0x40 MLOAD DUP1 DUP4 SUB DUP2 DUP6 DUP9 DUP9 CALL SWAP4 POP POP POP POP ISZERO DUP1 ISZERO PUSH2 0x6DF JUMPI RETURNDATASIZE PUSH0 DUP1 RETURNDATACOPY RETURNDATASIZE PUSH0 REVERT JUMPDEST POP JUMPDEST JUMPDEST JUMP JUMPDEST PUSH1 0x1 SLOAD DUP2 JUMP JUMPDEST PUSH1 0x2 PUSH0 SLOAD LT PUSH2 0x6F7 JUMPI PUSH0 DUP1 REVERT JUMPDEST PUSH0 DUP1 SLOAD GT ISZERO PUSH2 0x773 JUMPI PUSH1 0x4 PUSH0 DUP2 SLOAD DUP2 LT PUSH2 0x714 JUMPI PUSH2 0x713 PUSH2 0x141C JUMP JUMPDEST JUMPDEST SWAP1 PUSH0 MSTORE PUSH1 0x20 PUSH0 KECCAK256 ADD PUSH0 SWAP1 SLOAD SWAP1 PUSH2 0x100 EXP SWAP1 DIV PUSH20 0xFFFFFFFFFFFFFFFFFFFFFFFFFFFFFFFFFFFFFFFF AND PUSH20 0xFFFFFFFFFFFFFFFFFFFFFFFFFFFFFFFFFFFFFFFF AND CALLER PUSH20 0xFFFFFFFFFFFFFFFFFFFFFFFFFFFFFFFFFFFFFFFF AND SUB PUSH2 0x772 JUMPI PUSH0 DUP1 REVERT JUMPDEST JUMPDEST PUSH0 PUSH1 0x1 ISZERO ISZERO DUP2 ISZERO ISZERO EQ PUSH2 0x784 JUMPI PUSH0 DUP1 REVERT JUMPDEST PUSH8 0xDE0B6B3A7640000 CALLVALUE EQ PUSH2 0x797 JUMPI PUSH0 DUP1 REVERT JUMPDEST CALLVALUE PUSH1 0x1 PUSH0 DUP3 DUP3 SLOAD PUSH2 0x7A8 SWAP2 SWAP1 PUSH2 0x1476 JUMP JUMPDEST SWAP3 POP POP DUP2 SWAP1 SSTORE POP PUSH1 0x4 CALLER SWAP1 DUP1 PUSH1 0x1 DUP2 SLOAD ADD DUP1 DUP3 SSTORE DUP1 SWAP2 POP POP PUSH1 0x1 SWAP1 SUB SWAP1 PUSH0 MSTORE PUSH1 0x20 PUSH0 KECCAK256 ADD PUSH0 SWAP1 SWAP2 SWAP1 SWAP2 SWAP1 SWAP2 PUSH2 0x100 EXP DUP2 SLOAD DUP2 PUSH20 0xFFFFFFFFFFFFFFFFFFFFFFFFFFFFFFFFFFFFFFFF MUL NOT AND SWAP1 DUP4 PUSH20 0xFFFFFFFFFFFFFFFFFFFFFFFFFFFFFFFFFFFFFFFF AND MUL OR SWAP1 SSTORE POP PUSH0 DUP1 DUP2 SLOAD DUP1 SWAP3 SWAP2 SWAP1 PUSH2 0x820 SWAP1 PUSH2 0x14A9 JUMP JUMPDEST SWAP2 SWAP1 POP SSTORE POP POP JUMP JUMPDEST PUSH1 0x7 PUSH0 SWAP1 SLOAD SWAP1 PUSH2 0x100 EXP SWAP1 DIV PUSH20 0xFFFFFFFFFFFFFFFFFFFFFFFFFFFFFFFFFFFFFFFF AND DUP2 JUMP JUMPDEST PUSH1 0x2 PUSH1 0x20 MSTORE DUP1 PUSH0 MSTORE PUSH1 0x40 PUSH0 KECCAK256 PUSH0 SWAP2 POP SWAP1 POP SLOAD DUP2 JUMP JUMPDEST PUSH1 0x2 PUSH0 SLOAD EQ PUSH2 0x8A6 JUMPI PUSH1 0x40 MLOAD PUSH32 0x8C379A000000000000000000000000000000000000000000000000000000000 DUP2 MSTORE PUSH1 0x4 ADD PUSH2 0x89D SWAP1 PUSH2 0x153A JUMP JUMPDEST PUSH1 0x40 MLOAD DUP1 SWAP2 SUB SWAP1 REVERT JUMPDEST PUSH1 0x3 PUSH0 CALLER PUSH20 0xFFFFFFFFFFFFFFFFFFFFFFFFFFFFFFFFFFFFFFFF AND PUSH20 0xFFFFFFFFFFFFFFFFFFFFFFFFFFFFFFFFFFFFFFFF AND DUP2 MSTORE PUSH1 0x20 ADD SWAP1 DUP2 MSTORE PUSH1 0x20 ADD PUSH0 KECCAK256 PUSH0 SWAP1 SLOAD SWAP1 PUSH2 0x100 EXP SWAP1 DIV PUSH1 0xFF AND ISZERO PUSH2 0x930 JUMPI PUSH1 0x40 MLOAD PUSH32 0x8C379A000000000000000000000000000000000000000000000000000000000 DUP2 MSTORE PUSH1 0x4 ADD PUSH2 0x927 SWAP1 PUSH2 0x15A2 JUMP JUMPDEST PUSH1 0x40 MLOAD DUP1 SWAP2 SUB SWAP1 REVERT JUMPDEST PUSH1 0x2 PUSH0 CALLER PUSH20 0xFFFFFFFFFFFFFFFFFFFFFFFFFFFFFFFFFFFFFFFF AND PUSH20 0xFFFFFFFFFFFFFFFFFFFFFFFFFFFFFFFFFFFFFFFF AND DUP2 MSTORE PUSH1 0x20 ADD SWAP1 DUP2 MSTORE PUSH1 0x20 ADD PUSH0 KECCAK256 SLOAD PUSH1 0x6 PUSH0 SWAP1 SLOAD SWAP1 PUSH2 0x100 EXP SWAP1 DIV PUSH20 0xFFFFFFFFFFFFFFFFFFFFFFFFFFFFFFFFFFFFFFFF AND PUSH20 0xFFFFFFFFFFFFFFFFFFFFFFFFFFFFFFFFFFFFFFFF AND PUSH4 0x3CF5040A DUP4 PUSH1 0x40 MLOAD DUP3 PUSH4 0xFFFFFFFF AND PUSH1 0xE0 SHL DUP2 MSTORE PUSH1 0x4 ADD PUSH2 0x9C8 SWAP2 SWAP1 PUSH2 0x1241 JUMP JUMPDEST PUSH1 0x20 PUSH1 0x40 MLOAD DUP1 DUP4 SUB DUP2 DUP7 GAS STATICCALL ISZERO DUP1 ISZERO PUSH2 0x9E3 JUMPI RETURNDATASIZE PUSH0 DUP1 RETURNDATACOPY RETURNDATASIZE PUSH0 REVERT JUMPDEST POP POP POP POP PUSH1 0x40 MLOAD RETURNDATASIZE PUSH1 0x1F NOT PUSH1 0x1F DUP3 ADD AND DUP3 ADD DUP1 PUSH1 0x40 MSTORE POP DUP2 ADD SWAP1 PUSH2 0xA07 SWAP2 SWAP1 PUSH2 0x15D4 JUMP JUMPDEST EQ PUSH2 0xA47 JUMPI PUSH1 0x40 MLOAD PUSH32 0x8C379A000000000000000000000000000000000000000000000000000000000 DUP2 MSTORE PUSH1 0x4 ADD PUSH2 0xA3E SWAP1 PUSH2 0x1649 JUMP JUMPDEST PUSH1 0x40 MLOAD DUP1 SWAP2 SUB SWAP1 REVERT JUMPDEST PUSH1 0x1 PUSH1 0x3 PUSH0 CALLER PUSH20 0xFFFFFFFFFFFFFFFFFFFFFFFFFFFFFFFFFFFFFFFF AND PUSH20 0xFFFFFFFFFFFFFFFFFFFFFFFFFFFFFFFFFFFFFFFF AND DUP2 MSTORE PUSH1 0x20 ADD SWAP1 DUP2 MSTORE PUSH1 0x20 ADD PUSH0 KECCAK256 PUSH0 PUSH2 0x100 EXP DUP2 SLOAD DUP2 PUSH1 0xFF MUL NOT AND SWAP1 DUP4 ISZERO ISZERO MUL OR SWAP1 SSTORE POP PUSH1 0x6 PUSH0 SWAP1 SLOAD SWAP1 PUSH2 0x100 EXP SWAP1 DIV PUSH20 0xFFFFFFFFFFFFFFFFFFFFFFFFFFFFFFFFFFFFFFFF AND PUSH20 0xFFFFFFFFFFFFFFFFFFFFFFFFFFFFFFFFFFFFFFFF AND PUSH4 0x701FD0F1 DUP3 PUSH1 0x40 MLOAD DUP3 PUSH4 0xFFFFFFFF AND PUSH1 0xE0 SHL DUP2 MSTORE PUSH1 0x4 ADD PUSH2 0xAF6 SWAP2 SWAP1 PUSH2 0x1241 JUMP JUMPDEST PUSH0 PUSH1 0x40 MLOAD DUP1 DUP4 SUB DUP2 PUSH0 DUP8 DUP1 EXTCODESIZE ISZERO DUP1 ISZERO PUSH2 0xB0D JUMPI PUSH0 DUP1 REVERT JUMPDEST POP GAS CALL ISZERO DUP1 ISZERO PUSH2 0xB1F JUMPI RETURNDATASIZE PUSH0 DUP1 RETURNDATACOPY RETURNDATASIZE PUSH0 REVERT JUMPDEST POP POP POP POP PUSH1 0x3 PUSH0 PUSH1 0x4 PUSH0 DUP2 SLOAD DUP2 LT PUSH2 0xB3A JUMPI PUSH2 0xB39 PUSH2 0x141C JUMP JUMPDEST JUMPDEST SWAP1 PUSH0 MSTORE PUSH1 0x20 PUSH0 KECCAK256 ADD PUSH0 SWAP1 SLOAD SWAP1 PUSH2 0x100 EXP SWAP1 DIV PUSH20 0xFFFFFFFFFFFFFFFFFFFFFFFFFFFFFFFFFFFFFFFF AND PUSH20 0xFFFFFFFFFFFFFFFFFFFFFFFFFFFFFFFFFFFFFFFF AND PUSH20 0xFFFFFFFFFFFFFFFFFFFFFFFFFFFFFFFFFFFFFFFF AND DUP2 MSTORE PUSH1 0x20 ADD SWAP1 DUP2 MSTORE PUSH1 0x20 ADD PUSH0 KECCAK256 PUSH0 SWAP1 SLOAD SWAP1 PUSH2 0x100 EXP SWAP1 DIV PUSH1 0xFF AND DUP1 ISZERO PUSH2 0xC36 JUMPI POP PUSH1 0x3 PUSH0 PUSH1 0x4 PUSH1 0x1 DUP2 SLOAD DUP2 LT PUSH2 0xBC7 JUMPI PUSH2 0xBC6 PUSH2 0x141C JUMP JUMPDEST JUMPDEST SWAP1 PUSH0 MSTORE PUSH1 0x20 PUSH0 KECCAK256 ADD PUSH0 SWAP1 SLOAD SWAP1 PUSH2 0x100 EXP SWAP1 DIV PUSH20 0xFFFFFFFFFFFFFFFFFFFFFFFFFFFFFFFFFFFFFFFF AND PUSH20 0xFFFFFFFFFFFFFFFFFFFFFFFFFFFFFFFFFFFFFFFF AND PUSH20 0xFFFFFFFFFFFFFFFFFFFFFFFFFFFFFFFFFFFFFFFF AND DUP2 MSTORE PUSH1 0x20 ADD SWAP1 DUP2 MSTORE PUSH1 0x20 ADD PUSH0 KECCAK256 PUSH0 SWAP1 SLOAD SWAP1 PUSH2 0x100 EXP SWAP1 DIV PUSH1 0xFF AND JUMPDEST ISZERO PUSH2 0xC44 JUMPI PUSH2 0xC43 PUSH2 0xCB2 JUMP JUMPDEST JUMPDEST POP JUMP JUMPDEST PUSH0 SLOAD DUP2 JUMP JUMPDEST PUSH1 0x6 PUSH0 SWAP1 SLOAD SWAP1 PUSH2 0x100 EXP SWAP1 DIV PUSH20 0xFFFFFFFFFFFFFFFFFFFFFFFFFFFFFFFFFFFFFFFF AND DUP2 JUMP JUMPDEST PUSH1 0x5 SLOAD DUP2 JUMP JUMPDEST PUSH1 0x4 DUP2 DUP2 SLOAD DUP2 LT PUSH2 0xC86 JUMPI PUSH0 DUP1 REVERT JUMPDEST SWAP1 PUSH0 MSTORE PUSH1 0x20 PUSH0 KECCAK256 ADD PUSH0 SWAP2 POP SLOAD SWAP1 PUSH2 0x100 EXP SWAP1 DIV PUSH20 0xFFFFFFFFFFFFFFFFFFFFFFFFFFFFFFFFFFFFFFFF AND DUP2 JUMP JUMPDEST PUSH0 PUSH1 0x3 PUSH1 0x6 PUSH0 SWAP1 SLOAD SWAP1 PUSH2 0x100 EXP SWAP1 DIV PUSH20 0xFFFFFFFFFFFFFFFFFFFFFFFFFFFFFFFFFFFFFFFF AND PUSH20 0xFFFFFFFFFFFFFFFFFFFFFFFFFFFFFFFFFFFFFFFF AND PUSH4 0x3CF5040A PUSH1 0x4 PUSH0 DUP2 SLOAD DUP2 LT PUSH2 0xD06 JUMPI PUSH2 0xD05 PUSH2 0x141C JUMP JUMPDEST JUMPDEST SWAP1 PUSH0 MSTORE PUSH1 0x20 PUSH0 KECCAK256 ADD PUSH0 SWAP1 SLOAD SWAP1 PUSH2 0x100 EXP SWAP1 DIV PUSH20 0xFFFFFFFFFFFFFFFFFFFFFFFFFFFFFFFFFFFFFFFF AND PUSH1 0x40 MLOAD PUSH1 0x20 ADD PUSH2 0xD3E SWAP2 SWAP1 PUSH2 0x16AC JUMP JUMPDEST PUSH1 0x40 MLOAD PUSH1 0x20 DUP2 DUP4 SUB SUB DUP2 MSTORE SWAP1 PUSH1 0x40 MSTORE DUP1 MLOAD SWAP1 PUSH1 0x20 ADD KECCAK256 PUSH1 0x40 MLOAD DUP3 PUSH4 0xFFFFFFFF AND PUSH1 0xE0 SHL DUP2 MSTORE PUSH1 0x4 ADD PUSH2 0xD70 SWAP2 SWAP1 PUSH2 0x1241 JUMP JUMPDEST PUSH1 0x20 PUSH1 0x40 MLOAD DUP1 DUP4 SUB DUP2 DUP7 GAS STATICCALL ISZERO DUP1 ISZERO PUSH2 0xD8B JUMPI RETURNDATASIZE PUSH0 DUP1 RETURNDATACOPY RETURNDATASIZE PUSH0 REVERT JUMPDEST POP POP POP POP PUSH1 0x40 MLOAD RETURNDATASIZE PUSH1 0x1F NOT PUSH1 0x1F DUP3 ADD AND DUP3 ADD DUP1 PUSH1 0x40 MSTORE POP DUP2 ADD SWAP1 PUSH2 0xDAF SWAP2 SWAP1 PUSH2 0x15D4 JUMP JUMPDEST PUSH0 SHR PUSH2 0xDBB SWAP2 SWAP1 PUSH2 0x16F3 JUMP JUMPDEST SWAP1 POP PUSH0 PUSH1 0x3 PUSH1 0x6 PUSH0 SWAP1 SLOAD SWAP1 PUSH2 0x100 EXP SWAP1 DIV PUSH20 0xFFFFFFFFFFFFFFFFFFFFFFFFFFFFFFFFFFFFFFFF AND PUSH20 0xFFFFFFFFFFFFFFFFFFFFFFFFFFFFFFFFFFFFFFFF AND PUSH4 0x3CF5040A PUSH1 0x4 PUSH1 0x1 DUP2 SLOAD DUP2 LT PUSH2 0xE12 JUMPI PUSH2 0xE11 PUSH2 0x141C JUMP JUMPDEST JUMPDEST SWAP1 PUSH0 MSTORE PUSH1 0x20 PUSH0 KECCAK256 ADD PUSH0 SWAP1 SLOAD SWAP1 PUSH2 0x100 EXP SWAP1 DIV PUSH20 0xFFFFFFFFFFFFFFFFFFFFFFFFFFFFFFFFFFFFFFFF AND PUSH1 0x40 MLOAD PUSH1 0x20 ADD PUSH2 0xE4A SWAP2 SWAP1 PUSH2 0x16AC JUMP JUMPDEST PUSH1 0x40 MLOAD PUSH1 0x20 DUP2 DUP4 SUB SUB DUP2 MSTORE SWAP1 PUSH1 0x40 MSTORE DUP1 MLOAD SWAP1 PUSH1 0x20 ADD KECCAK256 PUSH1 0x40 MLOAD DUP3 PUSH4 0xFFFFFFFF AND PUSH1 0xE0 SHL DUP2 MSTORE PUSH1 0x4 ADD PUSH2 0xE7C SWAP2 SWAP1 PUSH2 0x1241 JUMP JUMPDEST PUSH1 0x20 PUSH1 0x40 MLOAD DUP1 DUP4 SUB DUP2 DUP7 GAS STATICCALL ISZERO DUP1 ISZERO PUSH2 0xE97 JUMPI RETURNDATASIZE PUSH0 DUP1 RETURNDATACOPY RETURNDATASIZE PUSH0 REVERT JUMPDEST POP POP POP POP PUSH1 0x40 MLOAD RETURNDATASIZE PUSH1 0x1F NOT PUSH1 0x1F DUP3 ADD AND DUP3 ADD DUP1 PUSH1 0x40 MSTORE POP DUP2 ADD SWAP1 PUSH2 0xEBB SWAP2 SWAP1 PUSH2 0x15D4 JUMP JUMPDEST PUSH0 SHR PUSH2 0xEC7 SWAP2 SWAP1 PUSH2 0x16F3 JUMP JUMPDEST SWAP1 POP PUSH0 PUSH1 0x4 PUSH0 DUP2 SLOAD DUP2 LT PUSH2 0xEDE JUMPI PUSH2 0xEDD PUSH2 0x141C JUMP JUMPDEST JUMPDEST SWAP1 PUSH0 MSTORE PUSH1 0x20 PUSH0 KECCAK256 ADD PUSH0 SWAP1 SLOAD SWAP1 PUSH2 0x100 EXP SWAP1 DIV PUSH20 0xFFFFFFFFFFFFFFFFFFFFFFFFFFFFFFFFFFFFFFFF AND SWAP1 POP PUSH0 PUSH1 0x4 PUSH1 0x1 DUP2 SLOAD DUP2 LT PUSH2 0xF1E JUMPI PUSH2 0xF1D PUSH2 0x141C JUMP JUMPDEST JUMPDEST SWAP1 PUSH0 MSTORE PUSH1 0x20 PUSH0 KECCAK256 ADD PUSH0 SWAP1 SLOAD SWAP1 PUSH2 0x100 EXP SWAP1 DIV PUSH20 0xFFFFFFFFFFFFFFFFFFFFFFFFFFFFFFFFFFFFFFFF AND SWAP1 POP DUP3 PUSH1 0x3 PUSH1 0x1 DUP7 PUSH2 0xF58 SWAP2 SWAP1 PUSH2 0x1476 JUMP JUMPDEST PUSH2 0xF62 SWAP2 SWAP1 PUSH2 0x16F3 JUMP JUMPDEST SUB PUSH2 0xFB2 JUMPI DUP1 PUSH20 0xFFFFFFFFFFFFFFFFFFFFFFFFFFFFFFFFFFFFFFFF AND PUSH2 0x8FC PUSH1 0x1 SLOAD SWAP1 DUP2 ISZERO MUL SWAP1 PUSH1 0x40 MLOAD PUSH0 PUSH1 0x40 MLOAD DUP1 DUP4 SUB DUP2 DUP6 DUP9 DUP9 CALL SWAP4 POP POP POP POP ISZERO DUP1 ISZERO PUSH2 0xFAC JUMPI RETURNDATASIZE PUSH0 DUP1 RETURNDATACOPY RETURNDATASIZE PUSH0 REVERT JUMPDEST POP PUSH2 0x10C2 JUMP JUMPDEST DUP4 PUSH1 0x3 PUSH1 0x1 DUP6 PUSH2 0xFC2 SWAP2 SWAP1 PUSH2 0x1476 JUMP JUMPDEST PUSH2 0xFCC SWAP2 SWAP1 PUSH2 0x16F3 JUMP JUMPDEST SUB PUSH2 0x101C JUMPI DUP2 PUSH20 0xFFFFFFFFFFFFFFFFFFFFFFFFFFFFFFFFFFFFFFFF AND PUSH2 0x8FC PUSH1 0x1 SLOAD SWAP1 DUP2 ISZERO MUL SWAP1 PUSH1 0x40 MLOAD PUSH0 PUSH1 0x40 MLOAD DUP1 DUP4 SUB DUP2 DUP6 DUP9 DUP9 CALL SWAP4 POP POP POP POP ISZERO DUP1 ISZERO PUSH2 0x1016 JUMPI RETURNDATASIZE PUSH0 DUP1 RETURNDATACOPY RETURNDATASIZE PUSH0 REVERT JUMPDEST POP PUSH2 0x10C1 JUMP JUMPDEST DUP2 PUSH20 0xFFFFFFFFFFFFFFFFFFFFFFFFFFFFFFFFFFFFFFFF AND PUSH2 0x8FC PUSH1 0x2 PUSH1 0x1 SLOAD PUSH2 0x1045 SWAP2 SWAP1 PUSH2 0x1723 JUMP JUMPDEST SWAP1 DUP2 ISZERO MUL SWAP1 PUSH1 0x40 MLOAD PUSH0 PUSH1 0x40 MLOAD DUP1 DUP4 SUB DUP2 DUP6 DUP9 DUP9 CALL SWAP4 POP POP POP POP ISZERO DUP1 ISZERO PUSH2 0x106D JUMPI RETURNDATASIZE PUSH0 DUP1 RETURNDATACOPY RETURNDATASIZE PUSH0 REVERT JUMPDEST POP DUP1 PUSH20 0xFFFFFFFFFFFFFFFFFFFFFFFFFFFFFFFFFFFFFFFF AND PUSH2 0x8FC PUSH1 0x2 PUSH1 0x1 SLOAD PUSH2 0x1097 SWAP2 SWAP1 PUSH2 0x1723 JUMP JUMPDEST SWAP1 DUP2 ISZERO MUL SWAP1 PUSH1 0x40 MLOAD PUSH0 PUSH1 0x40 MLOAD DUP1 DUP4 SUB DUP2 DUP6 DUP9 DUP9 CALL SWAP4 POP POP POP POP ISZERO DUP1 ISZERO PUSH2 0x10BF JUMPI RETURNDATASIZE PUSH0 DUP1 RETURNDATACOPY RETURNDATASIZE PUSH0 REVERT JUMPDEST POP JUMPDEST JUMPDEST POP POP POP POP JUMP JUMPDEST PUSH0 DUP1 REVERT JUMPDEST PUSH0 PUSH20 0xFFFFFFFFFFFFFFFFFFFFFFFFFFFFFFFFFFFFFFFF DUP3 AND SWAP1 POP SWAP2 SWAP1 POP JUMP JUMPDEST PUSH0 PUSH2 0x10F5 DUP3 PUSH2 0x10CC JUMP JUMPDEST SWAP1 POP SWAP2 SWAP1 POP JUMP JUMPDEST PUSH2 0x1105 DUP2 PUSH2 0x10EB JUMP JUMPDEST DUP2 EQ PUSH2 0x110F JUMPI PUSH0 DUP1 REVERT JUMPDEST POP JUMP JUMPDEST PUSH0 DUP2 CALLDATALOAD SWAP1 POP PUSH2 0x1120 DUP2 PUSH2 0x10FC JUMP JUMPDEST SWAP3 SWAP2 POP POP JUMP JUMPDEST PUSH0 PUSH1 0x20 DUP3 DUP5 SUB SLT ISZERO PUSH2 0x113B JUMPI PUSH2 0x113A PUSH2 0x10C8 JUMP JUMPDEST JUMPDEST PUSH0 PUSH2 0x1148 DUP5 DUP3 DUP6 ADD PUSH2 0x1112 JUMP JUMPDEST SWAP2 POP POP SWAP3 SWAP2 POP POP JUMP JUMPDEST PUSH0 DUP2 ISZERO ISZERO SWAP1 POP SWAP2 SWAP1 POP JUMP JUMPDEST PUSH2 0x1165 DUP2 PUSH2 0x1151 JUMP JUMPDEST DUP3 MSTORE POP POP JUMP JUMPDEST PUSH0 PUSH1 0x20 DUP3 ADD SWAP1 POP PUSH2 0x117E PUSH0 DUP4 ADD DUP5 PUSH2 0x115C JUMP JUMPDEST SWAP3 SWAP2 POP POP JUMP JUMPDEST PUSH0 DUP2 SWAP1 POP SWAP2 SWAP1 POP JUMP JUMPDEST PUSH2 0x1196 DUP2 PUSH2 0x1184 JUMP JUMPDEST DUP3 MSTORE POP POP JUMP JUMPDEST PUSH0 PUSH1 0x20 DUP3 ADD SWAP1 POP PUSH2 0x11AF PUSH0 DUP4 ADD DUP5 PUSH2 0x118D JUMP JUMPDEST SWAP3 SWAP2 POP POP JUMP JUMPDEST PUSH0 DUP2 SWAP1 POP SWAP2 SWAP1 POP JUMP JUMPDEST PUSH0 PUSH2 0x11D8 PUSH2 0x11D3 PUSH2 0x11CE DUP5 PUSH2 0x10CC JUMP JUMPDEST PUSH2 0x11B5 JUMP JUMPDEST PUSH2 0x10CC JUMP JUMPDEST SWAP1 POP SWAP2 SWAP1 POP JUMP JUMPDEST PUSH0 PUSH2 0x11E9 DUP3 PUSH2 0x11BE JUMP JUMPDEST SWAP1 POP SWAP2 SWAP1 POP JUMP JUMPDEST PUSH0 PUSH2 0x11FA DUP3 PUSH2 0x11DF JUMP JUMPDEST SWAP1 POP SWAP2 SWAP1 POP JUMP JUMPDEST PUSH2 0x120A DUP2 PUSH2 0x11F0 JUMP JUMPDEST DUP3 MSTORE POP POP JUMP JUMPDEST PUSH0 PUSH1 0x20 DUP3 ADD SWAP1 POP PUSH2 0x1223 PUSH0 DUP4 ADD DUP5 PUSH2 0x1201 JUMP JUMPDEST SWAP3 SWAP2 POP POP JUMP JUMPDEST PUSH0 DUP2 SWAP1 POP SWAP2 SWAP1 POP JUMP JUMPDEST PUSH2 0x123B DUP2 PUSH2 0x1229 JUMP JUMPDEST DUP3 MSTORE POP POP JUMP JUMPDEST PUSH0 PUSH1 0x20 DUP3 ADD SWAP1 POP PUSH2 0x1254 PUSH0 DUP4 ADD DUP5 PUSH2 0x1232 JUMP JUMPDEST SWAP3 SWAP2 POP POP JUMP JUMPDEST PUSH2 0x1263 DUP2 PUSH2 0x1229 JUMP JUMPDEST DUP2 EQ PUSH2 0x126D JUMPI PUSH0 DUP1 REVERT JUMPDEST POP JUMP JUMPDEST PUSH0 DUP2 CALLDATALOAD SWAP1 POP PUSH2 0x127E DUP2 PUSH2 0x125A JUMP JUMPDEST SWAP3 SWAP2 POP POP JUMP JUMPDEST PUSH0 PUSH1 0x20 DUP3 DUP5 SUB SLT ISZERO PUSH2 0x1299 JUMPI PUSH2 0x1298 PUSH2 0x10C8 JUMP JUMPDEST JUMPDEST PUSH0 PUSH2 0x12A6 DUP5 DUP3 DUP6 ADD PUSH2 0x1270 JUMP JUMPDEST SWAP2 POP POP SWAP3 SWAP2 POP POP JUMP JUMPDEST PUSH0 PUSH2 0x12B9 DUP3 PUSH2 0x11DF JUMP JUMPDEST SWAP1 POP SWAP2 SWAP1 POP JUMP JUMPDEST PUSH2 0x12C9 DUP2 PUSH2 0x12AF JUMP JUMPDEST DUP3 MSTORE POP POP JUMP JUMPDEST PUSH0 PUSH1 0x20 DUP3 ADD SWAP1 POP PUSH2 0x12E2 PUSH0 DUP4 ADD DUP5 PUSH2 0x12C0 JUMP JUMPDEST SWAP3 SWAP2 POP POP JUMP JUMPDEST PUSH2 0x12F1 DUP2 PUSH2 0x1184 JUMP JUMPDEST DUP2 EQ PUSH2 0x12FB JUMPI PUSH0 DUP1 REVERT JUMPDEST POP JUMP JUMPDEST PUSH0 DUP2 CALLDATALOAD SWAP1 POP PUSH2 0x130C DUP2 PUSH2 0x12E8 JUMP JUMPDEST SWAP3 SWAP2 POP POP JUMP JUMPDEST PUSH0 PUSH1 0x20 DUP3 DUP5 SUB SLT ISZERO PUSH2 0x1327 JUMPI PUSH2 0x1326 PUSH2 0x10C8 JUMP JUMPDEST JUMPDEST PUSH0 PUSH2 0x1334 DUP5 DUP3 DUP6 ADD PUSH2 0x12FE JUMP JUMPDEST SWAP2 POP POP SWAP3 SWAP2 POP POP JUMP JUMPDEST PUSH2 0x1346 DUP2 PUSH2 0x10EB JUMP JUMPDEST DUP3 MSTORE POP POP JUMP JUMPDEST PUSH0 PUSH1 0x20 DUP3 ADD SWAP1 POP PUSH2 0x135F PUSH0 DUP4 ADD DUP5 PUSH2 0x133D JUMP JUMPDEST SWAP3 SWAP2 POP POP JUMP JUMPDEST PUSH0 DUP2 MLOAD SWAP1 POP PUSH2 0x1373 DUP2 PUSH2 0x12E8 JUMP JUMPDEST SWAP3 SWAP2 POP POP JUMP JUMPDEST PUSH0 PUSH1 0x20 DUP3 DUP5 SUB SLT ISZERO PUSH2 0x138E JUMPI PUSH2 0x138D PUSH2 0x10C8 JUMP JUMPDEST JUMPDEST PUSH0 PUSH2 0x139B DUP5 DUP3 DUP6 ADD PUSH2 0x1365 JUMP JUMPDEST SWAP2 POP POP SWAP3 SWAP2 POP POP JUMP JUMPDEST PUSH0 DUP3 DUP3 MSTORE PUSH1 0x20 DUP3 ADD SWAP1 POP SWAP3 SWAP2 POP POP JUMP JUMPDEST PUSH32 0x54696D65206E6F74206578706972656400000000000000000000000000000000 PUSH0 DUP3 ADD MSTORE POP JUMP JUMPDEST PUSH0 PUSH2 0x13E8 PUSH1 0x10 DUP4 PUSH2 0x13A4 JUMP JUMPDEST SWAP2 POP PUSH2 0x13F3 DUP3 PUSH2 0x13B4 JUMP JUMPDEST PUSH1 0x20 DUP3 ADD SWAP1 POP SWAP2 SWAP1 POP JUMP JUMPDEST PUSH0 PUSH1 0x20 DUP3 ADD SWAP1 POP DUP2 DUP2 SUB PUSH0 DUP4 ADD MSTORE PUSH2 0x1415 DUP2 PUSH2 0x13DC JUMP JUMPDEST SWAP1 POP SWAP2 SWAP1 POP JUMP JUMPDEST PUSH32 0x4E487B7100000000000000000000000000000000000000000000000000000000 PUSH0 MSTORE PUSH1 0x32 PUSH1 0x4 MSTORE PUSH1 0x24 PUSH0 REVERT JUMPDEST PUSH32 0x4E487B7100000000000000000000000000000000000000000000000000000000 PUSH0 MSTORE PUSH1 0x11 PUSH1 0x4 MSTORE PUSH1 0x24 PUSH0 REVERT JUMPDEST PUSH0 PUSH2 0x1480 DUP3 PUSH2 0x1184 JUMP JUMPDEST SWAP2 POP PUSH2 0x148B DUP4 PUSH2 0x1184 JUMP JUMPDEST SWAP3 POP DUP3 DUP3 ADD SWAP1 POP DUP1 DUP3 GT ISZERO PUSH2 0x14A3 JUMPI PUSH2 0x14A2 PUSH2 0x1449 JUMP JUMPDEST JUMPDEST SWAP3 SWAP2 POP POP JUMP JUMPDEST PUSH0 PUSH2 0x14B3 DUP3 PUSH2 0x1184 JUMP JUMPDEST SWAP2 POP PUSH32 0xFFFFFFFFFFFFFFFFFFFFFFFFFFFFFFFFFFFFFFFFFFFFFFFFFFFFFFFFFFFFFFFF DUP3 SUB PUSH2 0x14E5 JUMPI PUSH2 0x14E4 PUSH2 0x1449 JUMP JUMPDEST JUMPDEST PUSH1 0x1 DUP3 ADD SWAP1 POP SWAP2 SWAP1 POP JUMP JUMPDEST PUSH32 0x4E6F7420656E6F75676820706C61796572730000000000000000000000000000 PUSH0 DUP3 ADD MSTORE POP JUMP JUMPDEST PUSH0 PUSH2 0x1524 PUSH1 0x12 DUP4 PUSH2 0x13A4 JUMP JUMPDEST SWAP2 POP PUSH2 0x152F DUP3 PUSH2 0x14F0 JUMP JUMPDEST PUSH1 0x20 DUP3 ADD SWAP1 POP SWAP2 SWAP1 POP JUMP JUMPDEST PUSH0 PUSH1 0x20 DUP3 ADD SWAP1 POP DUP2 DUP2 SUB PUSH0 DUP4 ADD MSTORE PUSH2 0x1551 DUP2 PUSH2 0x1518 JUMP JUMPDEST SWAP1 POP SWAP2 SWAP1 POP JUMP JUMPDEST PUSH32 0x416C72656164792072657665616C656400000000000000000000000000000000 PUSH0 DUP3 ADD MSTORE POP JUMP JUMPDEST PUSH0 PUSH2 0x158C PUSH1 0x10 DUP4 PUSH2 0x13A4 JUMP JUMPDEST SWAP2 POP PUSH2 0x1597 DUP3 PUSH2 0x1558 JUMP JUMPDEST PUSH1 0x20 DUP3 ADD SWAP1 POP SWAP2 SWAP1 POP JUMP JUMPDEST PUSH0 PUSH1 0x20 DUP3 ADD SWAP1 POP DUP2 DUP2 SUB PUSH0 DUP4 ADD MSTORE PUSH2 0x15B9 DUP2 PUSH2 0x1580 JUMP JUMPDEST SWAP1 POP SWAP2 SWAP1 POP JUMP JUMPDEST PUSH0 DUP2 MLOAD SWAP1 POP PUSH2 0x15CE DUP2 PUSH2 0x125A JUMP JUMPDEST SWAP3 SWAP2 POP POP JUMP JUMPDEST PUSH0 PUSH1 0x20 DUP3 DUP5 SUB SLT ISZERO PUSH2 0x15E9 JUMPI PUSH2 0x15E8 PUSH2 0x10C8 JUMP JUMPDEST JUMPDEST PUSH0 PUSH2 0x15F6 DUP5 DUP3 DUP6 ADD PUSH2 0x15C0 JUMP JUMPDEST SWAP2 POP POP SWAP3 SWAP2 POP POP JUMP JUMPDEST PUSH32 0x496E76616C69642072657665616C000000000000000000000000000000000000 PUSH0 DUP3 ADD MSTORE POP JUMP JUMPDEST PUSH0 PUSH2 0x1633 PUSH1 0xE DUP4 PUSH2 0x13A4 JUMP JUMPDEST SWAP2 POP PUSH2 0x163E DUP3 PUSH2 0x15FF JUMP JUMPDEST PUSH1 0x20 DUP3 ADD SWAP1 POP SWAP2 SWAP1 POP JUMP JUMPDEST PUSH0 PUSH1 0x20 DUP3 ADD SWAP1 POP DUP2 DUP2 SUB PUSH0 DUP4 ADD MSTORE PUSH2 0x1660 DUP2 PUSH2 0x1627 JUMP JUMPDEST SWAP1 POP SWAP2 SWAP1 POP JUMP JUMPDEST PUSH0 DUP2 PUSH1 0x60 SHL SWAP1 POP SWAP2 SWAP1 POP JUMP JUMPDEST PUSH0 PUSH2 0x167D DUP3 PUSH2 0x1667 JUMP JUMPDEST SWAP1 POP SWAP2 SWAP1 POP JUMP JUMPDEST PUSH0 PUSH2 0x168E DUP3 PUSH2 0x1673 JUMP JUMPDEST SWAP1 POP SWAP2 SWAP1 POP JUMP JUMPDEST PUSH2 0x16A6 PUSH2 0x16A1 DUP3 PUSH2 0x10EB JUMP JUMPDEST PUSH2 0x1684 JUMP JUMPDEST DUP3 MSTORE POP POP JUMP JUMPDEST PUSH0 PUSH2 0x16B7 DUP3 DUP5 PUSH2 0x1695 JUMP JUMPDEST PUSH1 0x14 DUP3 ADD SWAP2 POP DUP2 SWAP1 POP SWAP3 SWAP2 POP POP JUMP JUMPDEST PUSH32 0x4E487B7100000000000000000000000000000000000000000000000000000000 PUSH0 MSTORE PUSH1 0x12 PUSH1 0x4 MSTORE PUSH1 0x24 PUSH0 REVERT JUMPDEST PUSH0 PUSH2 0x16FD DUP3 PUSH2 0x1184 JUMP JUMPDEST SWAP2 POP PUSH2 0x1708 DUP4 PUSH2 0x1184 JUMP JUMPDEST SWAP3 POP DUP3 PUSH2 0x1718 JUMPI PUSH2 0x1717 PUSH2 0x16C6 JUMP JUMPDEST JUMPDEST DUP3 DUP3 MOD SWAP1 POP SWAP3 SWAP2 POP POP JUMP JUMPDEST PUSH0 PUSH2 0x172D DUP3 PUSH2 0x1184 JUMP JUMPDEST SWAP2 POP PUSH2 0x1738 DUP4 PUSH2 0x1184 JUMP JUMPDEST SWAP3 POP DUP3 PUSH2 0x1748 JUMPI PUSH2 0x1747 PUSH2 0x16C6 JUMP JUMPDEST JUMPDEST DUP3 DUP3 DIV SWAP1 POP SWAP3 SWAP2 POP POP JUMP INVALID LOG2 PUSH5 0x6970667358 0x22 SLT KECCAK256 0xB7 INVALID CREATE2 BYTE SWAP13 PUSH27 0xF5288687AA0E9D6083290DE900AB37F67FF114A3A656754CFE7B64 PUSH20 0x6F6C634300081A00330000000000000000000000 "
				},
				"gasEstimates": {
					"creation": {
						"codeDepositCost": "1205000",
						"executionCost": "infinite",
						"totalCost": "infinite"
					},
					"external": {
						"addPlayer()": "8811",
						"claimTimeout()": "infinite",
						"commitReveal()": "infinite",
						"numPlayer()": "2468",
						"player_commit(address)": "2802",
						"player_revealed(address)": "2834",
						"players(uint256)": "5054",
						"reveal(bytes32)": "infinite",
						"revealDeadline()": "2513",
						"reward()": "2470",
						"timeUnit()": "infinite"
					},
					"internal": {
						"_checkWinnerAndPay()": "infinite"
					}
				},
				"methodIdentifiers": {
					"addPlayer()": "27b5db8a",
					"claimTimeout()": "0e1da6c3",
					"commitReveal()": "9d7b3f2d",
					"numPlayer()": "90d5d0c3",
					"player_commit(address)": "53356721",
					"player_revealed(address)": "07b06720",
					"players(uint256)": "f71d96cb",
					"reveal(bytes32)": "701fd0f1",
					"revealDeadline()": "b14b28a3",
					"reward()": "228cb733",
					"timeUnit()": "3c6a7f9b"
				}
			},
			"storageLayout": {
				"storage": [
					{
						"astId": 4,
						"contract": "RPS.sol:RPS",
						"label": "numPlayer",
						"offset": 0,
						"slot": "0",
						"type": "t_uint256"
					},
					{
						"astId": 7,
						"contract": "RPS.sol:RPS",
						"label": "reward",
						"offset": 0,
						"slot": "1",
						"type": "t_uint256"
					},
					{
						"astId": 11,
						"contract": "RPS.sol:RPS",
						"label": "player_commit",
						"offset": 0,
						"slot": "2",
						"type": "t_mapping(t_address,t_bytes32)"
					},
					{
						"astId": 15,
						"contract": "RPS.sol:RPS",
						"label": "player_revealed",
						"offset": 0,
						"slot": "3",
						"type": "t_mapping(t_address,t_bool)"
					},
					{
						"astId": 18,
						"contract": "RPS.sol:RPS",
						"label": "players",
						"offset": 0,
						"slot": "4",
						"type": "t_array(t_address)dyn_storage"
					},
					{
						"astId": 20,
						"contract": "RPS.sol:RPS",
						"label": "revealDeadline",
						"offset": 0,
						"slot": "5",
						"type": "t_uint256"
					},
					{
						"astId": 23,
						"contract": "RPS.sol:RPS",
						"label": "commitReveal",
						"offset": 0,
						"slot": "6",
						"type": "t_contract(CommitReveal)375"
					},
					{
						"astId": 26,
						"contract": "RPS.sol:RPS",
						"label": "timeUnit",
						"offset": 0,
						"slot": "7",
						"type": "t_contract(TimeUnit)399"
					}
				],
				"types": {
					"t_address": {
						"encoding": "inplace",
						"label": "address",
						"numberOfBytes": "20"
					},
					"t_array(t_address)dyn_storage": {
						"base": "t_address",
						"encoding": "dynamic_array",
						"label": "address[]",
						"numberOfBytes": "32"
					},
					"t_bool": {
						"encoding": "inplace",
						"label": "bool",
						"numberOfBytes": "1"
					},
					"t_bytes32": {
						"encoding": "inplace",
						"label": "bytes32",
						"numberOfBytes": "32"
					},
					"t_contract(CommitReveal)375": {
						"encoding": "inplace",
						"label": "contract CommitReveal",
						"numberOfBytes": "20"
					},
					"t_contract(TimeUnit)399": {
						"encoding": "inplace",
						"label": "contract TimeUnit",
						"numberOfBytes": "20"
					},
					"t_mapping(t_address,t_bool)": {
						"encoding": "mapping",
						"key": "t_address",
						"label": "mapping(address => bool)",
						"numberOfBytes": "32",
						"value": "t_bool"
					},
					"t_mapping(t_address,t_bytes32)": {
						"encoding": "mapping",
						"key": "t_address",
						"label": "mapping(address => bytes32)",
						"numberOfBytes": "32",
						"value": "t_bytes32"
					},
					"t_uint256": {
						"encoding": "inplace",
						"label": "uint256",
						"numberOfBytes": "32"
					}
				}
			},
			"userdoc": {
				"kind": "user",
				"methods": {},
				"version": 1
			}
		}
	}
}