{
	"RPS.sol": {
		"RPS": {
			"abi": [
				{
					"inputs": [
						{
							"internalType": "address",
							"name": "_commitReveal",
							"type": "address"
						},
						{
							"internalType": "address",
							"name": "_timeUnit",
							"type": "address"
						}
					],
					"stateMutability": "nonpayable",
					"type": "constructor"
				},
				{
					"inputs": [
						{
							"internalType": "bytes32",
							"name": "commitHash",
							"type": "bytes32"
						}
					],
					"name": "addPlayer",
					"outputs": [],
					"stateMutability": "nonpayable",
					"type": "function"
				},
				{
					"inputs": [],
					"name": "claimTimeout",
					"outputs": [],
					"stateMutability": "nonpayable",
					"type": "function"
				},
				{
					"inputs": [],
					"name": "commitReveal",
					"outputs": [
						{
							"internalType": "contract CommitReveal",
							"name": "",
							"type": "address"
						}
					],
					"stateMutability": "view",
					"type": "function"
				},
				{
					"inputs": [],
					"name": "numPlayer",
					"outputs": [
						{
							"internalType": "uint256",
							"name": "",
							"type": "uint256"
						}
					],
					"stateMutability": "view",
					"type": "function"
				},
				{
					"inputs": [
						{
							"internalType": "address",
							"name": "",
							"type": "address"
						}
					],
					"name": "player_commit",
					"outputs": [
						{
							"internalType": "bytes32",
							"name": "",
							"type": "bytes32"
						}
					],
					"stateMutability": "view",
					"type": "function"
				},
				{
					"inputs": [
						{
							"internalType": "address",
							"name": "",
							"type": "address"
						}
					],
					"name": "player_revealed",
					"outputs": [
						{
							"internalType": "bool",
							"name": "",
							"type": "bool"
						}
					],
					"stateMutability": "view",
					"type": "function"
				},
				{
					"inputs": [
						{
							"internalType": "uint256",
							"name": "",
							"type": "uint256"
						}
					],
					"name": "players",
					"outputs": [
						{
							"internalType": "address",
							"name": "",
							"type": "address"
						}
					],
					"stateMutability": "view",
					"type": "function"
				},
				{
					"inputs": [
						{
							"internalType": "bytes32",
							"name": "choice",
							"type": "bytes32"
						}
					],
					"name": "reveal",
					"outputs": [],
					"stateMutability": "nonpayable",
					"type": "function"
				},
				{
					"inputs": [],
					"name": "revealDeadline",
					"outputs": [
						{
							"internalType": "uint256",
							"name": "",
							"type": "uint256"
						}
					],
					"stateMutability": "view",
					"type": "function"
				},
				{
					"inputs": [],
					"name": "reward",
					"outputs": [
						{
							"internalType": "uint256",
							"name": "",
							"type": "uint256"
						}
					],
					"stateMutability": "view",
					"type": "function"
				},
				{
					"inputs": [],
					"name": "timeUnit",
					"outputs": [
						{
							"internalType": "contract TimeUnit",
							"name": "",
							"type": "address"
						}
					],
					"stateMutability": "view",
					"type": "function"
				}
			],
			"devdoc": {
				"kind": "dev",
				"methods": {},
				"version": 1
			},
			"evm": {
				"assembly": "    /* \"RPS.sol\":69:2584  contract RPS {... */\n  mstore(0x40, 0x80)\n    /* \"RPS.sol\":112:113  0 */\n  0x00\n    /* \"RPS.sol\":88:113  uint public numPlayer = 0 */\n  dup1\n  sstore\n    /* \"RPS.sol\":140:141  0 */\n  0x00\n    /* \"RPS.sol\":119:141  uint public reward = 0 */\n  0x01\n  sstore\n    /* \"RPS.sol\":394:547  constructor(address _commitReveal, address _timeUnit) {... */\n  callvalue\n  dup1\n  iszero\n  tag_1\n  jumpi\n  0x00\n  dup1\n  revert\ntag_1:\n  pop\n  mload(0x40)\n  sub(codesize, bytecodeSize)\n  dup1\n  bytecodeSize\n  dup4\n  codecopy\n  dup2\n  dup2\n  add\n  0x40\n  mstore\n  dup2\n  add\n  swap1\n  tag_2\n  swap2\n  swap1\n  tag_3\n  jump\t// in\ntag_2:\n    /* \"RPS.sol\":486:499  _commitReveal */\n  dup2\n    /* \"RPS.sol\":458:470  commitReveal */\n  0x06\n  0x00\n    /* \"RPS.sol\":458:500  commitReveal = CommitReveal(_commitReveal) */\n  0x0100\n  exp\n  dup2\n  sload\n  dup2\n  0xffffffffffffffffffffffffffffffffffffffff\n  mul\n  not\n  and\n  swap1\n  dup4\n  0xffffffffffffffffffffffffffffffffffffffff\n  and\n  mul\n  or\n  swap1\n  sstore\n  pop\n    /* \"RPS.sol\":530:539  _timeUnit */\n  dup1\n    /* \"RPS.sol\":510:518  timeUnit */\n  0x07\n  0x00\n    /* \"RPS.sol\":510:540  timeUnit = TimeUnit(_timeUnit) */\n  0x0100\n  exp\n  dup2\n  sload\n  dup2\n  0xffffffffffffffffffffffffffffffffffffffff\n  mul\n  not\n  and\n  swap1\n  dup4\n  0xffffffffffffffffffffffffffffffffffffffff\n  and\n  mul\n  or\n  swap1\n  sstore\n  pop\n    /* \"RPS.sol\":394:547  constructor(address _commitReveal, address _timeUnit) {... */\n  pop\n  pop\n    /* \"RPS.sol\":69:2584  contract RPS {... */\n  jump(tag_6)\n    /* \"#utility.yul\":88:205   */\ntag_8:\n    /* \"#utility.yul\":197:198   */\n  0x00\n    /* \"#utility.yul\":194:195   */\n  dup1\n    /* \"#utility.yul\":187:199   */\n  revert\n    /* \"#utility.yul\":334:460   */\ntag_10:\n    /* \"#utility.yul\":371:378   */\n  0x00\n    /* \"#utility.yul\":411:453   */\n  0xffffffffffffffffffffffffffffffffffffffff\n    /* \"#utility.yul\":404:409   */\n  dup3\n    /* \"#utility.yul\":400:454   */\n  and\n    /* \"#utility.yul\":389:454   */\n  swap1\n  pop\n    /* \"#utility.yul\":334:460   */\n  swap2\n  swap1\n  pop\n  jump\t// out\n    /* \"#utility.yul\":466:562   */\ntag_11:\n    /* \"#utility.yul\":503:510   */\n  0x00\n    /* \"#utility.yul\":532:556   */\n  tag_20\n    /* \"#utility.yul\":550:555   */\n  dup3\n    /* \"#utility.yul\":532:556   */\n  tag_10\n  jump\t// in\ntag_20:\n    /* \"#utility.yul\":521:556   */\n  swap1\n  pop\n    /* \"#utility.yul\":466:562   */\n  swap2\n  swap1\n  pop\n  jump\t// out\n    /* \"#utility.yul\":568:690   */\ntag_12:\n    /* \"#utility.yul\":641:665   */\n  tag_22\n    /* \"#utility.yul\":659:664   */\n  dup2\n    /* \"#utility.yul\":641:665   */\n  tag_11\n  jump\t// in\ntag_22:\n    /* \"#utility.yul\":634:639   */\n  dup2\n    /* \"#utility.yul\":631:666   */\n  eq\n    /* \"#utility.yul\":621:684   */\n  tag_23\n  jumpi\n    /* \"#utility.yul\":680:681   */\n  0x00\n    /* \"#utility.yul\":677:678   */\n  dup1\n    /* \"#utility.yul\":670:682   */\n  revert\n    /* \"#utility.yul\":621:684   */\ntag_23:\n    /* \"#utility.yul\":568:690   */\n  pop\n  jump\t// out\n    /* \"#utility.yul\":696:839   */\ntag_13:\n    /* \"#utility.yul\":753:758   */\n  0x00\n    /* \"#utility.yul\":784:790   */\n  dup2\n    /* \"#utility.yul\":778:791   */\n  mload\n    /* \"#utility.yul\":769:791   */\n  swap1\n  pop\n    /* \"#utility.yul\":800:833   */\n  tag_25\n    /* \"#utility.yul\":827:832   */\n  dup2\n    /* \"#utility.yul\":800:833   */\n  tag_12\n  jump\t// in\ntag_25:\n    /* \"#utility.yul\":696:839   */\n  swap3\n  swap2\n  pop\n  pop\n  jump\t// out\n    /* \"#utility.yul\":845:1352   */\ntag_3:\n    /* \"#utility.yul\":924:930   */\n  0x00\n    /* \"#utility.yul\":932:938   */\n  dup1\n    /* \"#utility.yul\":981:983   */\n  0x40\n    /* \"#utility.yul\":969:978   */\n  dup4\n    /* \"#utility.yul\":960:967   */\n  dup6\n    /* \"#utility.yul\":956:979   */\n  sub\n    /* \"#utility.yul\":952:984   */\n  slt\n    /* \"#utility.yul\":949:1068   */\n  iszero\n  tag_27\n  jumpi\n    /* \"#utility.yul\":987:1066   */\n  tag_28\n  tag_8\n  jump\t// in\ntag_28:\n    /* \"#utility.yul\":949:1068   */\ntag_27:\n    /* \"#utility.yul\":1107:1108   */\n  0x00\n    /* \"#utility.yul\":1132:1196   */\n  tag_29\n    /* \"#utility.yul\":1188:1195   */\n  dup6\n    /* \"#utility.yul\":1179:1185   */\n  dup3\n    /* \"#utility.yul\":1168:1177   */\n  dup7\n    /* \"#utility.yul\":1164:1186   */\n  add\n    /* \"#utility.yul\":1132:1196   */\n  tag_13\n  jump\t// in\ntag_29:\n    /* \"#utility.yul\":1122:1196   */\n  swap3\n  pop\n    /* \"#utility.yul\":1078:1206   */\n  pop\n    /* \"#utility.yul\":1245:1247   */\n  0x20\n    /* \"#utility.yul\":1271:1335   */\n  tag_30\n    /* \"#utility.yul\":1327:1334   */\n  dup6\n    /* \"#utility.yul\":1318:1324   */\n  dup3\n    /* \"#utility.yul\":1307:1316   */\n  dup7\n    /* \"#utility.yul\":1303:1325   */\n  add\n    /* \"#utility.yul\":1271:1335   */\n  tag_13\n  jump\t// in\ntag_30:\n    /* \"#utility.yul\":1261:1335   */\n  swap2\n  pop\n    /* \"#utility.yul\":1216:1345   */\n  pop\n    /* \"#utility.yul\":845:1352   */\n  swap3\n  pop\n  swap3\n  swap1\n  pop\n  jump\t// out\n    /* \"RPS.sol\":69:2584  contract RPS {... */\ntag_6:\n  dataSize(sub_0)\n  dup1\n  dataOffset(sub_0)\n  0x00\n  codecopy\n  0x00\n  return\nstop\n\nsub_0: assembly {\n        /* \"RPS.sol\":69:2584  contract RPS {... */\n      mstore(0x40, 0x80)\n      callvalue\n      dup1\n      iszero\n      tag_1\n      jumpi\n      0x00\n      dup1\n      revert\n    tag_1:\n      pop\n      jumpi(tag_2, lt(calldatasize, 0x04))\n      shr(0xe0, calldataload(0x00))\n      dup1\n      0x701fd0f1\n      gt\n      tag_14\n      jumpi\n      dup1\n      0x701fd0f1\n      eq\n      tag_8\n      jumpi\n      dup1\n      0x90d5d0c3\n      eq\n      tag_9\n      jumpi\n      dup1\n      0x9d7b3f2d\n      eq\n      tag_10\n      jumpi\n      dup1\n      0xb14b28a3\n      eq\n      tag_11\n      jumpi\n      dup1\n      0xe48e0b0b\n      eq\n      tag_12\n      jumpi\n      dup1\n      0xf71d96cb\n      eq\n      tag_13\n      jumpi\n      jump(tag_2)\n    tag_14:\n      dup1\n      0x07b06720\n      eq\n      tag_3\n      jumpi\n      dup1\n      0x0e1da6c3\n      eq\n      tag_4\n      jumpi\n      dup1\n      0x228cb733\n      eq\n      tag_5\n      jumpi\n      dup1\n      0x3c6a7f9b\n      eq\n      tag_6\n      jumpi\n      dup1\n      0x53356721\n      eq\n      tag_7\n      jumpi\n    tag_2:\n      0x00\n      dup1\n      revert\n        /* \"RPS.sol\":201:248  mapping(address => bool) public player_revealed */\n    tag_3:\n      tag_15\n      0x04\n      dup1\n      calldatasize\n      sub\n      dup2\n      add\n      swap1\n      tag_16\n      swap2\n      swap1\n      tag_17\n      jump\t// in\n    tag_16:\n      tag_18\n      jump\t// in\n    tag_15:\n      mload(0x40)\n      tag_19\n      swap2\n      swap1\n      tag_20\n      jump\t// in\n    tag_19:\n      mload(0x40)\n      dup1\n      swap2\n      sub\n      swap1\n      return\n        /* \"RPS.sol\":2131:2582  function claimTimeout() public {... */\n    tag_4:\n      tag_21\n      tag_22\n      jump\t// in\n    tag_21:\n      stop\n        /* \"RPS.sol\":119:141  uint public reward = 0 */\n    tag_5:\n      tag_23\n      tag_24\n      jump\t// in\n    tag_23:\n      mload(0x40)\n      tag_25\n      swap2\n      swap1\n      tag_26\n      jump\t// in\n    tag_25:\n      mload(0x40)\n      dup1\n      swap2\n      sub\n      swap1\n      return\n        /* \"RPS.sol\":359:383  TimeUnit public timeUnit */\n    tag_6:\n      tag_27\n      tag_28\n      jump\t// in\n    tag_27:\n      mload(0x40)\n      tag_29\n      swap2\n      swap1\n      tag_30\n      jump\t// in\n    tag_29:\n      mload(0x40)\n      dup1\n      swap2\n      sub\n      swap1\n      return\n        /* \"RPS.sol\":147:195  mapping(address => bytes32) public player_commit */\n    tag_7:\n      tag_31\n      0x04\n      dup1\n      calldatasize\n      sub\n      dup2\n      add\n      swap1\n      tag_32\n      swap2\n      swap1\n      tag_17\n      jump\t// in\n    tag_32:\n      tag_33\n      jump\t// in\n    tag_31:\n      mload(0x40)\n      tag_34\n      swap2\n      swap1\n      tag_35\n      jump\t// in\n    tag_34:\n      mload(0x40)\n      dup1\n      swap2\n      sub\n      swap1\n      return\n        /* \"RPS.sol\":964:1443  function reveal(bytes32 choice) public {... */\n    tag_8:\n      tag_36\n      0x04\n      dup1\n      calldatasize\n      sub\n      dup2\n      add\n      swap1\n      tag_37\n      swap2\n      swap1\n      tag_38\n      jump\t// in\n    tag_37:\n      tag_39\n      jump\t// in\n    tag_36:\n      stop\n        /* \"RPS.sol\":88:113  uint public numPlayer = 0 */\n    tag_9:\n      tag_40\n      tag_41\n      jump\t// in\n    tag_40:\n      mload(0x40)\n      tag_42\n      swap2\n      swap1\n      tag_26\n      jump\t// in\n    tag_42:\n      mload(0x40)\n      dup1\n      swap2\n      sub\n      swap1\n      return\n        /* \"RPS.sol\":321:353  CommitReveal public commitReveal */\n    tag_10:\n      tag_43\n      tag_44\n      jump\t// in\n    tag_43:\n      mload(0x40)\n      tag_45\n      swap2\n      swap1\n      tag_46\n      jump\t// in\n    tag_45:\n      mload(0x40)\n      dup1\n      swap2\n      sub\n      swap1\n      return\n        /* \"RPS.sol\":289:315  uint public revealDeadline */\n    tag_11:\n      tag_47\n      tag_48\n      jump\t// in\n    tag_47:\n      mload(0x40)\n      tag_49\n      swap2\n      swap1\n      tag_26\n      jump\t// in\n    tag_49:\n      mload(0x40)\n      dup1\n      swap2\n      sub\n      swap1\n      return\n        /* \"RPS.sol\":553:958  function addPlayer(bytes32 commitHash) public {... */\n    tag_12:\n      tag_50\n      0x04\n      dup1\n      calldatasize\n      sub\n      dup2\n      add\n      swap1\n      tag_51\n      swap2\n      swap1\n      tag_38\n      jump\t// in\n    tag_51:\n      tag_52\n      jump\t// in\n    tag_50:\n      stop\n        /* \"RPS.sol\":254:278  address[] public players */\n    tag_13:\n      tag_53\n      0x04\n      dup1\n      calldatasize\n      sub\n      dup2\n      add\n      swap1\n      tag_54\n      swap2\n      swap1\n      tag_55\n      jump\t// in\n    tag_54:\n      tag_56\n      jump\t// in\n    tag_53:\n      mload(0x40)\n      tag_57\n      swap2\n      swap1\n      tag_58\n      jump\t// in\n    tag_57:\n      mload(0x40)\n      dup1\n      swap2\n      sub\n      swap1\n      return\n        /* \"RPS.sol\":201:248  mapping(address => bool) public player_revealed */\n    tag_18:\n      mstore(0x20, 0x03)\n      dup1\n      0x00\n      mstore\n      keccak256(0x00, 0x40)\n      0x00\n      swap2\n      pop\n      sload\n      swap1\n      0x0100\n      exp\n      swap1\n      div\n      0xff\n      and\n      dup2\n      jump\t// out\n        /* \"RPS.sol\":2131:2582  function claimTimeout() public {... */\n    tag_22:\n        /* \"RPS.sol\":2208:2211  300 */\n      0x012c\n        /* \"RPS.sol\":2180:2188  timeUnit */\n      0x07\n      0x00\n      swap1\n      sload\n      swap1\n      0x0100\n      exp\n      swap1\n      div\n      0xffffffffffffffffffffffffffffffffffffffff\n      and\n        /* \"RPS.sol\":2180:2203  timeUnit.elapsedSeconds */\n      0xffffffffffffffffffffffffffffffffffffffff\n      and\n      0xbc06b8cd\n        /* \"RPS.sol\":2180:2205  timeUnit.elapsedSeconds() */\n      mload(0x40)\n      dup2\n      0xffffffff\n      and\n      0xe0\n      shl\n      dup2\n      mstore\n      0x04\n      add\n      0x20\n      mload(0x40)\n      dup1\n      dup4\n      sub\n      dup2\n      dup7\n      gas\n      staticcall\n      iszero\n      dup1\n      iszero\n      tag_61\n      jumpi\n      returndatasize\n      0x00\n      dup1\n      returndatacopy\n      revert(0x00, returndatasize)\n    tag_61:\n      pop\n      pop\n      pop\n      pop\n      mload(0x40)\n      returndatasize\n      not(0x1f)\n      0x1f\n      dup3\n      add\n      and\n      dup3\n      add\n      dup1\n      0x40\n      mstore\n      pop\n      dup2\n      add\n      swap1\n      tag_62\n      swap2\n      swap1\n      tag_63\n      jump\t// in\n    tag_62:\n        /* \"RPS.sol\":2180:2211  timeUnit.elapsedSeconds() > 300 */\n      gt\n        /* \"RPS.sol\":2172:2232  require(timeUnit.elapsedSeconds() > 300, \"Time not expired\") */\n      tag_64\n      jumpi\n      mload(0x40)\n      0x08c379a000000000000000000000000000000000000000000000000000000000\n      dup2\n      mstore\n      0x04\n      add\n      tag_65\n      swap1\n      tag_66\n      jump\t// in\n    tag_65:\n      mload(0x40)\n      dup1\n      swap2\n      sub\n      swap1\n      revert\n    tag_64:\n        /* \"RPS.sol\":2255:2270  player_revealed */\n      0x03\n        /* \"RPS.sol\":2255:2282  player_revealed[players[0]] */\n      0x00\n        /* \"RPS.sol\":2271:2278  players */\n      0x04\n        /* \"RPS.sol\":2279:2280  0 */\n      0x00\n        /* \"RPS.sol\":2271:2281  players[0] */\n      dup2\n      sload\n      dup2\n      lt\n      tag_67\n      jumpi\n      tag_68\n      tag_69\n      jump\t// in\n    tag_68:\n    tag_67:\n      swap1\n      0x00\n      mstore\n      keccak256(0x00, 0x20)\n      add\n      0x00\n      swap1\n      sload\n      swap1\n      0x0100\n      exp\n      swap1\n      div\n      0xffffffffffffffffffffffffffffffffffffffff\n      and\n        /* \"RPS.sol\":2255:2282  player_revealed[players[0]] */\n      0xffffffffffffffffffffffffffffffffffffffff\n      and\n      0xffffffffffffffffffffffffffffffffffffffff\n      and\n      dup2\n      mstore\n      0x20\n      add\n      swap1\n      dup2\n      mstore\n      0x20\n      add\n      0x00\n      keccak256\n      0x00\n      swap1\n      sload\n      swap1\n      0x0100\n      exp\n      swap1\n      div\n      0xff\n      and\n        /* \"RPS.sol\":2255:2314  player_revealed[players[0]] && !player_revealed[players[1]] */\n      dup1\n      iszero\n      tag_71\n      jumpi\n      pop\n        /* \"RPS.sol\":2287:2302  player_revealed */\n      0x03\n        /* \"RPS.sol\":2287:2314  player_revealed[players[1]] */\n      0x00\n        /* \"RPS.sol\":2303:2310  players */\n      0x04\n        /* \"RPS.sol\":2311:2312  1 */\n      0x01\n        /* \"RPS.sol\":2303:2313  players[1] */\n      dup2\n      sload\n      dup2\n      lt\n      tag_72\n      jumpi\n      tag_73\n      tag_69\n      jump\t// in\n    tag_73:\n    tag_72:\n      swap1\n      0x00\n      mstore\n      keccak256(0x00, 0x20)\n      add\n      0x00\n      swap1\n      sload\n      swap1\n      0x0100\n      exp\n      swap1\n      div\n      0xffffffffffffffffffffffffffffffffffffffff\n      and\n        /* \"RPS.sol\":2287:2314  player_revealed[players[1]] */\n      0xffffffffffffffffffffffffffffffffffffffff\n      and\n      0xffffffffffffffffffffffffffffffffffffffff\n      and\n      dup2\n      mstore\n      0x20\n      add\n      swap1\n      dup2\n      mstore\n      0x20\n      add\n      0x00\n      keccak256\n      0x00\n      swap1\n      sload\n      swap1\n      0x0100\n      exp\n      swap1\n      div\n      0xff\n      and\n        /* \"RPS.sol\":2286:2314  !player_revealed[players[1]] */\n      iszero\n        /* \"RPS.sol\":2255:2314  player_revealed[players[0]] && !player_revealed[players[1]] */\n    tag_71:\n        /* \"RPS.sol\":2251:2576  if (player_revealed[players[0]] && !player_revealed[players[1]]) {... */\n      iszero\n      tag_75\n      jumpi\n        /* \"RPS.sol\":2338:2345  players */\n      0x04\n        /* \"RPS.sol\":2346:2347  0 */\n      0x00\n        /* \"RPS.sol\":2338:2348  players[0] */\n      dup2\n      sload\n      dup2\n      lt\n      tag_76\n      jumpi\n      tag_77\n      tag_69\n      jump\t// in\n    tag_77:\n    tag_76:\n      swap1\n      0x00\n      mstore\n      keccak256(0x00, 0x20)\n      add\n      0x00\n      swap1\n      sload\n      swap1\n      0x0100\n      exp\n      swap1\n      div\n      0xffffffffffffffffffffffffffffffffffffffff\n      and\n        /* \"RPS.sol\":2330:2358  payable(players[0]).transfer */\n      0xffffffffffffffffffffffffffffffffffffffff\n      and\n        /* \"RPS.sol\":2330:2366  payable(players[0]).transfer(reward) */\n      0x08fc\n        /* \"RPS.sol\":2359:2365  reward */\n      sload(0x01)\n        /* \"RPS.sol\":2330:2366  payable(players[0]).transfer(reward) */\n      swap1\n      dup2\n      iszero\n      mul\n      swap1\n      mload(0x40)\n      0x00\n      mload(0x40)\n      dup1\n      dup4\n      sub\n      dup2\n      dup6\n      dup9\n      dup9\n      call\n      swap4\n      pop\n      pop\n      pop\n      pop\n      iszero\n      dup1\n      iszero\n      tag_80\n      jumpi\n      returndatasize\n      0x00\n      dup1\n      returndatacopy\n      revert(0x00, returndatasize)\n    tag_80:\n      pop\n        /* \"RPS.sol\":2251:2576  if (player_revealed[players[0]] && !player_revealed[players[1]]) {... */\n      jump(tag_81)\n    tag_75:\n        /* \"RPS.sol\":2388:2403  player_revealed */\n      0x03\n        /* \"RPS.sol\":2388:2415  player_revealed[players[0]] */\n      0x00\n        /* \"RPS.sol\":2404:2411  players */\n      0x04\n        /* \"RPS.sol\":2412:2413  0 */\n      0x00\n        /* \"RPS.sol\":2404:2414  players[0] */\n      dup2\n      sload\n      dup2\n      lt\n      tag_82\n      jumpi\n      tag_83\n      tag_69\n      jump\t// in\n    tag_83:\n    tag_82:\n      swap1\n      0x00\n      mstore\n      keccak256(0x00, 0x20)\n      add\n      0x00\n      swap1\n      sload\n      swap1\n      0x0100\n      exp\n      swap1\n      div\n      0xffffffffffffffffffffffffffffffffffffffff\n      and\n        /* \"RPS.sol\":2388:2415  player_revealed[players[0]] */\n      0xffffffffffffffffffffffffffffffffffffffff\n      and\n      0xffffffffffffffffffffffffffffffffffffffff\n      and\n      dup2\n      mstore\n      0x20\n      add\n      swap1\n      dup2\n      mstore\n      0x20\n      add\n      0x00\n      keccak256\n      0x00\n      swap1\n      sload\n      swap1\n      0x0100\n      exp\n      swap1\n      div\n      0xff\n      and\n        /* \"RPS.sol\":2387:2415  !player_revealed[players[0]] */\n      iszero\n        /* \"RPS.sol\":2387:2446  !player_revealed[players[0]] && player_revealed[players[1]] */\n      dup1\n      iszero\n      tag_85\n      jumpi\n      pop\n        /* \"RPS.sol\":2419:2434  player_revealed */\n      0x03\n        /* \"RPS.sol\":2419:2446  player_revealed[players[1]] */\n      0x00\n        /* \"RPS.sol\":2435:2442  players */\n      0x04\n        /* \"RPS.sol\":2443:2444  1 */\n      0x01\n        /* \"RPS.sol\":2435:2445  players[1] */\n      dup2\n      sload\n      dup2\n      lt\n      tag_86\n      jumpi\n      tag_87\n      tag_69\n      jump\t// in\n    tag_87:\n    tag_86:\n      swap1\n      0x00\n      mstore\n      keccak256(0x00, 0x20)\n      add\n      0x00\n      swap1\n      sload\n      swap1\n      0x0100\n      exp\n      swap1\n      div\n      0xffffffffffffffffffffffffffffffffffffffff\n      and\n        /* \"RPS.sol\":2419:2446  player_revealed[players[1]] */\n      0xffffffffffffffffffffffffffffffffffffffff\n      and\n      0xffffffffffffffffffffffffffffffffffffffff\n      and\n      dup2\n      mstore\n      0x20\n      add\n      swap1\n      dup2\n      mstore\n      0x20\n      add\n      0x00\n      keccak256\n      0x00\n      swap1\n      sload\n      swap1\n      0x0100\n      exp\n      swap1\n      div\n      0xff\n      and\n        /* \"RPS.sol\":2387:2446  !player_revealed[players[0]] && player_revealed[players[1]] */\n    tag_85:\n        /* \"RPS.sol\":2383:2576  if (!player_revealed[players[0]] && player_revealed[players[1]]) {... */\n      iszero\n      tag_89\n      jumpi\n        /* \"RPS.sol\":2470:2477  players */\n      0x04\n        /* \"RPS.sol\":2478:2479  1 */\n      0x01\n        /* \"RPS.sol\":2470:2480  players[1] */\n      dup2\n      sload\n      dup2\n      lt\n      tag_90\n      jumpi\n      tag_91\n      tag_69\n      jump\t// in\n    tag_91:\n    tag_90:\n      swap1\n      0x00\n      mstore\n      keccak256(0x00, 0x20)\n      add\n      0x00\n      swap1\n      sload\n      swap1\n      0x0100\n      exp\n      swap1\n      div\n      0xffffffffffffffffffffffffffffffffffffffff\n      and\n        /* \"RPS.sol\":2462:2490  payable(players[1]).transfer */\n      0xffffffffffffffffffffffffffffffffffffffff\n      and\n        /* \"RPS.sol\":2462:2498  payable(players[1]).transfer(reward) */\n      0x08fc\n        /* \"RPS.sol\":2491:2497  reward */\n      sload(0x01)\n        /* \"RPS.sol\":2462:2498  payable(players[1]).transfer(reward) */\n      swap1\n      dup2\n      iszero\n      mul\n      swap1\n      mload(0x40)\n      0x00\n      mload(0x40)\n      dup1\n      dup4\n      sub\n      dup2\n      dup6\n      dup9\n      dup9\n      call\n      swap4\n      pop\n      pop\n      pop\n      pop\n      iszero\n      dup1\n      iszero\n      tag_94\n      jumpi\n      returndatasize\n      0x00\n      dup1\n      returndatacopy\n      revert(0x00, returndatasize)\n    tag_94:\n      pop\n        /* \"RPS.sol\":2383:2576  if (!player_revealed[players[0]] && player_revealed[players[1]]) {... */\n      jump(tag_95)\n    tag_89:\n        /* \"RPS.sol\":2537:2547  msg.sender */\n      caller\n        /* \"RPS.sol\":2529:2557  payable(msg.sender).transfer */\n      0xffffffffffffffffffffffffffffffffffffffff\n      and\n        /* \"RPS.sol\":2529:2565  payable(msg.sender).transfer(reward) */\n      0x08fc\n        /* \"RPS.sol\":2558:2564  reward */\n      sload(0x01)\n        /* \"RPS.sol\":2529:2565  payable(msg.sender).transfer(reward) */\n      swap1\n      dup2\n      iszero\n      mul\n      swap1\n      mload(0x40)\n      0x00\n      mload(0x40)\n      dup1\n      dup4\n      sub\n      dup2\n      dup6\n      dup9\n      dup9\n      call\n      swap4\n      pop\n      pop\n      pop\n      pop\n      iszero\n      dup1\n      iszero\n      tag_97\n      jumpi\n      returndatasize\n      0x00\n      dup1\n      returndatacopy\n      revert(0x00, returndatasize)\n    tag_97:\n      pop\n        /* \"RPS.sol\":2383:2576  if (!player_revealed[players[0]] && player_revealed[players[1]]) {... */\n    tag_95:\n        /* \"RPS.sol\":2251:2576  if (player_revealed[players[0]] && !player_revealed[players[1]]) {... */\n    tag_81:\n        /* \"RPS.sol\":2131:2582  function claimTimeout() public {... */\n      jump\t// out\n        /* \"RPS.sol\":119:141  uint public reward = 0 */\n    tag_24:\n      sload(0x01)\n      dup2\n      jump\t// out\n        /* \"RPS.sol\":359:383  TimeUnit public timeUnit */\n    tag_28:\n      0x07\n      0x00\n      swap1\n      sload\n      swap1\n      0x0100\n      exp\n      swap1\n      div\n      0xffffffffffffffffffffffffffffffffffffffff\n      and\n      dup2\n      jump\t// out\n        /* \"RPS.sol\":147:195  mapping(address => bytes32) public player_commit */\n    tag_33:\n      mstore(0x20, 0x02)\n      dup1\n      0x00\n      mstore\n      keccak256(0x00, 0x40)\n      0x00\n      swap2\n      pop\n      swap1\n      pop\n      sload\n      dup2\n      jump\t// out\n        /* \"RPS.sol\":964:1443  function reveal(bytes32 choice) public {... */\n    tag_39:\n        /* \"RPS.sol\":1034:1035  2 */\n      0x02\n        /* \"RPS.sol\":1021:1030  numPlayer */\n      sload(0x00)\n        /* \"RPS.sol\":1021:1035  numPlayer == 2 */\n      eq\n        /* \"RPS.sol\":1013:1058  require(numPlayer == 2, \"Not enough players\") */\n      tag_99\n      jumpi\n      mload(0x40)\n      0x08c379a000000000000000000000000000000000000000000000000000000000\n      dup2\n      mstore\n      0x04\n      add\n      tag_100\n      swap1\n      tag_101\n      jump\t// in\n    tag_100:\n      mload(0x40)\n      dup1\n      swap2\n      sub\n      swap1\n      revert\n    tag_99:\n        /* \"RPS.sol\":1077:1092  player_revealed */\n      0x03\n        /* \"RPS.sol\":1077:1104  player_revealed[msg.sender] */\n      0x00\n        /* \"RPS.sol\":1093:1103  msg.sender */\n      caller\n        /* \"RPS.sol\":1077:1104  player_revealed[msg.sender] */\n      0xffffffffffffffffffffffffffffffffffffffff\n      and\n      0xffffffffffffffffffffffffffffffffffffffff\n      and\n      dup2\n      mstore\n      0x20\n      add\n      swap1\n      dup2\n      mstore\n      0x20\n      add\n      0x00\n      keccak256\n      0x00\n      swap1\n      sload\n      swap1\n      0x0100\n      exp\n      swap1\n      div\n      0xff\n      and\n        /* \"RPS.sol\":1076:1104  !player_revealed[msg.sender] */\n      iszero\n        /* \"RPS.sol\":1068:1125  require(!player_revealed[msg.sender], \"Already revealed\") */\n      tag_102\n      jumpi\n      mload(0x40)\n      0x08c379a000000000000000000000000000000000000000000000000000000000\n      dup2\n      mstore\n      0x04\n      add\n      tag_103\n      swap1\n      tag_104\n      jump\t// in\n    tag_103:\n      mload(0x40)\n      dup1\n      swap2\n      sub\n      swap1\n      revert\n    tag_102:\n        /* \"RPS.sol\":1175:1188  player_commit */\n      0x02\n        /* \"RPS.sol\":1175:1200  player_commit[msg.sender] */\n      0x00\n        /* \"RPS.sol\":1189:1199  msg.sender */\n      caller\n        /* \"RPS.sol\":1175:1200  player_commit[msg.sender] */\n      0xffffffffffffffffffffffffffffffffffffffff\n      and\n      0xffffffffffffffffffffffffffffffffffffffff\n      and\n      dup2\n      mstore\n      0x20\n      add\n      swap1\n      dup2\n      mstore\n      0x20\n      add\n      0x00\n      keccak256\n      sload\n        /* \"RPS.sol\":1143:1155  commitReveal */\n      0x06\n      0x00\n      swap1\n      sload\n      swap1\n      0x0100\n      exp\n      swap1\n      div\n      0xffffffffffffffffffffffffffffffffffffffff\n      and\n        /* \"RPS.sol\":1143:1163  commitReveal.getHash */\n      0xffffffffffffffffffffffffffffffffffffffff\n      and\n      0x3cf5040a\n        /* \"RPS.sol\":1164:1170  choice */\n      dup4\n        /* \"RPS.sol\":1143:1171  commitReveal.getHash(choice) */\n      mload(0x40)\n      dup3\n      0xffffffff\n      and\n      0xe0\n      shl\n      dup2\n      mstore\n      0x04\n      add\n      tag_105\n      swap2\n      swap1\n      tag_35\n      jump\t// in\n    tag_105:\n      0x20\n      mload(0x40)\n      dup1\n      dup4\n      sub\n      dup2\n      dup7\n      gas\n      staticcall\n      iszero\n      dup1\n      iszero\n      tag_107\n      jumpi\n      returndatasize\n      0x00\n      dup1\n      returndatacopy\n      revert(0x00, returndatasize)\n    tag_107:\n      pop\n      pop\n      pop\n      pop\n      mload(0x40)\n      returndatasize\n      not(0x1f)\n      0x1f\n      dup3\n      add\n      and\n      dup3\n      add\n      dup1\n      0x40\n      mstore\n      pop\n      dup2\n      add\n      swap1\n      tag_108\n      swap2\n      swap1\n      tag_109\n      jump\t// in\n    tag_108:\n        /* \"RPS.sol\":1143:1200  commitReveal.getHash(choice) == player_commit[msg.sender] */\n      eq\n        /* \"RPS.sol\":1135:1219  require(commitReveal.getHash(choice) == player_commit[msg.sender], \"Invalid reveal\") */\n      tag_110\n      jumpi\n      mload(0x40)\n      0x08c379a000000000000000000000000000000000000000000000000000000000\n      dup2\n      mstore\n      0x04\n      add\n      tag_111\n      swap1\n      tag_112\n      jump\t// in\n    tag_111:\n      mload(0x40)\n      dup1\n      swap2\n      sub\n      swap1\n      revert\n    tag_110:\n        /* \"RPS.sol\":1268:1272  true */\n      0x01\n        /* \"RPS.sol\":1238:1253  player_revealed */\n      0x03\n        /* \"RPS.sol\":1238:1265  player_revealed[msg.sender] */\n      0x00\n        /* \"RPS.sol\":1254:1264  msg.sender */\n      caller\n        /* \"RPS.sol\":1238:1265  player_revealed[msg.sender] */\n      0xffffffffffffffffffffffffffffffffffffffff\n      and\n      0xffffffffffffffffffffffffffffffffffffffff\n      and\n      dup2\n      mstore\n      0x20\n      add\n      swap1\n      dup2\n      mstore\n      0x20\n      add\n      0x00\n      keccak256\n      0x00\n        /* \"RPS.sol\":1238:1272  player_revealed[msg.sender] = true */\n      0x0100\n      exp\n      dup2\n      sload\n      dup2\n      0xff\n      mul\n      not\n      and\n      swap1\n      dup4\n      iszero\n      iszero\n      mul\n      or\n      swap1\n      sstore\n      pop\n        /* \"RPS.sol\":1282:1294  commitReveal */\n      0x06\n      0x00\n      swap1\n      sload\n      swap1\n      0x0100\n      exp\n      swap1\n      div\n      0xffffffffffffffffffffffffffffffffffffffff\n      and\n        /* \"RPS.sol\":1282:1301  commitReveal.reveal */\n      0xffffffffffffffffffffffffffffffffffffffff\n      and\n      0x701fd0f1\n        /* \"RPS.sol\":1302:1308  choice */\n      dup3\n        /* \"RPS.sol\":1282:1309  commitReveal.reveal(choice) */\n      mload(0x40)\n      dup3\n      0xffffffff\n      and\n      0xe0\n      shl\n      dup2\n      mstore\n      0x04\n      add\n      tag_113\n      swap2\n      swap1\n      tag_35\n      jump\t// in\n    tag_113:\n      0x00\n      mload(0x40)\n      dup1\n      dup4\n      sub\n      dup2\n      0x00\n      dup8\n      dup1\n      extcodesize\n      iszero\n      dup1\n      iszero\n      tag_114\n      jumpi\n      0x00\n      dup1\n      revert\n    tag_114:\n      pop\n      gas\n      call\n      iszero\n      dup1\n      iszero\n      tag_116\n      jumpi\n      returndatasize\n      0x00\n      dup1\n      returndatacopy\n      revert(0x00, returndatasize)\n    tag_116:\n      pop\n      pop\n      pop\n      pop\n        /* \"RPS.sol\":1332:1347  player_revealed */\n      0x03\n        /* \"RPS.sol\":1332:1359  player_revealed[players[0]] */\n      0x00\n        /* \"RPS.sol\":1348:1355  players */\n      0x04\n        /* \"RPS.sol\":1356:1357  0 */\n      0x00\n        /* \"RPS.sol\":1348:1358  players[0] */\n      dup2\n      sload\n      dup2\n      lt\n      tag_117\n      jumpi\n      tag_118\n      tag_69\n      jump\t// in\n    tag_118:\n    tag_117:\n      swap1\n      0x00\n      mstore\n      keccak256(0x00, 0x20)\n      add\n      0x00\n      swap1\n      sload\n      swap1\n      0x0100\n      exp\n      swap1\n      div\n      0xffffffffffffffffffffffffffffffffffffffff\n      and\n        /* \"RPS.sol\":1332:1359  player_revealed[players[0]] */\n      0xffffffffffffffffffffffffffffffffffffffff\n      and\n      0xffffffffffffffffffffffffffffffffffffffff\n      and\n      dup2\n      mstore\n      0x20\n      add\n      swap1\n      dup2\n      mstore\n      0x20\n      add\n      0x00\n      keccak256\n      0x00\n      swap1\n      sload\n      swap1\n      0x0100\n      exp\n      swap1\n      div\n      0xff\n      and\n        /* \"RPS.sol\":1332:1390  player_revealed[players[0]] && player_revealed[players[1]] */\n      dup1\n      iszero\n      tag_120\n      jumpi\n      pop\n        /* \"RPS.sol\":1363:1378  player_revealed */\n      0x03\n        /* \"RPS.sol\":1363:1390  player_revealed[players[1]] */\n      0x00\n        /* \"RPS.sol\":1379:1386  players */\n      0x04\n        /* \"RPS.sol\":1387:1388  1 */\n      0x01\n        /* \"RPS.sol\":1379:1389  players[1] */\n      dup2\n      sload\n      dup2\n      lt\n      tag_121\n      jumpi\n      tag_122\n      tag_69\n      jump\t// in\n    tag_122:\n    tag_121:\n      swap1\n      0x00\n      mstore\n      keccak256(0x00, 0x20)\n      add\n      0x00\n      swap1\n      sload\n      swap1\n      0x0100\n      exp\n      swap1\n      div\n      0xffffffffffffffffffffffffffffffffffffffff\n      and\n        /* \"RPS.sol\":1363:1390  player_revealed[players[1]] */\n      0xffffffffffffffffffffffffffffffffffffffff\n      and\n      0xffffffffffffffffffffffffffffffffffffffff\n      and\n      dup2\n      mstore\n      0x20\n      add\n      swap1\n      dup2\n      mstore\n      0x20\n      add\n      0x00\n      keccak256\n      0x00\n      swap1\n      sload\n      swap1\n      0x0100\n      exp\n      swap1\n      div\n      0xff\n      and\n        /* \"RPS.sol\":1332:1390  player_revealed[players[0]] && player_revealed[players[1]] */\n    tag_120:\n        /* \"RPS.sol\":1328:1437  if (player_revealed[players[0]] && player_revealed[players[1]]) {... */\n      iszero\n      tag_124\n      jumpi\n        /* \"RPS.sol\":1406:1426  _checkWinnerAndPay() */\n      tag_125\n        /* \"RPS.sol\":1406:1424  _checkWinnerAndPay */\n      tag_126\n        /* \"RPS.sol\":1406:1426  _checkWinnerAndPay() */\n      jump\t// in\n    tag_125:\n        /* \"RPS.sol\":1328:1437  if (player_revealed[players[0]] && player_revealed[players[1]]) {... */\n    tag_124:\n        /* \"RPS.sol\":964:1443  function reveal(bytes32 choice) public {... */\n      pop\n      jump\t// out\n        /* \"RPS.sol\":88:113  uint public numPlayer = 0 */\n    tag_41:\n      sload(0x00)\n      dup2\n      jump\t// out\n        /* \"RPS.sol\":321:353  CommitReveal public commitReveal */\n    tag_44:\n      0x06\n      0x00\n      swap1\n      sload\n      swap1\n      0x0100\n      exp\n      swap1\n      div\n      0xffffffffffffffffffffffffffffffffffffffff\n      and\n      dup2\n      jump\t// out\n        /* \"RPS.sol\":289:315  uint public revealDeadline */\n    tag_48:\n      sload(0x05)\n      dup2\n      jump\t// out\n        /* \"RPS.sol\":553:958  function addPlayer(bytes32 commitHash) public {... */\n    tag_52:\n        /* \"RPS.sol\":629:630  2 */\n      0x02\n        /* \"RPS.sol\":617:626  numPlayer */\n      sload(0x00)\n        /* \"RPS.sol\":617:630  numPlayer < 2 */\n      lt\n        /* \"RPS.sol\":609:647  require(numPlayer < 2, \"Game is full\") */\n      tag_128\n      jumpi\n      mload(0x40)\n      0x08c379a000000000000000000000000000000000000000000000000000000000\n      dup2\n      mstore\n      0x04\n      add\n      tag_129\n      swap1\n      tag_130\n      jump\t// in\n    tag_129:\n      mload(0x40)\n      dup1\n      swap2\n      sub\n      swap1\n      revert\n    tag_128:\n        /* \"RPS.sol\":673:674  0 */\n      0x00\n        /* \"RPS.sol\":661:670  numPlayer */\n      dup1\n      sload\n        /* \"RPS.sol\":661:674  numPlayer > 0 */\n      gt\n        /* \"RPS.sol\":657:763  if (numPlayer > 0) {... */\n      iszero\n      tag_131\n      jumpi\n        /* \"RPS.sol\":712:719  players */\n      0x04\n        /* \"RPS.sol\":720:721  0 */\n      0x00\n        /* \"RPS.sol\":712:722  players[0] */\n      dup2\n      sload\n      dup2\n      lt\n      tag_132\n      jumpi\n      tag_133\n      tag_69\n      jump\t// in\n    tag_133:\n    tag_132:\n      swap1\n      0x00\n      mstore\n      keccak256(0x00, 0x20)\n      add\n      0x00\n      swap1\n      sload\n      swap1\n      0x0100\n      exp\n      swap1\n      div\n      0xffffffffffffffffffffffffffffffffffffffff\n      and\n        /* \"RPS.sol\":698:722  msg.sender != players[0] */\n      0xffffffffffffffffffffffffffffffffffffffff\n      and\n        /* \"RPS.sol\":698:708  msg.sender */\n      caller\n        /* \"RPS.sol\":698:722  msg.sender != players[0] */\n      0xffffffffffffffffffffffffffffffffffffffff\n      and\n      sub\n        /* \"RPS.sol\":690:752  require(msg.sender != players[0], \"Player already registered\") */\n      tag_135\n      jumpi\n      mload(0x40)\n      0x08c379a000000000000000000000000000000000000000000000000000000000\n      dup2\n      mstore\n      0x04\n      add\n      tag_136\n      swap1\n      tag_137\n      jump\t// in\n    tag_136:\n      mload(0x40)\n      dup1\n      swap2\n      sub\n      swap1\n      revert\n    tag_135:\n        /* \"RPS.sol\":657:763  if (numPlayer > 0) {... */\n    tag_131:\n        /* \"RPS.sol\":800:810  commitHash */\n      dup1\n        /* \"RPS.sol\":772:785  player_commit */\n      0x02\n        /* \"RPS.sol\":772:797  player_commit[msg.sender] */\n      0x00\n        /* \"RPS.sol\":786:796  msg.sender */\n      caller\n        /* \"RPS.sol\":772:797  player_commit[msg.sender] */\n      0xffffffffffffffffffffffffffffffffffffffff\n      and\n      0xffffffffffffffffffffffffffffffffffffffff\n      and\n      dup2\n      mstore\n      0x20\n      add\n      swap1\n      dup2\n      mstore\n      0x20\n      add\n      0x00\n      keccak256\n        /* \"RPS.sol\":772:810  player_commit[msg.sender] = commitHash */\n      dup2\n      swap1\n      sstore\n      pop\n        /* \"RPS.sol\":820:827  players */\n      0x04\n        /* \"RPS.sol\":833:843  msg.sender */\n      caller\n        /* \"RPS.sol\":820:844  players.push(msg.sender) */\n      swap1\n      dup1\n      0x01\n      dup2\n      sload\n      add\n      dup1\n      dup3\n      sstore\n      dup1\n      swap2\n      pop\n      pop\n      0x01\n      swap1\n      sub\n      swap1\n      0x00\n      mstore\n      keccak256(0x00, 0x20)\n      add\n      0x00\n      swap1\n      swap2\n      swap1\n      swap2\n      swap1\n      swap2\n      0x0100\n      exp\n      dup2\n      sload\n      dup2\n      0xffffffffffffffffffffffffffffffffffffffff\n      mul\n      not\n      and\n      swap1\n      dup4\n      0xffffffffffffffffffffffffffffffffffffffff\n      and\n      mul\n      or\n      swap1\n      sstore\n      pop\n        /* \"RPS.sol\":854:863  numPlayer */\n      0x00\n      dup1\n        /* \"RPS.sol\":854:865  numPlayer++ */\n      dup2\n      sload\n      dup1\n      swap3\n      swap2\n      swap1\n      tag_139\n      swap1\n      tag_140\n      jump\t// in\n    tag_139:\n      swap2\n      swap1\n      pop\n      sstore\n      pop\n        /* \"RPS.sol\":901:902  2 */\n      0x02\n        /* \"RPS.sol\":888:897  numPlayer */\n      sload(0x00)\n        /* \"RPS.sol\":888:902  numPlayer == 2 */\n      sub\n        /* \"RPS.sol\":884:952  if (numPlayer == 2) {... */\n      tag_141\n      jumpi\n        /* \"RPS.sol\":918:926  timeUnit */\n      0x07\n      0x00\n      swap1\n      sload\n      swap1\n      0x0100\n      exp\n      swap1\n      div\n      0xffffffffffffffffffffffffffffffffffffffff\n      and\n        /* \"RPS.sol\":918:939  timeUnit.setStartTime */\n      0xffffffffffffffffffffffffffffffffffffffff\n      and\n      0xa63f7c53\n        /* \"RPS.sol\":918:941  timeUnit.setStartTime() */\n      mload(0x40)\n      dup2\n      0xffffffff\n      and\n      0xe0\n      shl\n      dup2\n      mstore\n      0x04\n      add\n      0x00\n      mload(0x40)\n      dup1\n      dup4\n      sub\n      dup2\n      0x00\n      dup8\n      dup1\n      extcodesize\n      iszero\n      dup1\n      iszero\n      tag_142\n      jumpi\n      0x00\n      dup1\n      revert\n    tag_142:\n      pop\n      gas\n      call\n      iszero\n      dup1\n      iszero\n      tag_144\n      jumpi\n      returndatasize\n      0x00\n      dup1\n      returndatacopy\n      revert(0x00, returndatasize)\n    tag_144:\n      pop\n      pop\n      pop\n      pop\n        /* \"RPS.sol\":884:952  if (numPlayer == 2) {... */\n    tag_141:\n        /* \"RPS.sol\":553:958  function addPlayer(bytes32 commitHash) public {... */\n      pop\n      jump\t// out\n        /* \"RPS.sol\":254:278  address[] public players */\n    tag_56:\n      0x04\n      dup2\n      dup2\n      sload\n      dup2\n      lt\n      tag_145\n      jumpi\n      0x00\n      dup1\n      revert\n    tag_145:\n      swap1\n      0x00\n      mstore\n      keccak256(0x00, 0x20)\n      add\n      0x00\n      swap2\n      pop\n      sload\n      swap1\n      0x0100\n      exp\n      swap1\n      div\n      0xffffffffffffffffffffffffffffffffffffffff\n      and\n      dup2\n      jump\t// out\n        /* \"RPS.sol\":1449:2121  function _checkWinnerAndPay() private {... */\n    tag_126:\n        /* \"RPS.sol\":1497:1510  uint p0Choice */\n      0x00\n        /* \"RPS.sol\":1591:1592  3 */\n      0x03\n        /* \"RPS.sol\":1526:1538  commitReveal */\n      0x06\n      0x00\n      swap1\n      sload\n      swap1\n      0x0100\n      exp\n      swap1\n      div\n      0xffffffffffffffffffffffffffffffffffffffff\n      and\n        /* \"RPS.sol\":1526:1546  commitReveal.getHash */\n      0xffffffffffffffffffffffffffffffffffffffff\n      and\n      0x3cf5040a\n        /* \"RPS.sol\":1574:1581  players */\n      0x04\n        /* \"RPS.sol\":1582:1583  0 */\n      0x00\n        /* \"RPS.sol\":1574:1584  players[0] */\n      dup2\n      sload\n      dup2\n      lt\n      tag_148\n      jumpi\n      tag_149\n      tag_69\n      jump\t// in\n    tag_149:\n    tag_148:\n      swap1\n      0x00\n      mstore\n      keccak256(0x00, 0x20)\n      add\n      0x00\n      swap1\n      sload\n      swap1\n      0x0100\n      exp\n      swap1\n      div\n      0xffffffffffffffffffffffffffffffffffffffff\n      and\n        /* \"RPS.sol\":1557:1585  abi.encodePacked(players[0]) */\n      add(0x20, mload(0x40))\n      tag_151\n      swap2\n      swap1\n      tag_152\n      jump\t// in\n    tag_151:\n      mload(0x40)\n      0x20\n      dup2\n      dup4\n      sub\n      sub\n      dup2\n      mstore\n      swap1\n      0x40\n      mstore\n        /* \"RPS.sol\":1547:1586  keccak256(abi.encodePacked(players[0])) */\n      dup1\n      mload\n      swap1\n      0x20\n      add\n      keccak256\n        /* \"RPS.sol\":1526:1587  commitReveal.getHash(keccak256(abi.encodePacked(players[0]))) */\n      mload(0x40)\n      dup3\n      0xffffffff\n      and\n      0xe0\n      shl\n      dup2\n      mstore\n      0x04\n      add\n      tag_153\n      swap2\n      swap1\n      tag_35\n      jump\t// in\n    tag_153:\n      0x20\n      mload(0x40)\n      dup1\n      dup4\n      sub\n      dup2\n      dup7\n      gas\n      staticcall\n      iszero\n      dup1\n      iszero\n      tag_155\n      jumpi\n      returndatasize\n      0x00\n      dup1\n      returndatacopy\n      revert(0x00, returndatasize)\n    tag_155:\n      pop\n      pop\n      pop\n      pop\n      mload(0x40)\n      returndatasize\n      not(0x1f)\n      0x1f\n      dup3\n      add\n      and\n      dup3\n      add\n      dup1\n      0x40\n      mstore\n      pop\n      dup2\n      add\n      swap1\n      tag_156\n      swap2\n      swap1\n      tag_109\n      jump\t// in\n    tag_156:\n        /* \"RPS.sol\":1518:1588  uint256(commitReveal.getHash(keccak256(abi.encodePacked(players[0])))) */\n      0x00\n      shr\n        /* \"RPS.sol\":1518:1592  uint256(commitReveal.getHash(keccak256(abi.encodePacked(players[0])))) % 3 */\n      tag_157\n      swap2\n      swap1\n      tag_158\n      jump\t// in\n    tag_157:\n        /* \"RPS.sol\":1497:1593  uint p0Choice = uint(uint256(commitReveal.getHash(keccak256(abi.encodePacked(players[0])))) % 3) */\n      swap1\n      pop\n        /* \"RPS.sol\":1603:1616  uint p1Choice */\n      0x00\n        /* \"RPS.sol\":1697:1698  3 */\n      0x03\n        /* \"RPS.sol\":1632:1644  commitReveal */\n      0x06\n      0x00\n      swap1\n      sload\n      swap1\n      0x0100\n      exp\n      swap1\n      div\n      0xffffffffffffffffffffffffffffffffffffffff\n      and\n        /* \"RPS.sol\":1632:1652  commitReveal.getHash */\n      0xffffffffffffffffffffffffffffffffffffffff\n      and\n      0x3cf5040a\n        /* \"RPS.sol\":1680:1687  players */\n      0x04\n        /* \"RPS.sol\":1688:1689  1 */\n      0x01\n        /* \"RPS.sol\":1680:1690  players[1] */\n      dup2\n      sload\n      dup2\n      lt\n      tag_159\n      jumpi\n      tag_160\n      tag_69\n      jump\t// in\n    tag_160:\n    tag_159:\n      swap1\n      0x00\n      mstore\n      keccak256(0x00, 0x20)\n      add\n      0x00\n      swap1\n      sload\n      swap1\n      0x0100\n      exp\n      swap1\n      div\n      0xffffffffffffffffffffffffffffffffffffffff\n      and\n        /* \"RPS.sol\":1663:1691  abi.encodePacked(players[1]) */\n      add(0x20, mload(0x40))\n      tag_162\n      swap2\n      swap1\n      tag_152\n      jump\t// in\n    tag_162:\n      mload(0x40)\n      0x20\n      dup2\n      dup4\n      sub\n      sub\n      dup2\n      mstore\n      swap1\n      0x40\n      mstore\n        /* \"RPS.sol\":1653:1692  keccak256(abi.encodePacked(players[1])) */\n      dup1\n      mload\n      swap1\n      0x20\n      add\n      keccak256\n        /* \"RPS.sol\":1632:1693  commitReveal.getHash(keccak256(abi.encodePacked(players[1]))) */\n      mload(0x40)\n      dup3\n      0xffffffff\n      and\n      0xe0\n      shl\n      dup2\n      mstore\n      0x04\n      add\n      tag_163\n      swap2\n      swap1\n      tag_35\n      jump\t// in\n    tag_163:\n      0x20\n      mload(0x40)\n      dup1\n      dup4\n      sub\n      dup2\n      dup7\n      gas\n      staticcall\n      iszero\n      dup1\n      iszero\n      tag_165\n      jumpi\n      returndatasize\n      0x00\n      dup1\n      returndatacopy\n      revert(0x00, returndatasize)\n    tag_165:\n      pop\n      pop\n      pop\n      pop\n      mload(0x40)\n      returndatasize\n      not(0x1f)\n      0x1f\n      dup3\n      add\n      and\n      dup3\n      add\n      dup1\n      0x40\n      mstore\n      pop\n      dup2\n      add\n      swap1\n      tag_166\n      swap2\n      swap1\n      tag_109\n      jump\t// in\n    tag_166:\n        /* \"RPS.sol\":1624:1694  uint256(commitReveal.getHash(keccak256(abi.encodePacked(players[1])))) */\n      0x00\n      shr\n        /* \"RPS.sol\":1624:1698  uint256(commitReveal.getHash(keccak256(abi.encodePacked(players[1])))) % 3 */\n      tag_167\n      swap2\n      swap1\n      tag_158\n      jump\t// in\n    tag_167:\n        /* \"RPS.sol\":1603:1699  uint p1Choice = uint(uint256(commitReveal.getHash(keccak256(abi.encodePacked(players[1])))) % 3) */\n      swap1\n      pop\n        /* \"RPS.sol\":1709:1733  address payable account0 */\n      0x00\n        /* \"RPS.sol\":1744:1751  players */\n      0x04\n        /* \"RPS.sol\":1752:1753  0 */\n      0x00\n        /* \"RPS.sol\":1744:1754  players[0] */\n      dup2\n      sload\n      dup2\n      lt\n      tag_168\n      jumpi\n      tag_169\n      tag_69\n      jump\t// in\n    tag_169:\n    tag_168:\n      swap1\n      0x00\n      mstore\n      keccak256(0x00, 0x20)\n      add\n      0x00\n      swap1\n      sload\n      swap1\n      0x0100\n      exp\n      swap1\n      div\n      0xffffffffffffffffffffffffffffffffffffffff\n      and\n        /* \"RPS.sol\":1709:1755  address payable account0 = payable(players[0]) */\n      swap1\n      pop\n        /* \"RPS.sol\":1765:1789  address payable account1 */\n      0x00\n        /* \"RPS.sol\":1800:1807  players */\n      0x04\n        /* \"RPS.sol\":1808:1809  1 */\n      0x01\n        /* \"RPS.sol\":1800:1810  players[1] */\n      dup2\n      sload\n      dup2\n      lt\n      tag_171\n      jumpi\n      tag_172\n      tag_69\n      jump\t// in\n    tag_172:\n    tag_171:\n      swap1\n      0x00\n      mstore\n      keccak256(0x00, 0x20)\n      add\n      0x00\n      swap1\n      sload\n      swap1\n      0x0100\n      exp\n      swap1\n      div\n      0xffffffffffffffffffffffffffffffffffffffff\n      and\n        /* \"RPS.sol\":1765:1811  address payable account1 = payable(players[1]) */\n      swap1\n      pop\n        /* \"RPS.sol\":1856:1864  p1Choice */\n      dup3\n        /* \"RPS.sol\":1851:1852  3 */\n      0x03\n        /* \"RPS.sol\":1846:1847  1 */\n      0x01\n        /* \"RPS.sol\":1835:1843  p0Choice */\n      dup7\n        /* \"RPS.sol\":1835:1847  p0Choice + 1 */\n      tag_174\n      swap2\n      swap1\n      tag_175\n      jump\t// in\n    tag_174:\n        /* \"RPS.sol\":1834:1852  (p0Choice + 1) % 3 */\n      tag_176\n      swap2\n      swap1\n      tag_158\n      jump\t// in\n    tag_176:\n        /* \"RPS.sol\":1834:1864  (p0Choice + 1) % 3 == p1Choice */\n      sub\n        /* \"RPS.sol\":1830:2115  if ((p0Choice + 1) % 3 == p1Choice) {... */\n      tag_177\n      jumpi\n        /* \"RPS.sol\":1880:1888  account1 */\n      dup1\n        /* \"RPS.sol\":1880:1897  account1.transfer */\n      0xffffffffffffffffffffffffffffffffffffffff\n      and\n        /* \"RPS.sol\":1880:1905  account1.transfer(reward) */\n      0x08fc\n        /* \"RPS.sol\":1898:1904  reward */\n      sload(0x01)\n        /* \"RPS.sol\":1880:1905  account1.transfer(reward) */\n      swap1\n      dup2\n      iszero\n      mul\n      swap1\n      mload(0x40)\n      0x00\n      mload(0x40)\n      dup1\n      dup4\n      sub\n      dup2\n      dup6\n      dup9\n      dup9\n      call\n      swap4\n      pop\n      pop\n      pop\n      pop\n      iszero\n      dup1\n      iszero\n      tag_179\n      jumpi\n      returndatasize\n      0x00\n      dup1\n      returndatacopy\n      revert(0x00, returndatasize)\n    tag_179:\n      pop\n        /* \"RPS.sol\":1830:2115  if ((p0Choice + 1) % 3 == p1Choice) {... */\n      jump(tag_180)\n    tag_177:\n        /* \"RPS.sol\":1948:1956  p0Choice */\n      dup4\n        /* \"RPS.sol\":1943:1944  3 */\n      0x03\n        /* \"RPS.sol\":1938:1939  1 */\n      0x01\n        /* \"RPS.sol\":1927:1935  p1Choice */\n      dup6\n        /* \"RPS.sol\":1927:1939  p1Choice + 1 */\n      tag_181\n      swap2\n      swap1\n      tag_175\n      jump\t// in\n    tag_181:\n        /* \"RPS.sol\":1926:1944  (p1Choice + 1) % 3 */\n      tag_182\n      swap2\n      swap1\n      tag_158\n      jump\t// in\n    tag_182:\n        /* \"RPS.sol\":1926:1956  (p1Choice + 1) % 3 == p0Choice */\n      sub\n        /* \"RPS.sol\":1922:2115  if ((p1Choice + 1) % 3 == p0Choice) {... */\n      tag_183\n      jumpi\n        /* \"RPS.sol\":1972:1980  account0 */\n      dup2\n        /* \"RPS.sol\":1972:1989  account0.transfer */\n      0xffffffffffffffffffffffffffffffffffffffff\n      and\n        /* \"RPS.sol\":1972:1997  account0.transfer(reward) */\n      0x08fc\n        /* \"RPS.sol\":1990:1996  reward */\n      sload(0x01)\n        /* \"RPS.sol\":1972:1997  account0.transfer(reward) */\n      swap1\n      dup2\n      iszero\n      mul\n      swap1\n      mload(0x40)\n      0x00\n      mload(0x40)\n      dup1\n      dup4\n      sub\n      dup2\n      dup6\n      dup9\n      dup9\n      call\n      swap4\n      pop\n      pop\n      pop\n      pop\n      iszero\n      dup1\n      iszero\n      tag_185\n      jumpi\n      returndatasize\n      0x00\n      dup1\n      returndatacopy\n      revert(0x00, returndatasize)\n    tag_185:\n      pop\n        /* \"RPS.sol\":1922:2115  if ((p1Choice + 1) % 3 == p0Choice) {... */\n      jump(tag_186)\n    tag_183:\n        /* \"RPS.sol\":2032:2040  account0 */\n      dup2\n        /* \"RPS.sol\":2032:2049  account0.transfer */\n      0xffffffffffffffffffffffffffffffffffffffff\n      and\n        /* \"RPS.sol\":2032:2061  account0.transfer(reward / 2) */\n      0x08fc\n        /* \"RPS.sol\":2059:2060  2 */\n      0x02\n        /* \"RPS.sol\":2050:2056  reward */\n      sload(0x01)\n        /* \"RPS.sol\":2050:2060  reward / 2 */\n      tag_187\n      swap2\n      swap1\n      tag_188\n      jump\t// in\n    tag_187:\n        /* \"RPS.sol\":2032:2061  account0.transfer(reward / 2) */\n      swap1\n      dup2\n      iszero\n      mul\n      swap1\n      mload(0x40)\n      0x00\n      mload(0x40)\n      dup1\n      dup4\n      sub\n      dup2\n      dup6\n      dup9\n      dup9\n      call\n      swap4\n      pop\n      pop\n      pop\n      pop\n      iszero\n      dup1\n      iszero\n      tag_190\n      jumpi\n      returndatasize\n      0x00\n      dup1\n      returndatacopy\n      revert(0x00, returndatasize)\n    tag_190:\n      pop\n        /* \"RPS.sol\":2075:2083  account1 */\n      dup1\n        /* \"RPS.sol\":2075:2092  account1.transfer */\n      0xffffffffffffffffffffffffffffffffffffffff\n      and\n        /* \"RPS.sol\":2075:2104  account1.transfer(reward / 2) */\n      0x08fc\n        /* \"RPS.sol\":2102:2103  2 */\n      0x02\n        /* \"RPS.sol\":2093:2099  reward */\n      sload(0x01)\n        /* \"RPS.sol\":2093:2103  reward / 2 */\n      tag_191\n      swap2\n      swap1\n      tag_188\n      jump\t// in\n    tag_191:\n        /* \"RPS.sol\":2075:2104  account1.transfer(reward / 2) */\n      swap1\n      dup2\n      iszero\n      mul\n      swap1\n      mload(0x40)\n      0x00\n      mload(0x40)\n      dup1\n      dup4\n      sub\n      dup2\n      dup6\n      dup9\n      dup9\n      call\n      swap4\n      pop\n      pop\n      pop\n      pop\n      iszero\n      dup1\n      iszero\n      tag_193\n      jumpi\n      returndatasize\n      0x00\n      dup1\n      returndatacopy\n      revert(0x00, returndatasize)\n    tag_193:\n      pop\n        /* \"RPS.sol\":1922:2115  if ((p1Choice + 1) % 3 == p0Choice) {... */\n    tag_186:\n        /* \"RPS.sol\":1830:2115  if ((p0Choice + 1) % 3 == p1Choice) {... */\n    tag_180:\n        /* \"RPS.sol\":1487:2121  {... */\n      pop\n      pop\n      pop\n      pop\n        /* \"RPS.sol\":1449:2121  function _checkWinnerAndPay() private {... */\n      jump\t// out\n        /* \"#utility.yul\":88:205   */\n    tag_195:\n        /* \"#utility.yul\":197:198   */\n      0x00\n        /* \"#utility.yul\":194:195   */\n      dup1\n        /* \"#utility.yul\":187:199   */\n      revert\n        /* \"#utility.yul\":334:460   */\n    tag_197:\n        /* \"#utility.yul\":371:378   */\n      0x00\n        /* \"#utility.yul\":411:453   */\n      0xffffffffffffffffffffffffffffffffffffffff\n        /* \"#utility.yul\":404:409   */\n      dup3\n        /* \"#utility.yul\":400:454   */\n      and\n        /* \"#utility.yul\":389:454   */\n      swap1\n      pop\n        /* \"#utility.yul\":334:460   */\n      swap2\n      swap1\n      pop\n      jump\t// out\n        /* \"#utility.yul\":466:562   */\n    tag_198:\n        /* \"#utility.yul\":503:510   */\n      0x00\n        /* \"#utility.yul\":532:556   */\n      tag_246\n        /* \"#utility.yul\":550:555   */\n      dup3\n        /* \"#utility.yul\":532:556   */\n      tag_197\n      jump\t// in\n    tag_246:\n        /* \"#utility.yul\":521:556   */\n      swap1\n      pop\n        /* \"#utility.yul\":466:562   */\n      swap2\n      swap1\n      pop\n      jump\t// out\n        /* \"#utility.yul\":568:690   */\n    tag_199:\n        /* \"#utility.yul\":641:665   */\n      tag_248\n        /* \"#utility.yul\":659:664   */\n      dup2\n        /* \"#utility.yul\":641:665   */\n      tag_198\n      jump\t// in\n    tag_248:\n        /* \"#utility.yul\":634:639   */\n      dup2\n        /* \"#utility.yul\":631:666   */\n      eq\n        /* \"#utility.yul\":621:684   */\n      tag_249\n      jumpi\n        /* \"#utility.yul\":680:681   */\n      0x00\n        /* \"#utility.yul\":677:678   */\n      dup1\n        /* \"#utility.yul\":670:682   */\n      revert\n        /* \"#utility.yul\":621:684   */\n    tag_249:\n        /* \"#utility.yul\":568:690   */\n      pop\n      jump\t// out\n        /* \"#utility.yul\":696:835   */\n    tag_200:\n        /* \"#utility.yul\":742:747   */\n      0x00\n        /* \"#utility.yul\":780:786   */\n      dup2\n        /* \"#utility.yul\":767:787   */\n      calldataload\n        /* \"#utility.yul\":758:787   */\n      swap1\n      pop\n        /* \"#utility.yul\":796:829   */\n      tag_251\n        /* \"#utility.yul\":823:828   */\n      dup2\n        /* \"#utility.yul\":796:829   */\n      tag_199\n      jump\t// in\n    tag_251:\n        /* \"#utility.yul\":696:835   */\n      swap3\n      swap2\n      pop\n      pop\n      jump\t// out\n        /* \"#utility.yul\":841:1170   */\n    tag_17:\n        /* \"#utility.yul\":900:906   */\n      0x00\n        /* \"#utility.yul\":949:951   */\n      0x20\n        /* \"#utility.yul\":937:946   */\n      dup3\n        /* \"#utility.yul\":928:935   */\n      dup5\n        /* \"#utility.yul\":924:947   */\n      sub\n        /* \"#utility.yul\":920:952   */\n      slt\n        /* \"#utility.yul\":917:1036   */\n      iszero\n      tag_253\n      jumpi\n        /* \"#utility.yul\":955:1034   */\n      tag_254\n      tag_195\n      jump\t// in\n    tag_254:\n        /* \"#utility.yul\":917:1036   */\n    tag_253:\n        /* \"#utility.yul\":1075:1076   */\n      0x00\n        /* \"#utility.yul\":1100:1153   */\n      tag_255\n        /* \"#utility.yul\":1145:1152   */\n      dup5\n        /* \"#utility.yul\":1136:1142   */\n      dup3\n        /* \"#utility.yul\":1125:1134   */\n      dup6\n        /* \"#utility.yul\":1121:1143   */\n      add\n        /* \"#utility.yul\":1100:1153   */\n      tag_200\n      jump\t// in\n    tag_255:\n        /* \"#utility.yul\":1090:1153   */\n      swap2\n      pop\n        /* \"#utility.yul\":1046:1163   */\n      pop\n        /* \"#utility.yul\":841:1170   */\n      swap3\n      swap2\n      pop\n      pop\n      jump\t// out\n        /* \"#utility.yul\":1176:1266   */\n    tag_201:\n        /* \"#utility.yul\":1210:1217   */\n      0x00\n        /* \"#utility.yul\":1253:1258   */\n      dup2\n        /* \"#utility.yul\":1246:1259   */\n      iszero\n        /* \"#utility.yul\":1239:1260   */\n      iszero\n        /* \"#utility.yul\":1228:1260   */\n      swap1\n      pop\n        /* \"#utility.yul\":1176:1266   */\n      swap2\n      swap1\n      pop\n      jump\t// out\n        /* \"#utility.yul\":1272:1381   */\n    tag_202:\n        /* \"#utility.yul\":1353:1374   */\n      tag_258\n        /* \"#utility.yul\":1368:1373   */\n      dup2\n        /* \"#utility.yul\":1353:1374   */\n      tag_201\n      jump\t// in\n    tag_258:\n        /* \"#utility.yul\":1348:1351   */\n      dup3\n        /* \"#utility.yul\":1341:1375   */\n      mstore\n        /* \"#utility.yul\":1272:1381   */\n      pop\n      pop\n      jump\t// out\n        /* \"#utility.yul\":1387:1597   */\n    tag_20:\n        /* \"#utility.yul\":1474:1478   */\n      0x00\n        /* \"#utility.yul\":1512:1514   */\n      0x20\n        /* \"#utility.yul\":1501:1510   */\n      dup3\n        /* \"#utility.yul\":1497:1515   */\n      add\n        /* \"#utility.yul\":1489:1515   */\n      swap1\n      pop\n        /* \"#utility.yul\":1525:1590   */\n      tag_260\n        /* \"#utility.yul\":1587:1588   */\n      0x00\n        /* \"#utility.yul\":1576:1585   */\n      dup4\n        /* \"#utility.yul\":1572:1589   */\n      add\n        /* \"#utility.yul\":1563:1569   */\n      dup5\n        /* \"#utility.yul\":1525:1590   */\n      tag_202\n      jump\t// in\n    tag_260:\n        /* \"#utility.yul\":1387:1597   */\n      swap3\n      swap2\n      pop\n      pop\n      jump\t// out\n        /* \"#utility.yul\":1603:1680   */\n    tag_203:\n        /* \"#utility.yul\":1640:1647   */\n      0x00\n        /* \"#utility.yul\":1669:1674   */\n      dup2\n        /* \"#utility.yul\":1658:1674   */\n      swap1\n      pop\n        /* \"#utility.yul\":1603:1680   */\n      swap2\n      swap1\n      pop\n      jump\t// out\n        /* \"#utility.yul\":1686:1804   */\n    tag_204:\n        /* \"#utility.yul\":1773:1797   */\n      tag_263\n        /* \"#utility.yul\":1791:1796   */\n      dup2\n        /* \"#utility.yul\":1773:1797   */\n      tag_203\n      jump\t// in\n    tag_263:\n        /* \"#utility.yul\":1768:1771   */\n      dup3\n        /* \"#utility.yul\":1761:1798   */\n      mstore\n        /* \"#utility.yul\":1686:1804   */\n      pop\n      pop\n      jump\t// out\n        /* \"#utility.yul\":1810:2032   */\n    tag_26:\n        /* \"#utility.yul\":1903:1907   */\n      0x00\n        /* \"#utility.yul\":1941:1943   */\n      0x20\n        /* \"#utility.yul\":1930:1939   */\n      dup3\n        /* \"#utility.yul\":1926:1944   */\n      add\n        /* \"#utility.yul\":1918:1944   */\n      swap1\n      pop\n        /* \"#utility.yul\":1954:2025   */\n      tag_265\n        /* \"#utility.yul\":2022:2023   */\n      0x00\n        /* \"#utility.yul\":2011:2020   */\n      dup4\n        /* \"#utility.yul\":2007:2024   */\n      add\n        /* \"#utility.yul\":1998:2004   */\n      dup5\n        /* \"#utility.yul\":1954:2025   */\n      tag_204\n      jump\t// in\n    tag_265:\n        /* \"#utility.yul\":1810:2032   */\n      swap3\n      swap2\n      pop\n      pop\n      jump\t// out\n        /* \"#utility.yul\":2038:2098   */\n    tag_205:\n        /* \"#utility.yul\":2066:2069   */\n      0x00\n        /* \"#utility.yul\":2087:2092   */\n      dup2\n        /* \"#utility.yul\":2080:2092   */\n      swap1\n      pop\n        /* \"#utility.yul\":2038:2098   */\n      swap2\n      swap1\n      pop\n      jump\t// out\n        /* \"#utility.yul\":2104:2246   */\n    tag_206:\n        /* \"#utility.yul\":2154:2163   */\n      0x00\n        /* \"#utility.yul\":2187:2240   */\n      tag_268\n        /* \"#utility.yul\":2205:2239   */\n      tag_269\n        /* \"#utility.yul\":2214:2238   */\n      tag_270\n        /* \"#utility.yul\":2232:2237   */\n      dup5\n        /* \"#utility.yul\":2214:2238   */\n      tag_197\n      jump\t// in\n    tag_270:\n        /* \"#utility.yul\":2205:2239   */\n      tag_205\n      jump\t// in\n    tag_269:\n        /* \"#utility.yul\":2187:2240   */\n      tag_197\n      jump\t// in\n    tag_268:\n        /* \"#utility.yul\":2174:2240   */\n      swap1\n      pop\n        /* \"#utility.yul\":2104:2246   */\n      swap2\n      swap1\n      pop\n      jump\t// out\n        /* \"#utility.yul\":2252:2378   */\n    tag_207:\n        /* \"#utility.yul\":2302:2311   */\n      0x00\n        /* \"#utility.yul\":2335:2372   */\n      tag_272\n        /* \"#utility.yul\":2366:2371   */\n      dup3\n        /* \"#utility.yul\":2335:2372   */\n      tag_206\n      jump\t// in\n    tag_272:\n        /* \"#utility.yul\":2322:2372   */\n      swap1\n      pop\n        /* \"#utility.yul\":2252:2378   */\n      swap2\n      swap1\n      pop\n      jump\t// out\n        /* \"#utility.yul\":2384:2526   */\n    tag_208:\n        /* \"#utility.yul\":2450:2459   */\n      0x00\n        /* \"#utility.yul\":2483:2520   */\n      tag_274\n        /* \"#utility.yul\":2514:2519   */\n      dup3\n        /* \"#utility.yul\":2483:2520   */\n      tag_207\n      jump\t// in\n    tag_274:\n        /* \"#utility.yul\":2470:2520   */\n      swap1\n      pop\n        /* \"#utility.yul\":2384:2526   */\n      swap2\n      swap1\n      pop\n      jump\t// out\n        /* \"#utility.yul\":2532:2695   */\n    tag_209:\n        /* \"#utility.yul\":2635:2688   */\n      tag_276\n        /* \"#utility.yul\":2682:2687   */\n      dup2\n        /* \"#utility.yul\":2635:2688   */\n      tag_208\n      jump\t// in\n    tag_276:\n        /* \"#utility.yul\":2630:2633   */\n      dup3\n        /* \"#utility.yul\":2623:2689   */\n      mstore\n        /* \"#utility.yul\":2532:2695   */\n      pop\n      pop\n      jump\t// out\n        /* \"#utility.yul\":2701:2955   */\n    tag_30:\n        /* \"#utility.yul\":2810:2814   */\n      0x00\n        /* \"#utility.yul\":2848:2850   */\n      0x20\n        /* \"#utility.yul\":2837:2846   */\n      dup3\n        /* \"#utility.yul\":2833:2851   */\n      add\n        /* \"#utility.yul\":2825:2851   */\n      swap1\n      pop\n        /* \"#utility.yul\":2861:2948   */\n      tag_278\n        /* \"#utility.yul\":2945:2946   */\n      0x00\n        /* \"#utility.yul\":2934:2943   */\n      dup4\n        /* \"#utility.yul\":2930:2947   */\n      add\n        /* \"#utility.yul\":2921:2927   */\n      dup5\n        /* \"#utility.yul\":2861:2948   */\n      tag_209\n      jump\t// in\n    tag_278:\n        /* \"#utility.yul\":2701:2955   */\n      swap3\n      swap2\n      pop\n      pop\n      jump\t// out\n        /* \"#utility.yul\":2961:3038   */\n    tag_210:\n        /* \"#utility.yul\":2998:3005   */\n      0x00\n        /* \"#utility.yul\":3027:3032   */\n      dup2\n        /* \"#utility.yul\":3016:3032   */\n      swap1\n      pop\n        /* \"#utility.yul\":2961:3038   */\n      swap2\n      swap1\n      pop\n      jump\t// out\n        /* \"#utility.yul\":3044:3162   */\n    tag_211:\n        /* \"#utility.yul\":3131:3155   */\n      tag_281\n        /* \"#utility.yul\":3149:3154   */\n      dup2\n        /* \"#utility.yul\":3131:3155   */\n      tag_210\n      jump\t// in\n    tag_281:\n        /* \"#utility.yul\":3126:3129   */\n      dup3\n        /* \"#utility.yul\":3119:3156   */\n      mstore\n        /* \"#utility.yul\":3044:3162   */\n      pop\n      pop\n      jump\t// out\n        /* \"#utility.yul\":3168:3390   */\n    tag_35:\n        /* \"#utility.yul\":3261:3265   */\n      0x00\n        /* \"#utility.yul\":3299:3301   */\n      0x20\n        /* \"#utility.yul\":3288:3297   */\n      dup3\n        /* \"#utility.yul\":3284:3302   */\n      add\n        /* \"#utility.yul\":3276:3302   */\n      swap1\n      pop\n        /* \"#utility.yul\":3312:3383   */\n      tag_283\n        /* \"#utility.yul\":3380:3381   */\n      0x00\n        /* \"#utility.yul\":3369:3378   */\n      dup4\n        /* \"#utility.yul\":3365:3382   */\n      add\n        /* \"#utility.yul\":3356:3362   */\n      dup5\n        /* \"#utility.yul\":3312:3383   */\n      tag_211\n      jump\t// in\n    tag_283:\n        /* \"#utility.yul\":3168:3390   */\n      swap3\n      swap2\n      pop\n      pop\n      jump\t// out\n        /* \"#utility.yul\":3396:3518   */\n    tag_212:\n        /* \"#utility.yul\":3469:3493   */\n      tag_285\n        /* \"#utility.yul\":3487:3492   */\n      dup2\n        /* \"#utility.yul\":3469:3493   */\n      tag_210\n      jump\t// in\n    tag_285:\n        /* \"#utility.yul\":3462:3467   */\n      dup2\n        /* \"#utility.yul\":3459:3494   */\n      eq\n        /* \"#utility.yul\":3449:3512   */\n      tag_286\n      jumpi\n        /* \"#utility.yul\":3508:3509   */\n      0x00\n        /* \"#utility.yul\":3505:3506   */\n      dup1\n        /* \"#utility.yul\":3498:3510   */\n      revert\n        /* \"#utility.yul\":3449:3512   */\n    tag_286:\n        /* \"#utility.yul\":3396:3518   */\n      pop\n      jump\t// out\n        /* \"#utility.yul\":3524:3663   */\n    tag_213:\n        /* \"#utility.yul\":3570:3575   */\n      0x00\n        /* \"#utility.yul\":3608:3614   */\n      dup2\n        /* \"#utility.yul\":3595:3615   */\n      calldataload\n        /* \"#utility.yul\":3586:3615   */\n      swap1\n      pop\n        /* \"#utility.yul\":3624:3657   */\n      tag_288\n        /* \"#utility.yul\":3651:3656   */\n      dup2\n        /* \"#utility.yul\":3624:3657   */\n      tag_212\n      jump\t// in\n    tag_288:\n        /* \"#utility.yul\":3524:3663   */\n      swap3\n      swap2\n      pop\n      pop\n      jump\t// out\n        /* \"#utility.yul\":3669:3998   */\n    tag_38:\n        /* \"#utility.yul\":3728:3734   */\n      0x00\n        /* \"#utility.yul\":3777:3779   */\n      0x20\n        /* \"#utility.yul\":3765:3774   */\n      dup3\n        /* \"#utility.yul\":3756:3763   */\n      dup5\n        /* \"#utility.yul\":3752:3775   */\n      sub\n        /* \"#utility.yul\":3748:3780   */\n      slt\n        /* \"#utility.yul\":3745:3864   */\n      iszero\n      tag_290\n      jumpi\n        /* \"#utility.yul\":3783:3862   */\n      tag_291\n      tag_195\n      jump\t// in\n    tag_291:\n        /* \"#utility.yul\":3745:3864   */\n    tag_290:\n        /* \"#utility.yul\":3903:3904   */\n      0x00\n        /* \"#utility.yul\":3928:3981   */\n      tag_292\n        /* \"#utility.yul\":3973:3980   */\n      dup5\n        /* \"#utility.yul\":3964:3970   */\n      dup3\n        /* \"#utility.yul\":3953:3962   */\n      dup6\n        /* \"#utility.yul\":3949:3971   */\n      add\n        /* \"#utility.yul\":3928:3981   */\n      tag_213\n      jump\t// in\n    tag_292:\n        /* \"#utility.yul\":3918:3981   */\n      swap2\n      pop\n        /* \"#utility.yul\":3874:3991   */\n      pop\n        /* \"#utility.yul\":3669:3998   */\n      swap3\n      swap2\n      pop\n      pop\n      jump\t// out\n        /* \"#utility.yul\":4004:4150   */\n    tag_214:\n        /* \"#utility.yul\":4074:4083   */\n      0x00\n        /* \"#utility.yul\":4107:4144   */\n      tag_294\n        /* \"#utility.yul\":4138:4143   */\n      dup3\n        /* \"#utility.yul\":4107:4144   */\n      tag_207\n      jump\t// in\n    tag_294:\n        /* \"#utility.yul\":4094:4144   */\n      swap1\n      pop\n        /* \"#utility.yul\":4004:4150   */\n      swap2\n      swap1\n      pop\n      jump\t// out\n        /* \"#utility.yul\":4156:4327   */\n    tag_215:\n        /* \"#utility.yul\":4263:4320   */\n      tag_296\n        /* \"#utility.yul\":4314:4319   */\n      dup2\n        /* \"#utility.yul\":4263:4320   */\n      tag_214\n      jump\t// in\n    tag_296:\n        /* \"#utility.yul\":4258:4261   */\n      dup3\n        /* \"#utility.yul\":4251:4321   */\n      mstore\n        /* \"#utility.yul\":4156:4327   */\n      pop\n      pop\n      jump\t// out\n        /* \"#utility.yul\":4333:4595   */\n    tag_46:\n        /* \"#utility.yul\":4446:4450   */\n      0x00\n        /* \"#utility.yul\":4484:4486   */\n      0x20\n        /* \"#utility.yul\":4473:4482   */\n      dup3\n        /* \"#utility.yul\":4469:4487   */\n      add\n        /* \"#utility.yul\":4461:4487   */\n      swap1\n      pop\n        /* \"#utility.yul\":4497:4588   */\n      tag_298\n        /* \"#utility.yul\":4585:4586   */\n      0x00\n        /* \"#utility.yul\":4574:4583   */\n      dup4\n        /* \"#utility.yul\":4570:4587   */\n      add\n        /* \"#utility.yul\":4561:4567   */\n      dup5\n        /* \"#utility.yul\":4497:4588   */\n      tag_215\n      jump\t// in\n    tag_298:\n        /* \"#utility.yul\":4333:4595   */\n      swap3\n      swap2\n      pop\n      pop\n      jump\t// out\n        /* \"#utility.yul\":4601:4723   */\n    tag_216:\n        /* \"#utility.yul\":4674:4698   */\n      tag_300\n        /* \"#utility.yul\":4692:4697   */\n      dup2\n        /* \"#utility.yul\":4674:4698   */\n      tag_203\n      jump\t// in\n    tag_300:\n        /* \"#utility.yul\":4667:4672   */\n      dup2\n        /* \"#utility.yul\":4664:4699   */\n      eq\n        /* \"#utility.yul\":4654:4717   */\n      tag_301\n      jumpi\n        /* \"#utility.yul\":4713:4714   */\n      0x00\n        /* \"#utility.yul\":4710:4711   */\n      dup1\n        /* \"#utility.yul\":4703:4715   */\n      revert\n        /* \"#utility.yul\":4654:4717   */\n    tag_301:\n        /* \"#utility.yul\":4601:4723   */\n      pop\n      jump\t// out\n        /* \"#utility.yul\":4729:4868   */\n    tag_217:\n        /* \"#utility.yul\":4775:4780   */\n      0x00\n        /* \"#utility.yul\":4813:4819   */\n      dup2\n        /* \"#utility.yul\":4800:4820   */\n      calldataload\n        /* \"#utility.yul\":4791:4820   */\n      swap1\n      pop\n        /* \"#utility.yul\":4829:4862   */\n      tag_303\n        /* \"#utility.yul\":4856:4861   */\n      dup2\n        /* \"#utility.yul\":4829:4862   */\n      tag_216\n      jump\t// in\n    tag_303:\n        /* \"#utility.yul\":4729:4868   */\n      swap3\n      swap2\n      pop\n      pop\n      jump\t// out\n        /* \"#utility.yul\":4874:5203   */\n    tag_55:\n        /* \"#utility.yul\":4933:4939   */\n      0x00\n        /* \"#utility.yul\":4982:4984   */\n      0x20\n        /* \"#utility.yul\":4970:4979   */\n      dup3\n        /* \"#utility.yul\":4961:4968   */\n      dup5\n        /* \"#utility.yul\":4957:4980   */\n      sub\n        /* \"#utility.yul\":4953:4985   */\n      slt\n        /* \"#utility.yul\":4950:5069   */\n      iszero\n      tag_305\n      jumpi\n        /* \"#utility.yul\":4988:5067   */\n      tag_306\n      tag_195\n      jump\t// in\n    tag_306:\n        /* \"#utility.yul\":4950:5069   */\n    tag_305:\n        /* \"#utility.yul\":5108:5109   */\n      0x00\n        /* \"#utility.yul\":5133:5186   */\n      tag_307\n        /* \"#utility.yul\":5178:5185   */\n      dup5\n        /* \"#utility.yul\":5169:5175   */\n      dup3\n        /* \"#utility.yul\":5158:5167   */\n      dup6\n        /* \"#utility.yul\":5154:5176   */\n      add\n        /* \"#utility.yul\":5133:5186   */\n      tag_217\n      jump\t// in\n    tag_307:\n        /* \"#utility.yul\":5123:5186   */\n      swap2\n      pop\n        /* \"#utility.yul\":5079:5196   */\n      pop\n        /* \"#utility.yul\":4874:5203   */\n      swap3\n      swap2\n      pop\n      pop\n      jump\t// out\n        /* \"#utility.yul\":5209:5327   */\n    tag_218:\n        /* \"#utility.yul\":5296:5320   */\n      tag_309\n        /* \"#utility.yul\":5314:5319   */\n      dup2\n        /* \"#utility.yul\":5296:5320   */\n      tag_198\n      jump\t// in\n    tag_309:\n        /* \"#utility.yul\":5291:5294   */\n      dup3\n        /* \"#utility.yul\":5284:5321   */\n      mstore\n        /* \"#utility.yul\":5209:5327   */\n      pop\n      pop\n      jump\t// out\n        /* \"#utility.yul\":5333:5555   */\n    tag_58:\n        /* \"#utility.yul\":5426:5430   */\n      0x00\n        /* \"#utility.yul\":5464:5466   */\n      0x20\n        /* \"#utility.yul\":5453:5462   */\n      dup3\n        /* \"#utility.yul\":5449:5467   */\n      add\n        /* \"#utility.yul\":5441:5467   */\n      swap1\n      pop\n        /* \"#utility.yul\":5477:5548   */\n      tag_311\n        /* \"#utility.yul\":5545:5546   */\n      0x00\n        /* \"#utility.yul\":5534:5543   */\n      dup4\n        /* \"#utility.yul\":5530:5547   */\n      add\n        /* \"#utility.yul\":5521:5527   */\n      dup5\n        /* \"#utility.yul\":5477:5548   */\n      tag_218\n      jump\t// in\n    tag_311:\n        /* \"#utility.yul\":5333:5555   */\n      swap3\n      swap2\n      pop\n      pop\n      jump\t// out\n        /* \"#utility.yul\":5561:5704   */\n    tag_219:\n        /* \"#utility.yul\":5618:5623   */\n      0x00\n        /* \"#utility.yul\":5649:5655   */\n      dup2\n        /* \"#utility.yul\":5643:5656   */\n      mload\n        /* \"#utility.yul\":5634:5656   */\n      swap1\n      pop\n        /* \"#utility.yul\":5665:5698   */\n      tag_313\n        /* \"#utility.yul\":5692:5697   */\n      dup2\n        /* \"#utility.yul\":5665:5698   */\n      tag_216\n      jump\t// in\n    tag_313:\n        /* \"#utility.yul\":5561:5704   */\n      swap3\n      swap2\n      pop\n      pop\n      jump\t// out\n        /* \"#utility.yul\":5710:6061   */\n    tag_63:\n        /* \"#utility.yul\":5780:5786   */\n      0x00\n        /* \"#utility.yul\":5829:5831   */\n      0x20\n        /* \"#utility.yul\":5817:5826   */\n      dup3\n        /* \"#utility.yul\":5808:5815   */\n      dup5\n        /* \"#utility.yul\":5804:5827   */\n      sub\n        /* \"#utility.yul\":5800:5832   */\n      slt\n        /* \"#utility.yul\":5797:5916   */\n      iszero\n      tag_315\n      jumpi\n        /* \"#utility.yul\":5835:5914   */\n      tag_316\n      tag_195\n      jump\t// in\n    tag_316:\n        /* \"#utility.yul\":5797:5916   */\n    tag_315:\n        /* \"#utility.yul\":5955:5956   */\n      0x00\n        /* \"#utility.yul\":5980:6044   */\n      tag_317\n        /* \"#utility.yul\":6036:6043   */\n      dup5\n        /* \"#utility.yul\":6027:6033   */\n      dup3\n        /* \"#utility.yul\":6016:6025   */\n      dup6\n        /* \"#utility.yul\":6012:6034   */\n      add\n        /* \"#utility.yul\":5980:6044   */\n      tag_219\n      jump\t// in\n    tag_317:\n        /* \"#utility.yul\":5970:6044   */\n      swap2\n      pop\n        /* \"#utility.yul\":5926:6054   */\n      pop\n        /* \"#utility.yul\":5710:6061   */\n      swap3\n      swap2\n      pop\n      pop\n      jump\t// out\n        /* \"#utility.yul\":6067:6236   */\n    tag_220:\n        /* \"#utility.yul\":6151:6162   */\n      0x00\n        /* \"#utility.yul\":6185:6191   */\n      dup3\n        /* \"#utility.yul\":6180:6183   */\n      dup3\n        /* \"#utility.yul\":6173:6192   */\n      mstore\n        /* \"#utility.yul\":6225:6229   */\n      0x20\n        /* \"#utility.yul\":6220:6223   */\n      dup3\n        /* \"#utility.yul\":6216:6230   */\n      add\n        /* \"#utility.yul\":6201:6230   */\n      swap1\n      pop\n        /* \"#utility.yul\":6067:6236   */\n      swap3\n      swap2\n      pop\n      pop\n      jump\t// out\n        /* \"#utility.yul\":6242:6408   */\n    tag_221:\n        /* \"#utility.yul\":6382:6400   */\n      0x54696d65206e6f74206578706972656400000000000000000000000000000000\n        /* \"#utility.yul\":6378:6379   */\n      0x00\n        /* \"#utility.yul\":6370:6376   */\n      dup3\n        /* \"#utility.yul\":6366:6380   */\n      add\n        /* \"#utility.yul\":6359:6401   */\n      mstore\n        /* \"#utility.yul\":6242:6408   */\n      pop\n      jump\t// out\n        /* \"#utility.yul\":6414:6780   */\n    tag_222:\n        /* \"#utility.yul\":6556:6559   */\n      0x00\n        /* \"#utility.yul\":6577:6644   */\n      tag_321\n        /* \"#utility.yul\":6641:6643   */\n      0x10\n        /* \"#utility.yul\":6636:6639   */\n      dup4\n        /* \"#utility.yul\":6577:6644   */\n      tag_220\n      jump\t// in\n    tag_321:\n        /* \"#utility.yul\":6570:6644   */\n      swap2\n      pop\n        /* \"#utility.yul\":6653:6746   */\n      tag_322\n        /* \"#utility.yul\":6742:6745   */\n      dup3\n        /* \"#utility.yul\":6653:6746   */\n      tag_221\n      jump\t// in\n    tag_322:\n        /* \"#utility.yul\":6771:6773   */\n      0x20\n        /* \"#utility.yul\":6766:6769   */\n      dup3\n        /* \"#utility.yul\":6762:6774   */\n      add\n        /* \"#utility.yul\":6755:6774   */\n      swap1\n      pop\n        /* \"#utility.yul\":6414:6780   */\n      swap2\n      swap1\n      pop\n      jump\t// out\n        /* \"#utility.yul\":6786:7205   */\n    tag_66:\n        /* \"#utility.yul\":6952:6956   */\n      0x00\n        /* \"#utility.yul\":6990:6992   */\n      0x20\n        /* \"#utility.yul\":6979:6988   */\n      dup3\n        /* \"#utility.yul\":6975:6993   */\n      add\n        /* \"#utility.yul\":6967:6993   */\n      swap1\n      pop\n        /* \"#utility.yul\":7039:7048   */\n      dup2\n        /* \"#utility.yul\":7033:7037   */\n      dup2\n        /* \"#utility.yul\":7029:7049   */\n      sub\n        /* \"#utility.yul\":7025:7026   */\n      0x00\n        /* \"#utility.yul\":7014:7023   */\n      dup4\n        /* \"#utility.yul\":7010:7027   */\n      add\n        /* \"#utility.yul\":7003:7050   */\n      mstore\n        /* \"#utility.yul\":7067:7198   */\n      tag_324\n        /* \"#utility.yul\":7193:7197   */\n      dup2\n        /* \"#utility.yul\":7067:7198   */\n      tag_222\n      jump\t// in\n    tag_324:\n        /* \"#utility.yul\":7059:7198   */\n      swap1\n      pop\n        /* \"#utility.yul\":6786:7205   */\n      swap2\n      swap1\n      pop\n      jump\t// out\n        /* \"#utility.yul\":7211:7391   */\n    tag_69:\n        /* \"#utility.yul\":7259:7336   */\n      0x4e487b7100000000000000000000000000000000000000000000000000000000\n        /* \"#utility.yul\":7256:7257   */\n      0x00\n        /* \"#utility.yul\":7249:7337   */\n      mstore\n        /* \"#utility.yul\":7356:7360   */\n      0x32\n        /* \"#utility.yul\":7353:7354   */\n      0x04\n        /* \"#utility.yul\":7346:7361   */\n      mstore\n        /* \"#utility.yul\":7380:7384   */\n      0x24\n        /* \"#utility.yul\":7377:7378   */\n      0x00\n        /* \"#utility.yul\":7370:7385   */\n      revert\n        /* \"#utility.yul\":7397:7565   */\n    tag_223:\n        /* \"#utility.yul\":7537:7557   */\n      0x4e6f7420656e6f75676820706c61796572730000000000000000000000000000\n        /* \"#utility.yul\":7533:7534   */\n      0x00\n        /* \"#utility.yul\":7525:7531   */\n      dup3\n        /* \"#utility.yul\":7521:7535   */\n      add\n        /* \"#utility.yul\":7514:7558   */\n      mstore\n        /* \"#utility.yul\":7397:7565   */\n      pop\n      jump\t// out\n        /* \"#utility.yul\":7571:7937   */\n    tag_224:\n        /* \"#utility.yul\":7713:7716   */\n      0x00\n        /* \"#utility.yul\":7734:7801   */\n      tag_328\n        /* \"#utility.yul\":7798:7800   */\n      0x12\n        /* \"#utility.yul\":7793:7796   */\n      dup4\n        /* \"#utility.yul\":7734:7801   */\n      tag_220\n      jump\t// in\n    tag_328:\n        /* \"#utility.yul\":7727:7801   */\n      swap2\n      pop\n        /* \"#utility.yul\":7810:7903   */\n      tag_329\n        /* \"#utility.yul\":7899:7902   */\n      dup3\n        /* \"#utility.yul\":7810:7903   */\n      tag_223\n      jump\t// in\n    tag_329:\n        /* \"#utility.yul\":7928:7930   */\n      0x20\n        /* \"#utility.yul\":7923:7926   */\n      dup3\n        /* \"#utility.yul\":7919:7931   */\n      add\n        /* \"#utility.yul\":7912:7931   */\n      swap1\n      pop\n        /* \"#utility.yul\":7571:7937   */\n      swap2\n      swap1\n      pop\n      jump\t// out\n        /* \"#utility.yul\":7943:8362   */\n    tag_101:\n        /* \"#utility.yul\":8109:8113   */\n      0x00\n        /* \"#utility.yul\":8147:8149   */\n      0x20\n        /* \"#utility.yul\":8136:8145   */\n      dup3\n        /* \"#utility.yul\":8132:8150   */\n      add\n        /* \"#utility.yul\":8124:8150   */\n      swap1\n      pop\n        /* \"#utility.yul\":8196:8205   */\n      dup2\n        /* \"#utility.yul\":8190:8194   */\n      dup2\n        /* \"#utility.yul\":8186:8206   */\n      sub\n        /* \"#utility.yul\":8182:8183   */\n      0x00\n        /* \"#utility.yul\":8171:8180   */\n      dup4\n        /* \"#utility.yul\":8167:8184   */\n      add\n        /* \"#utility.yul\":8160:8207   */\n      mstore\n        /* \"#utility.yul\":8224:8355   */\n      tag_331\n        /* \"#utility.yul\":8350:8354   */\n      dup2\n        /* \"#utility.yul\":8224:8355   */\n      tag_224\n      jump\t// in\n    tag_331:\n        /* \"#utility.yul\":8216:8355   */\n      swap1\n      pop\n        /* \"#utility.yul\":7943:8362   */\n      swap2\n      swap1\n      pop\n      jump\t// out\n        /* \"#utility.yul\":8368:8534   */\n    tag_225:\n        /* \"#utility.yul\":8508:8526   */\n      0x416c72656164792072657665616c656400000000000000000000000000000000\n        /* \"#utility.yul\":8504:8505   */\n      0x00\n        /* \"#utility.yul\":8496:8502   */\n      dup3\n        /* \"#utility.yul\":8492:8506   */\n      add\n        /* \"#utility.yul\":8485:8527   */\n      mstore\n        /* \"#utility.yul\":8368:8534   */\n      pop\n      jump\t// out\n        /* \"#utility.yul\":8540:8906   */\n    tag_226:\n        /* \"#utility.yul\":8682:8685   */\n      0x00\n        /* \"#utility.yul\":8703:8770   */\n      tag_334\n        /* \"#utility.yul\":8767:8769   */\n      0x10\n        /* \"#utility.yul\":8762:8765   */\n      dup4\n        /* \"#utility.yul\":8703:8770   */\n      tag_220\n      jump\t// in\n    tag_334:\n        /* \"#utility.yul\":8696:8770   */\n      swap2\n      pop\n        /* \"#utility.yul\":8779:8872   */\n      tag_335\n        /* \"#utility.yul\":8868:8871   */\n      dup3\n        /* \"#utility.yul\":8779:8872   */\n      tag_225\n      jump\t// in\n    tag_335:\n        /* \"#utility.yul\":8897:8899   */\n      0x20\n        /* \"#utility.yul\":8892:8895   */\n      dup3\n        /* \"#utility.yul\":8888:8900   */\n      add\n        /* \"#utility.yul\":8881:8900   */\n      swap1\n      pop\n        /* \"#utility.yul\":8540:8906   */\n      swap2\n      swap1\n      pop\n      jump\t// out\n        /* \"#utility.yul\":8912:9331   */\n    tag_104:\n        /* \"#utility.yul\":9078:9082   */\n      0x00\n        /* \"#utility.yul\":9116:9118   */\n      0x20\n        /* \"#utility.yul\":9105:9114   */\n      dup3\n        /* \"#utility.yul\":9101:9119   */\n      add\n        /* \"#utility.yul\":9093:9119   */\n      swap1\n      pop\n        /* \"#utility.yul\":9165:9174   */\n      dup2\n        /* \"#utility.yul\":9159:9163   */\n      dup2\n        /* \"#utility.yul\":9155:9175   */\n      sub\n        /* \"#utility.yul\":9151:9152   */\n      0x00\n        /* \"#utility.yul\":9140:9149   */\n      dup4\n        /* \"#utility.yul\":9136:9153   */\n      add\n        /* \"#utility.yul\":9129:9176   */\n      mstore\n        /* \"#utility.yul\":9193:9324   */\n      tag_337\n        /* \"#utility.yul\":9319:9323   */\n      dup2\n        /* \"#utility.yul\":9193:9324   */\n      tag_226\n      jump\t// in\n    tag_337:\n        /* \"#utility.yul\":9185:9324   */\n      swap1\n      pop\n        /* \"#utility.yul\":8912:9331   */\n      swap2\n      swap1\n      pop\n      jump\t// out\n        /* \"#utility.yul\":9337:9480   */\n    tag_227:\n        /* \"#utility.yul\":9394:9399   */\n      0x00\n        /* \"#utility.yul\":9425:9431   */\n      dup2\n        /* \"#utility.yul\":9419:9432   */\n      mload\n        /* \"#utility.yul\":9410:9432   */\n      swap1\n      pop\n        /* \"#utility.yul\":9441:9474   */\n      tag_339\n        /* \"#utility.yul\":9468:9473   */\n      dup2\n        /* \"#utility.yul\":9441:9474   */\n      tag_212\n      jump\t// in\n    tag_339:\n        /* \"#utility.yul\":9337:9480   */\n      swap3\n      swap2\n      pop\n      pop\n      jump\t// out\n        /* \"#utility.yul\":9486:9837   */\n    tag_109:\n        /* \"#utility.yul\":9556:9562   */\n      0x00\n        /* \"#utility.yul\":9605:9607   */\n      0x20\n        /* \"#utility.yul\":9593:9602   */\n      dup3\n        /* \"#utility.yul\":9584:9591   */\n      dup5\n        /* \"#utility.yul\":9580:9603   */\n      sub\n        /* \"#utility.yul\":9576:9608   */\n      slt\n        /* \"#utility.yul\":9573:9692   */\n      iszero\n      tag_341\n      jumpi\n        /* \"#utility.yul\":9611:9690   */\n      tag_342\n      tag_195\n      jump\t// in\n    tag_342:\n        /* \"#utility.yul\":9573:9692   */\n    tag_341:\n        /* \"#utility.yul\":9731:9732   */\n      0x00\n        /* \"#utility.yul\":9756:9820   */\n      tag_343\n        /* \"#utility.yul\":9812:9819   */\n      dup5\n        /* \"#utility.yul\":9803:9809   */\n      dup3\n        /* \"#utility.yul\":9792:9801   */\n      dup6\n        /* \"#utility.yul\":9788:9810   */\n      add\n        /* \"#utility.yul\":9756:9820   */\n      tag_227\n      jump\t// in\n    tag_343:\n        /* \"#utility.yul\":9746:9820   */\n      swap2\n      pop\n        /* \"#utility.yul\":9702:9830   */\n      pop\n        /* \"#utility.yul\":9486:9837   */\n      swap3\n      swap2\n      pop\n      pop\n      jump\t// out\n        /* \"#utility.yul\":9843:10007   */\n    tag_228:\n        /* \"#utility.yul\":9983:9999   */\n      0x496e76616c69642072657665616c000000000000000000000000000000000000\n        /* \"#utility.yul\":9979:9980   */\n      0x00\n        /* \"#utility.yul\":9971:9977   */\n      dup3\n        /* \"#utility.yul\":9967:9981   */\n      add\n        /* \"#utility.yul\":9960:10000   */\n      mstore\n        /* \"#utility.yul\":9843:10007   */\n      pop\n      jump\t// out\n        /* \"#utility.yul\":10013:10379   */\n    tag_229:\n        /* \"#utility.yul\":10155:10158   */\n      0x00\n        /* \"#utility.yul\":10176:10243   */\n      tag_346\n        /* \"#utility.yul\":10240:10242   */\n      0x0e\n        /* \"#utility.yul\":10235:10238   */\n      dup4\n        /* \"#utility.yul\":10176:10243   */\n      tag_220\n      jump\t// in\n    tag_346:\n        /* \"#utility.yul\":10169:10243   */\n      swap2\n      pop\n        /* \"#utility.yul\":10252:10345   */\n      tag_347\n        /* \"#utility.yul\":10341:10344   */\n      dup3\n        /* \"#utility.yul\":10252:10345   */\n      tag_228\n      jump\t// in\n    tag_347:\n        /* \"#utility.yul\":10370:10372   */\n      0x20\n        /* \"#utility.yul\":10365:10368   */\n      dup3\n        /* \"#utility.yul\":10361:10373   */\n      add\n        /* \"#utility.yul\":10354:10373   */\n      swap1\n      pop\n        /* \"#utility.yul\":10013:10379   */\n      swap2\n      swap1\n      pop\n      jump\t// out\n        /* \"#utility.yul\":10385:10804   */\n    tag_112:\n        /* \"#utility.yul\":10551:10555   */\n      0x00\n        /* \"#utility.yul\":10589:10591   */\n      0x20\n        /* \"#utility.yul\":10578:10587   */\n      dup3\n        /* \"#utility.yul\":10574:10592   */\n      add\n        /* \"#utility.yul\":10566:10592   */\n      swap1\n      pop\n        /* \"#utility.yul\":10638:10647   */\n      dup2\n        /* \"#utility.yul\":10632:10636   */\n      dup2\n        /* \"#utility.yul\":10628:10648   */\n      sub\n        /* \"#utility.yul\":10624:10625   */\n      0x00\n        /* \"#utility.yul\":10613:10622   */\n      dup4\n        /* \"#utility.yul\":10609:10626   */\n      add\n        /* \"#utility.yul\":10602:10649   */\n      mstore\n        /* \"#utility.yul\":10666:10797   */\n      tag_349\n        /* \"#utility.yul\":10792:10796   */\n      dup2\n        /* \"#utility.yul\":10666:10797   */\n      tag_229\n      jump\t// in\n    tag_349:\n        /* \"#utility.yul\":10658:10797   */\n      swap1\n      pop\n        /* \"#utility.yul\":10385:10804   */\n      swap2\n      swap1\n      pop\n      jump\t// out\n        /* \"#utility.yul\":10810:10972   */\n    tag_230:\n        /* \"#utility.yul\":10950:10964   */\n      0x47616d652069732066756c6c0000000000000000000000000000000000000000\n        /* \"#utility.yul\":10946:10947   */\n      0x00\n        /* \"#utility.yul\":10938:10944   */\n      dup3\n        /* \"#utility.yul\":10934:10948   */\n      add\n        /* \"#utility.yul\":10927:10965   */\n      mstore\n        /* \"#utility.yul\":10810:10972   */\n      pop\n      jump\t// out\n        /* \"#utility.yul\":10978:11344   */\n    tag_231:\n        /* \"#utility.yul\":11120:11123   */\n      0x00\n        /* \"#utility.yul\":11141:11208   */\n      tag_352\n        /* \"#utility.yul\":11205:11207   */\n      0x0c\n        /* \"#utility.yul\":11200:11203   */\n      dup4\n        /* \"#utility.yul\":11141:11208   */\n      tag_220\n      jump\t// in\n    tag_352:\n        /* \"#utility.yul\":11134:11208   */\n      swap2\n      pop\n        /* \"#utility.yul\":11217:11310   */\n      tag_353\n        /* \"#utility.yul\":11306:11309   */\n      dup3\n        /* \"#utility.yul\":11217:11310   */\n      tag_230\n      jump\t// in\n    tag_353:\n        /* \"#utility.yul\":11335:11337   */\n      0x20\n        /* \"#utility.yul\":11330:11333   */\n      dup3\n        /* \"#utility.yul\":11326:11338   */\n      add\n        /* \"#utility.yul\":11319:11338   */\n      swap1\n      pop\n        /* \"#utility.yul\":10978:11344   */\n      swap2\n      swap1\n      pop\n      jump\t// out\n        /* \"#utility.yul\":11350:11769   */\n    tag_130:\n        /* \"#utility.yul\":11516:11520   */\n      0x00\n        /* \"#utility.yul\":11554:11556   */\n      0x20\n        /* \"#utility.yul\":11543:11552   */\n      dup3\n        /* \"#utility.yul\":11539:11557   */\n      add\n        /* \"#utility.yul\":11531:11557   */\n      swap1\n      pop\n        /* \"#utility.yul\":11603:11612   */\n      dup2\n        /* \"#utility.yul\":11597:11601   */\n      dup2\n        /* \"#utility.yul\":11593:11613   */\n      sub\n        /* \"#utility.yul\":11589:11590   */\n      0x00\n        /* \"#utility.yul\":11578:11587   */\n      dup4\n        /* \"#utility.yul\":11574:11591   */\n      add\n        /* \"#utility.yul\":11567:11614   */\n      mstore\n        /* \"#utility.yul\":11631:11762   */\n      tag_355\n        /* \"#utility.yul\":11757:11761   */\n      dup2\n        /* \"#utility.yul\":11631:11762   */\n      tag_231\n      jump\t// in\n    tag_355:\n        /* \"#utility.yul\":11623:11762   */\n      swap1\n      pop\n        /* \"#utility.yul\":11350:11769   */\n      swap2\n      swap1\n      pop\n      jump\t// out\n        /* \"#utility.yul\":11775:11950   */\n    tag_232:\n        /* \"#utility.yul\":11915:11942   */\n      0x506c6179657220616c7265616479207265676973746572656400000000000000\n        /* \"#utility.yul\":11911:11912   */\n      0x00\n        /* \"#utility.yul\":11903:11909   */\n      dup3\n        /* \"#utility.yul\":11899:11913   */\n      add\n        /* \"#utility.yul\":11892:11943   */\n      mstore\n        /* \"#utility.yul\":11775:11950   */\n      pop\n      jump\t// out\n        /* \"#utility.yul\":11956:12322   */\n    tag_233:\n        /* \"#utility.yul\":12098:12101   */\n      0x00\n        /* \"#utility.yul\":12119:12186   */\n      tag_358\n        /* \"#utility.yul\":12183:12185   */\n      0x19\n        /* \"#utility.yul\":12178:12181   */\n      dup4\n        /* \"#utility.yul\":12119:12186   */\n      tag_220\n      jump\t// in\n    tag_358:\n        /* \"#utility.yul\":12112:12186   */\n      swap2\n      pop\n        /* \"#utility.yul\":12195:12288   */\n      tag_359\n        /* \"#utility.yul\":12284:12287   */\n      dup3\n        /* \"#utility.yul\":12195:12288   */\n      tag_232\n      jump\t// in\n    tag_359:\n        /* \"#utility.yul\":12313:12315   */\n      0x20\n        /* \"#utility.yul\":12308:12311   */\n      dup3\n        /* \"#utility.yul\":12304:12316   */\n      add\n        /* \"#utility.yul\":12297:12316   */\n      swap1\n      pop\n        /* \"#utility.yul\":11956:12322   */\n      swap2\n      swap1\n      pop\n      jump\t// out\n        /* \"#utility.yul\":12328:12747   */\n    tag_137:\n        /* \"#utility.yul\":12494:12498   */\n      0x00\n        /* \"#utility.yul\":12532:12534   */\n      0x20\n        /* \"#utility.yul\":12521:12530   */\n      dup3\n        /* \"#utility.yul\":12517:12535   */\n      add\n        /* \"#utility.yul\":12509:12535   */\n      swap1\n      pop\n        /* \"#utility.yul\":12581:12590   */\n      dup2\n        /* \"#utility.yul\":12575:12579   */\n      dup2\n        /* \"#utility.yul\":12571:12591   */\n      sub\n        /* \"#utility.yul\":12567:12568   */\n      0x00\n        /* \"#utility.yul\":12556:12565   */\n      dup4\n        /* \"#utility.yul\":12552:12569   */\n      add\n        /* \"#utility.yul\":12545:12592   */\n      mstore\n        /* \"#utility.yul\":12609:12740   */\n      tag_361\n        /* \"#utility.yul\":12735:12739   */\n      dup2\n        /* \"#utility.yul\":12609:12740   */\n      tag_233\n      jump\t// in\n    tag_361:\n        /* \"#utility.yul\":12601:12740   */\n      swap1\n      pop\n        /* \"#utility.yul\":12328:12747   */\n      swap2\n      swap1\n      pop\n      jump\t// out\n        /* \"#utility.yul\":12753:12933   */\n    tag_234:\n        /* \"#utility.yul\":12801:12878   */\n      0x4e487b7100000000000000000000000000000000000000000000000000000000\n        /* \"#utility.yul\":12798:12799   */\n      0x00\n        /* \"#utility.yul\":12791:12879   */\n      mstore\n        /* \"#utility.yul\":12898:12902   */\n      0x11\n        /* \"#utility.yul\":12895:12896   */\n      0x04\n        /* \"#utility.yul\":12888:12903   */\n      mstore\n        /* \"#utility.yul\":12922:12926   */\n      0x24\n        /* \"#utility.yul\":12919:12920   */\n      0x00\n        /* \"#utility.yul\":12912:12927   */\n      revert\n        /* \"#utility.yul\":12939:13172   */\n    tag_140:\n        /* \"#utility.yul\":12978:12981   */\n      0x00\n        /* \"#utility.yul\":13001:13025   */\n      tag_364\n        /* \"#utility.yul\":13019:13024   */\n      dup3\n        /* \"#utility.yul\":13001:13025   */\n      tag_203\n      jump\t// in\n    tag_364:\n        /* \"#utility.yul\":12992:13025   */\n      swap2\n      pop\n        /* \"#utility.yul\":13047:13113   */\n      0xffffffffffffffffffffffffffffffffffffffffffffffffffffffffffffffff\n        /* \"#utility.yul\":13040:13045   */\n      dup3\n        /* \"#utility.yul\":13037:13114   */\n      sub\n        /* \"#utility.yul\":13034:13137   */\n      tag_365\n      jumpi\n        /* \"#utility.yul\":13117:13135   */\n      tag_366\n      tag_234\n      jump\t// in\n    tag_366:\n        /* \"#utility.yul\":13034:13137   */\n    tag_365:\n        /* \"#utility.yul\":13164:13165   */\n      0x01\n        /* \"#utility.yul\":13157:13162   */\n      dup3\n        /* \"#utility.yul\":13153:13166   */\n      add\n        /* \"#utility.yul\":13146:13166   */\n      swap1\n      pop\n        /* \"#utility.yul\":12939:13172   */\n      swap2\n      swap1\n      pop\n      jump\t// out\n        /* \"#utility.yul\":13178:13272   */\n    tag_235:\n        /* \"#utility.yul\":13211:13219   */\n      0x00\n        /* \"#utility.yul\":13259:13264   */\n      dup2\n        /* \"#utility.yul\":13255:13257   */\n      0x60\n        /* \"#utility.yul\":13251:13265   */\n      shl\n        /* \"#utility.yul\":13230:13265   */\n      swap1\n      pop\n        /* \"#utility.yul\":13178:13272   */\n      swap2\n      swap1\n      pop\n      jump\t// out\n        /* \"#utility.yul\":13278:13372   */\n    tag_236:\n        /* \"#utility.yul\":13317:13324   */\n      0x00\n        /* \"#utility.yul\":13346:13366   */\n      tag_369\n        /* \"#utility.yul\":13360:13365   */\n      dup3\n        /* \"#utility.yul\":13346:13366   */\n      tag_235\n      jump\t// in\n    tag_369:\n        /* \"#utility.yul\":13335:13366   */\n      swap1\n      pop\n        /* \"#utility.yul\":13278:13372   */\n      swap2\n      swap1\n      pop\n      jump\t// out\n        /* \"#utility.yul\":13378:13478   */\n    tag_237:\n        /* \"#utility.yul\":13417:13424   */\n      0x00\n        /* \"#utility.yul\":13446:13472   */\n      tag_371\n        /* \"#utility.yul\":13466:13471   */\n      dup3\n        /* \"#utility.yul\":13446:13472   */\n      tag_236\n      jump\t// in\n    tag_371:\n        /* \"#utility.yul\":13435:13472   */\n      swap1\n      pop\n        /* \"#utility.yul\":13378:13478   */\n      swap2\n      swap1\n      pop\n      jump\t// out\n        /* \"#utility.yul\":13484:13641   */\n    tag_238:\n        /* \"#utility.yul\":13589:13634   */\n      tag_373\n        /* \"#utility.yul\":13609:13633   */\n      tag_374\n        /* \"#utility.yul\":13627:13632   */\n      dup3\n        /* \"#utility.yul\":13609:13633   */\n      tag_198\n      jump\t// in\n    tag_374:\n        /* \"#utility.yul\":13589:13634   */\n      tag_237\n      jump\t// in\n    tag_373:\n        /* \"#utility.yul\":13584:13587   */\n      dup3\n        /* \"#utility.yul\":13577:13635   */\n      mstore\n        /* \"#utility.yul\":13484:13641   */\n      pop\n      pop\n      jump\t// out\n        /* \"#utility.yul\":13647:13903   */\n    tag_152:\n        /* \"#utility.yul\":13759:13762   */\n      0x00\n        /* \"#utility.yul\":13774:13849   */\n      tag_376\n        /* \"#utility.yul\":13845:13848   */\n      dup3\n        /* \"#utility.yul\":13836:13842   */\n      dup5\n        /* \"#utility.yul\":13774:13849   */\n      tag_238\n      jump\t// in\n    tag_376:\n        /* \"#utility.yul\":13874:13876   */\n      0x14\n        /* \"#utility.yul\":13869:13872   */\n      dup3\n        /* \"#utility.yul\":13865:13877   */\n      add\n        /* \"#utility.yul\":13858:13877   */\n      swap2\n      pop\n        /* \"#utility.yul\":13894:13897   */\n      dup2\n        /* \"#utility.yul\":13887:13897   */\n      swap1\n      pop\n        /* \"#utility.yul\":13647:13903   */\n      swap3\n      swap2\n      pop\n      pop\n      jump\t// out\n        /* \"#utility.yul\":13909:14089   */\n    tag_239:\n        /* \"#utility.yul\":13957:14034   */\n      0x4e487b7100000000000000000000000000000000000000000000000000000000\n        /* \"#utility.yul\":13954:13955   */\n      0x00\n        /* \"#utility.yul\":13947:14035   */\n      mstore\n        /* \"#utility.yul\":14054:14058   */\n      0x12\n        /* \"#utility.yul\":14051:14052   */\n      0x04\n        /* \"#utility.yul\":14044:14059   */\n      mstore\n        /* \"#utility.yul\":14078:14082   */\n      0x24\n        /* \"#utility.yul\":14075:14076   */\n      0x00\n        /* \"#utility.yul\":14068:14083   */\n      revert\n        /* \"#utility.yul\":14095:14271   */\n    tag_158:\n        /* \"#utility.yul\":14127:14128   */\n      0x00\n        /* \"#utility.yul\":14144:14164   */\n      tag_379\n        /* \"#utility.yul\":14162:14163   */\n      dup3\n        /* \"#utility.yul\":14144:14164   */\n      tag_203\n      jump\t// in\n    tag_379:\n        /* \"#utility.yul\":14139:14164   */\n      swap2\n      pop\n        /* \"#utility.yul\":14178:14198   */\n      tag_380\n        /* \"#utility.yul\":14196:14197   */\n      dup4\n        /* \"#utility.yul\":14178:14198   */\n      tag_203\n      jump\t// in\n    tag_380:\n        /* \"#utility.yul\":14173:14198   */\n      swap3\n      pop\n        /* \"#utility.yul\":14217:14218   */\n      dup3\n        /* \"#utility.yul\":14207:14242   */\n      tag_381\n      jumpi\n        /* \"#utility.yul\":14222:14240   */\n      tag_382\n      tag_239\n      jump\t// in\n    tag_382:\n        /* \"#utility.yul\":14207:14242   */\n    tag_381:\n        /* \"#utility.yul\":14263:14264   */\n      dup3\n        /* \"#utility.yul\":14260:14261   */\n      dup3\n        /* \"#utility.yul\":14256:14265   */\n      mod\n        /* \"#utility.yul\":14251:14265   */\n      swap1\n      pop\n        /* \"#utility.yul\":14095:14271   */\n      swap3\n      swap2\n      pop\n      pop\n      jump\t// out\n        /* \"#utility.yul\":14277:14468   */\n    tag_175:\n        /* \"#utility.yul\":14317:14320   */\n      0x00\n        /* \"#utility.yul\":14336:14356   */\n      tag_384\n        /* \"#utility.yul\":14354:14355   */\n      dup3\n        /* \"#utility.yul\":14336:14356   */\n      tag_203\n      jump\t// in\n    tag_384:\n        /* \"#utility.yul\":14331:14356   */\n      swap2\n      pop\n        /* \"#utility.yul\":14370:14390   */\n      tag_385\n        /* \"#utility.yul\":14388:14389   */\n      dup4\n        /* \"#utility.yul\":14370:14390   */\n      tag_203\n      jump\t// in\n    tag_385:\n        /* \"#utility.yul\":14365:14390   */\n      swap3\n      pop\n        /* \"#utility.yul\":14413:14414   */\n      dup3\n        /* \"#utility.yul\":14410:14411   */\n      dup3\n        /* \"#utility.yul\":14406:14415   */\n      add\n        /* \"#utility.yul\":14399:14415   */\n      swap1\n      pop\n        /* \"#utility.yul\":14434:14437   */\n      dup1\n        /* \"#utility.yul\":14431:14432   */\n      dup3\n        /* \"#utility.yul\":14428:14438   */\n      gt\n        /* \"#utility.yul\":14425:14461   */\n      iszero\n      tag_386\n      jumpi\n        /* \"#utility.yul\":14441:14459   */\n      tag_387\n      tag_234\n      jump\t// in\n    tag_387:\n        /* \"#utility.yul\":14425:14461   */\n    tag_386:\n        /* \"#utility.yul\":14277:14468   */\n      swap3\n      swap2\n      pop\n      pop\n      jump\t// out\n        /* \"#utility.yul\":14474:14659   */\n    tag_188:\n        /* \"#utility.yul\":14514:14515   */\n      0x00\n        /* \"#utility.yul\":14531:14551   */\n      tag_389\n        /* \"#utility.yul\":14549:14550   */\n      dup3\n        /* \"#utility.yul\":14531:14551   */\n      tag_203\n      jump\t// in\n    tag_389:\n        /* \"#utility.yul\":14526:14551   */\n      swap2\n      pop\n        /* \"#utility.yul\":14565:14585   */\n      tag_390\n        /* \"#utility.yul\":14583:14584   */\n      dup4\n        /* \"#utility.yul\":14565:14585   */\n      tag_203\n      jump\t// in\n    tag_390:\n        /* \"#utility.yul\":14560:14585   */\n      swap3\n      pop\n        /* \"#utility.yul\":14604:14605   */\n      dup3\n        /* \"#utility.yul\":14594:14629   */\n      tag_391\n      jumpi\n        /* \"#utility.yul\":14609:14627   */\n      tag_392\n      tag_239\n      jump\t// in\n    tag_392:\n        /* \"#utility.yul\":14594:14629   */\n    tag_391:\n        /* \"#utility.yul\":14651:14652   */\n      dup3\n        /* \"#utility.yul\":14648:14649   */\n      dup3\n        /* \"#utility.yul\":14644:14653   */\n      div\n        /* \"#utility.yul\":14639:14653   */\n      swap1\n      pop\n        /* \"#utility.yul\":14474:14659   */\n      swap3\n      swap2\n      pop\n      pop\n      jump\t// out\n\n    auxdata: 0xa26469706673582212207a9ac4927674b2046652a0eb0f19ef4c30389b11bdb4a962a85efd40ba3b50f164736f6c634300081a0033\n}\n",
				"bytecode": {
					"linkReferences": {},
					"object": "60806040525f80555f600155348015610016575f80fd5b50604051611a61380380611a618339818101604052810190610038919061011d565b8160065f6101000a81548173ffffffffffffffffffffffffffffffffffffffff021916908373ffffffffffffffffffffffffffffffffffffffff1602179055508060075f6101000a81548173ffffffffffffffffffffffffffffffffffffffff021916908373ffffffffffffffffffffffffffffffffffffffff160217905550505061015b565b5f80fd5b5f73ffffffffffffffffffffffffffffffffffffffff82169050919050565b5f6100ec826100c3565b9050919050565b6100fc816100e2565b8114610106575f80fd5b50565b5f81519050610117816100f3565b92915050565b5f8060408385031215610133576101326100bf565b5b5f61014085828601610109565b925050602061015185828601610109565b9150509250929050565b6118f9806101685f395ff3fe608060405234801561000f575f80fd5b50600436106100a7575f3560e01c8063701fd0f11161006f578063701fd0f11461015157806390d5d0c31461016d5780639d7b3f2d1461018b578063b14b28a3146101a9578063e48e0b0b146101c7578063f71d96cb146101e3576100a7565b806307b06720146100ab5780630e1da6c3146100db578063228cb733146100e55780633c6a7f9b146101035780635335672114610121575b5f80fd5b6100c560048036038101906100c091906111c6565b610213565b6040516100d2919061120b565b60405180910390f35b6100e3610230565b005b6100ed61068a565b6040516100fa919061123c565b60405180910390f35b61010b610690565b60405161011891906112b0565b60405180910390f35b61013b600480360381019061013691906111c6565b6106b5565b60405161014891906112e1565b60405180910390f35b61016b60048036038101906101669190611324565b6106ca565b005b610175610aaf565b604051610182919061123c565b60405180910390f35b610193610ab4565b6040516101a0919061136f565b60405180910390f35b6101b1610ad9565b6040516101be919061123c565b60405180910390f35b6101e160048036038101906101dc9190611324565b610adf565b005b6101fd60048036038101906101f891906113b2565b610d17565b60405161020a91906113ec565b60405180910390f35b6003602052805f5260405f205f915054906101000a900460ff1681565b61012c60075f9054906101000a900473ffffffffffffffffffffffffffffffffffffffff1673ffffffffffffffffffffffffffffffffffffffff1663bc06b8cd6040518163ffffffff1660e01b8152600401602060405180830381865afa15801561029d573d5f803e3d5ffd5b505050506040513d601f19601f820116820180604052508101906102c19190611419565b11610301576040517f08c379a00000000000000000000000000000000000000000000000000000000081526004016102f89061149e565b60405180910390fd5b60035f60045f81548110610318576103176114bc565b5b905f5260205f20015f9054906101000a900473ffffffffffffffffffffffffffffffffffffffff1673ffffffffffffffffffffffffffffffffffffffff1673ffffffffffffffffffffffffffffffffffffffff1681526020019081526020015f205f9054906101000a900460ff168015610415575060035f60046001815481106103a5576103a46114bc565b5b905f5260205f20015f9054906101000a900473ffffffffffffffffffffffffffffffffffffffff1673ffffffffffffffffffffffffffffffffffffffff1673ffffffffffffffffffffffffffffffffffffffff1681526020019081526020015f205f9054906101000a900460ff16155b156104a05760045f8154811061042e5761042d6114bc565b5b905f5260205f20015f9054906101000a900473ffffffffffffffffffffffffffffffffffffffff1673ffffffffffffffffffffffffffffffffffffffff166108fc60015490811502906040515f60405180830381858888f1935050505015801561049a573d5f803e3d5ffd5b50610688565b60035f60045f815481106104b7576104b66114bc565b5b905f5260205f20015f9054906101000a900473ffffffffffffffffffffffffffffffffffffffff1673ffffffffffffffffffffffffffffffffffffffff1673ffffffffffffffffffffffffffffffffffffffff1681526020019081526020015f205f9054906101000a900460ff161580156105b4575060035f6004600181548110610545576105446114bc565b5b905f5260205f20015f9054906101000a900473ffffffffffffffffffffffffffffffffffffffff1673ffffffffffffffffffffffffffffffffffffffff1673ffffffffffffffffffffffffffffffffffffffff1681526020019081526020015f205f9054906101000a900460ff165b156106405760046001815481106105ce576105cd6114bc565b5b905f5260205f20015f9054906101000a900473ffffffffffffffffffffffffffffffffffffffff1673ffffffffffffffffffffffffffffffffffffffff166108fc60015490811502906040515f60405180830381858888f1935050505015801561063a573d5f803e3d5ffd5b50610687565b3373ffffffffffffffffffffffffffffffffffffffff166108fc60015490811502906040515f60405180830381858888f19350505050158015610685573d5f803e3d5ffd5b505b5b565b60015481565b60075f9054906101000a900473ffffffffffffffffffffffffffffffffffffffff1681565b6002602052805f5260405f205f915090505481565b60025f541461070e576040517f08c379a000000000000000000000000000000000000000000000000000000000815260040161070590611533565b60405180910390fd5b60035f3373ffffffffffffffffffffffffffffffffffffffff1673ffffffffffffffffffffffffffffffffffffffff1681526020019081526020015f205f9054906101000a900460ff1615610798576040517f08c379a000000000000000000000000000000000000000000000000000000000815260040161078f9061159b565b60405180910390fd5b60025f3373ffffffffffffffffffffffffffffffffffffffff1673ffffffffffffffffffffffffffffffffffffffff1681526020019081526020015f205460065f9054906101000a900473ffffffffffffffffffffffffffffffffffffffff1673ffffffffffffffffffffffffffffffffffffffff16633cf5040a836040518263ffffffff1660e01b815260040161083091906112e1565b602060405180830381865afa15801561084b573d5f803e3d5ffd5b505050506040513d601f19601f8201168201806040525081019061086f91906115cd565b146108af576040517f08c379a00000000000000000000000000000000000000000000000000000000081526004016108a690611642565b60405180910390fd5b600160035f3373ffffffffffffffffffffffffffffffffffffffff1673ffffffffffffffffffffffffffffffffffffffff1681526020019081526020015f205f6101000a81548160ff02191690831515021790555060065f9054906101000a900473ffffffffffffffffffffffffffffffffffffffff1673ffffffffffffffffffffffffffffffffffffffff1663701fd0f1826040518263ffffffff1660e01b815260040161095e91906112e1565b5f604051808303815f87803b158015610975575f80fd5b505af1158015610987573d5f803e3d5ffd5b5050505060035f60045f815481106109a2576109a16114bc565b5b905f5260205f20015f9054906101000a900473ffffffffffffffffffffffffffffffffffffffff1673ffffffffffffffffffffffffffffffffffffffff1673ffffffffffffffffffffffffffffffffffffffff1681526020019081526020015f205f9054906101000a900460ff168015610a9e575060035f6004600181548110610a2f57610a2e6114bc565b5b905f5260205f20015f9054906101000a900473ffffffffffffffffffffffffffffffffffffffff1673ffffffffffffffffffffffffffffffffffffffff1673ffffffffffffffffffffffffffffffffffffffff1681526020019081526020015f205f9054906101000a900460ff165b15610aac57610aab610d52565b5b50565b5f5481565b60065f9054906101000a900473ffffffffffffffffffffffffffffffffffffffff1681565b60055481565b60025f5410610b23576040517f08c379a0000000000000000000000000000000000000000000000000000000008152600401610b1a906116aa565b60405180910390fd5b5f80541115610bd65760045f81548110610b4057610b3f6114bc565b5b905f5260205f20015f9054906101000a900473ffffffffffffffffffffffffffffffffffffffff1673ffffffffffffffffffffffffffffffffffffffff163373ffffffffffffffffffffffffffffffffffffffff1603610bd5576040517f08c379a0000000000000000000000000000000000000000000000000000000008152600401610bcc90611712565b60405180910390fd5b5b8060025f3373ffffffffffffffffffffffffffffffffffffffff1673ffffffffffffffffffffffffffffffffffffffff1681526020019081526020015f2081905550600433908060018154018082558091505060019003905f5260205f20015f9091909190916101000a81548173ffffffffffffffffffffffffffffffffffffffff021916908373ffffffffffffffffffffffffffffffffffffffff1602179055505f80815480929190610c899061175d565b919050555060025f5403610d145760075f9054906101000a900473ffffffffffffffffffffffffffffffffffffffff1673ffffffffffffffffffffffffffffffffffffffff1663a63f7c536040518163ffffffff1660e01b81526004015f604051808303815f87803b158015610cfd575f80fd5b505af1158015610d0f573d5f803e3d5ffd5b505050505b50565b60048181548110610d26575f80fd5b905f5260205f20015f915054906101000a900473ffffffffffffffffffffffffffffffffffffffff1681565b5f600360065f9054906101000a900473ffffffffffffffffffffffffffffffffffffffff1673ffffffffffffffffffffffffffffffffffffffff16633cf5040a60045f81548110610da657610da56114bc565b5b905f5260205f20015f9054906101000a900473ffffffffffffffffffffffffffffffffffffffff16604051602001610dde91906117e9565b604051602081830303815290604052805190602001206040518263ffffffff1660e01b8152600401610e1091906112e1565b602060405180830381865afa158015610e2b573d5f803e3d5ffd5b505050506040513d601f19601f82011682018060405250810190610e4f91906115cd565b5f1c610e5b9190611830565b90505f600360065f9054906101000a900473ffffffffffffffffffffffffffffffffffffffff1673ffffffffffffffffffffffffffffffffffffffff16633cf5040a6004600181548110610eb257610eb16114bc565b5b905f5260205f20015f9054906101000a900473ffffffffffffffffffffffffffffffffffffffff16604051602001610eea91906117e9565b604051602081830303815290604052805190602001206040518263ffffffff1660e01b8152600401610f1c91906112e1565b602060405180830381865afa158015610f37573d5f803e3d5ffd5b505050506040513d601f19601f82011682018060405250810190610f5b91906115cd565b5f1c610f679190611830565b90505f60045f81548110610f7e57610f7d6114bc565b5b905f5260205f20015f9054906101000a900473ffffffffffffffffffffffffffffffffffffffff1690505f6004600181548110610fbe57610fbd6114bc565b5b905f5260205f20015f9054906101000a900473ffffffffffffffffffffffffffffffffffffffff169050826003600186610ff89190611860565b6110029190611830565b03611052578073ffffffffffffffffffffffffffffffffffffffff166108fc60015490811502906040515f60405180830381858888f1935050505015801561104c573d5f803e3d5ffd5b50611162565b8360036001856110629190611860565b61106c9190611830565b036110bc578173ffffffffffffffffffffffffffffffffffffffff166108fc60015490811502906040515f60405180830381858888f193505050501580156110b6573d5f803e3d5ffd5b50611161565b8173ffffffffffffffffffffffffffffffffffffffff166108fc60026001546110e59190611893565b90811502906040515f60405180830381858888f1935050505015801561110d573d5f803e3d5ffd5b508073ffffffffffffffffffffffffffffffffffffffff166108fc60026001546111379190611893565b90811502906040515f60405180830381858888f1935050505015801561115f573d5f803e3d5ffd5b505b5b50505050565b5f80fd5b5f73ffffffffffffffffffffffffffffffffffffffff82169050919050565b5f6111958261116c565b9050919050565b6111a58161118b565b81146111af575f80fd5b50565b5f813590506111c08161119c565b92915050565b5f602082840312156111db576111da611168565b5b5f6111e8848285016111b2565b91505092915050565b5f8115159050919050565b611205816111f1565b82525050565b5f60208201905061121e5f8301846111fc565b92915050565b5f819050919050565b61123681611224565b82525050565b5f60208201905061124f5f83018461122d565b92915050565b5f819050919050565b5f61127861127361126e8461116c565b611255565b61116c565b9050919050565b5f6112898261125e565b9050919050565b5f61129a8261127f565b9050919050565b6112aa81611290565b82525050565b5f6020820190506112c35f8301846112a1565b92915050565b5f819050919050565b6112db816112c9565b82525050565b5f6020820190506112f45f8301846112d2565b92915050565b611303816112c9565b811461130d575f80fd5b50565b5f8135905061131e816112fa565b92915050565b5f6020828403121561133957611338611168565b5b5f61134684828501611310565b91505092915050565b5f6113598261127f565b9050919050565b6113698161134f565b82525050565b5f6020820190506113825f830184611360565b92915050565b61139181611224565b811461139b575f80fd5b50565b5f813590506113ac81611388565b92915050565b5f602082840312156113c7576113c6611168565b5b5f6113d48482850161139e565b91505092915050565b6113e68161118b565b82525050565b5f6020820190506113ff5f8301846113dd565b92915050565b5f8151905061141381611388565b92915050565b5f6020828403121561142e5761142d611168565b5b5f61143b84828501611405565b91505092915050565b5f82825260208201905092915050565b7f54696d65206e6f742065787069726564000000000000000000000000000000005f82015250565b5f611488601083611444565b915061149382611454565b602082019050919050565b5f6020820190508181035f8301526114b58161147c565b9050919050565b7f4e487b71000000000000000000000000000000000000000000000000000000005f52603260045260245ffd5b7f4e6f7420656e6f75676820706c617965727300000000000000000000000000005f82015250565b5f61151d601283611444565b9150611528826114e9565b602082019050919050565b5f6020820190508181035f83015261154a81611511565b9050919050565b7f416c72656164792072657665616c6564000000000000000000000000000000005f82015250565b5f611585601083611444565b915061159082611551565b602082019050919050565b5f6020820190508181035f8301526115b281611579565b9050919050565b5f815190506115c7816112fa565b92915050565b5f602082840312156115e2576115e1611168565b5b5f6115ef848285016115b9565b91505092915050565b7f496e76616c69642072657665616c0000000000000000000000000000000000005f82015250565b5f61162c600e83611444565b9150611637826115f8565b602082019050919050565b5f6020820190508181035f83015261165981611620565b9050919050565b7f47616d652069732066756c6c00000000000000000000000000000000000000005f82015250565b5f611694600c83611444565b915061169f82611660565b602082019050919050565b5f6020820190508181035f8301526116c181611688565b9050919050565b7f506c6179657220616c72656164792072656769737465726564000000000000005f82015250565b5f6116fc601983611444565b9150611707826116c8565b602082019050919050565b5f6020820190508181035f830152611729816116f0565b9050919050565b7f4e487b71000000000000000000000000000000000000000000000000000000005f52601160045260245ffd5b5f61176782611224565b91507fffffffffffffffffffffffffffffffffffffffffffffffffffffffffffffffff820361179957611798611730565b5b600182019050919050565b5f8160601b9050919050565b5f6117ba826117a4565b9050919050565b5f6117cb826117b0565b9050919050565b6117e36117de8261118b565b6117c1565b82525050565b5f6117f482846117d2565b60148201915081905092915050565b7f4e487b71000000000000000000000000000000000000000000000000000000005f52601260045260245ffd5b5f61183a82611224565b915061184583611224565b92508261185557611854611803565b5b828206905092915050565b5f61186a82611224565b915061187583611224565b925082820190508082111561188d5761188c611730565b5b92915050565b5f61189d82611224565b91506118a883611224565b9250826118b8576118b7611803565b5b82820490509291505056fea26469706673582212207a9ac4927674b2046652a0eb0f19ef4c30389b11bdb4a962a85efd40ba3b50f164736f6c634300081a0033",
					"opcodes": "PUSH1 0x80 PUSH1 0x40 MSTORE PUSH0 DUP1 SSTORE PUSH0 PUSH1 0x1 SSTORE CALLVALUE DUP1 ISZERO PUSH2 0x16 JUMPI PUSH0 DUP1 REVERT JUMPDEST POP PUSH1 0x40 MLOAD PUSH2 0x1A61 CODESIZE SUB DUP1 PUSH2 0x1A61 DUP4 CODECOPY DUP2 DUP2 ADD PUSH1 0x40 MSTORE DUP2 ADD SWAP1 PUSH2 0x38 SWAP2 SWAP1 PUSH2 0x11D JUMP JUMPDEST DUP2 PUSH1 0x6 PUSH0 PUSH2 0x100 EXP DUP2 SLOAD DUP2 PUSH20 0xFFFFFFFFFFFFFFFFFFFFFFFFFFFFFFFFFFFFFFFF MUL NOT AND SWAP1 DUP4 PUSH20 0xFFFFFFFFFFFFFFFFFFFFFFFFFFFFFFFFFFFFFFFF AND MUL OR SWAP1 SSTORE POP DUP1 PUSH1 0x7 PUSH0 PUSH2 0x100 EXP DUP2 SLOAD DUP2 PUSH20 0xFFFFFFFFFFFFFFFFFFFFFFFFFFFFFFFFFFFFFFFF MUL NOT AND SWAP1 DUP4 PUSH20 0xFFFFFFFFFFFFFFFFFFFFFFFFFFFFFFFFFFFFFFFF AND MUL OR SWAP1 SSTORE POP POP POP PUSH2 0x15B JUMP JUMPDEST PUSH0 DUP1 REVERT JUMPDEST PUSH0 PUSH20 0xFFFFFFFFFFFFFFFFFFFFFFFFFFFFFFFFFFFFFFFF DUP3 AND SWAP1 POP SWAP2 SWAP1 POP JUMP JUMPDEST PUSH0 PUSH2 0xEC DUP3 PUSH2 0xC3 JUMP JUMPDEST SWAP1 POP SWAP2 SWAP1 POP JUMP JUMPDEST PUSH2 0xFC DUP2 PUSH2 0xE2 JUMP JUMPDEST DUP2 EQ PUSH2 0x106 JUMPI PUSH0 DUP1 REVERT JUMPDEST POP JUMP JUMPDEST PUSH0 DUP2 MLOAD SWAP1 POP PUSH2 0x117 DUP2 PUSH2 0xF3 JUMP JUMPDEST SWAP3 SWAP2 POP POP JUMP JUMPDEST PUSH0 DUP1 PUSH1 0x40 DUP4 DUP6 SUB SLT ISZERO PUSH2 0x133 JUMPI PUSH2 0x132 PUSH2 0xBF JUMP JUMPDEST JUMPDEST PUSH0 PUSH2 0x140 DUP6 DUP3 DUP7 ADD PUSH2 0x109 JUMP JUMPDEST SWAP3 POP POP PUSH1 0x20 PUSH2 0x151 DUP6 DUP3 DUP7 ADD PUSH2 0x109 JUMP JUMPDEST SWAP2 POP POP SWAP3 POP SWAP3 SWAP1 POP JUMP JUMPDEST PUSH2 0x18F9 DUP1 PUSH2 0x168 PUSH0 CODECOPY PUSH0 RETURN INVALID PUSH1 0x80 PUSH1 0x40 MSTORE CALLVALUE DUP1 ISZERO PUSH2 0xF JUMPI PUSH0 DUP1 REVERT JUMPDEST POP PUSH1 0x4 CALLDATASIZE LT PUSH2 0xA7 JUMPI PUSH0 CALLDATALOAD PUSH1 0xE0 SHR DUP1 PUSH4 0x701FD0F1 GT PUSH2 0x6F JUMPI DUP1 PUSH4 0x701FD0F1 EQ PUSH2 0x151 JUMPI DUP1 PUSH4 0x90D5D0C3 EQ PUSH2 0x16D JUMPI DUP1 PUSH4 0x9D7B3F2D EQ PUSH2 0x18B JUMPI DUP1 PUSH4 0xB14B28A3 EQ PUSH2 0x1A9 JUMPI DUP1 PUSH4 0xE48E0B0B EQ PUSH2 0x1C7 JUMPI DUP1 PUSH4 0xF71D96CB EQ PUSH2 0x1E3 JUMPI PUSH2 0xA7 JUMP JUMPDEST DUP1 PUSH4 0x7B06720 EQ PUSH2 0xAB JUMPI DUP1 PUSH4 0xE1DA6C3 EQ PUSH2 0xDB JUMPI DUP1 PUSH4 0x228CB733 EQ PUSH2 0xE5 JUMPI DUP1 PUSH4 0x3C6A7F9B EQ PUSH2 0x103 JUMPI DUP1 PUSH4 0x53356721 EQ PUSH2 0x121 JUMPI JUMPDEST PUSH0 DUP1 REVERT JUMPDEST PUSH2 0xC5 PUSH1 0x4 DUP1 CALLDATASIZE SUB DUP2 ADD SWAP1 PUSH2 0xC0 SWAP2 SWAP1 PUSH2 0x11C6 JUMP JUMPDEST PUSH2 0x213 JUMP JUMPDEST PUSH1 0x40 MLOAD PUSH2 0xD2 SWAP2 SWAP1 PUSH2 0x120B JUMP JUMPDEST PUSH1 0x40 MLOAD DUP1 SWAP2 SUB SWAP1 RETURN JUMPDEST PUSH2 0xE3 PUSH2 0x230 JUMP JUMPDEST STOP JUMPDEST PUSH2 0xED PUSH2 0x68A JUMP JUMPDEST PUSH1 0x40 MLOAD PUSH2 0xFA SWAP2 SWAP1 PUSH2 0x123C JUMP JUMPDEST PUSH1 0x40 MLOAD DUP1 SWAP2 SUB SWAP1 RETURN JUMPDEST PUSH2 0x10B PUSH2 0x690 JUMP JUMPDEST PUSH1 0x40 MLOAD PUSH2 0x118 SWAP2 SWAP1 PUSH2 0x12B0 JUMP JUMPDEST PUSH1 0x40 MLOAD DUP1 SWAP2 SUB SWAP1 RETURN JUMPDEST PUSH2 0x13B PUSH1 0x4 DUP1 CALLDATASIZE SUB DUP2 ADD SWAP1 PUSH2 0x136 SWAP2 SWAP1 PUSH2 0x11C6 JUMP JUMPDEST PUSH2 0x6B5 JUMP JUMPDEST PUSH1 0x40 MLOAD PUSH2 0x148 SWAP2 SWAP1 PUSH2 0x12E1 JUMP JUMPDEST PUSH1 0x40 MLOAD DUP1 SWAP2 SUB SWAP1 RETURN JUMPDEST PUSH2 0x16B PUSH1 0x4 DUP1 CALLDATASIZE SUB DUP2 ADD SWAP1 PUSH2 0x166 SWAP2 SWAP1 PUSH2 0x1324 JUMP JUMPDEST PUSH2 0x6CA JUMP JUMPDEST STOP JUMPDEST PUSH2 0x175 PUSH2 0xAAF JUMP JUMPDEST PUSH1 0x40 MLOAD PUSH2 0x182 SWAP2 SWAP1 PUSH2 0x123C JUMP JUMPDEST PUSH1 0x40 MLOAD DUP1 SWAP2 SUB SWAP1 RETURN JUMPDEST PUSH2 0x193 PUSH2 0xAB4 JUMP JUMPDEST PUSH1 0x40 MLOAD PUSH2 0x1A0 SWAP2 SWAP1 PUSH2 0x136F JUMP JUMPDEST PUSH1 0x40 MLOAD DUP1 SWAP2 SUB SWAP1 RETURN JUMPDEST PUSH2 0x1B1 PUSH2 0xAD9 JUMP JUMPDEST PUSH1 0x40 MLOAD PUSH2 0x1BE SWAP2 SWAP1 PUSH2 0x123C JUMP JUMPDEST PUSH1 0x40 MLOAD DUP1 SWAP2 SUB SWAP1 RETURN JUMPDEST PUSH2 0x1E1 PUSH1 0x4 DUP1 CALLDATASIZE SUB DUP2 ADD SWAP1 PUSH2 0x1DC SWAP2 SWAP1 PUSH2 0x1324 JUMP JUMPDEST PUSH2 0xADF JUMP JUMPDEST STOP JUMPDEST PUSH2 0x1FD PUSH1 0x4 DUP1 CALLDATASIZE SUB DUP2 ADD SWAP1 PUSH2 0x1F8 SWAP2 SWAP1 PUSH2 0x13B2 JUMP JUMPDEST PUSH2 0xD17 JUMP JUMPDEST PUSH1 0x40 MLOAD PUSH2 0x20A SWAP2 SWAP1 PUSH2 0x13EC JUMP JUMPDEST PUSH1 0x40 MLOAD DUP1 SWAP2 SUB SWAP1 RETURN JUMPDEST PUSH1 0x3 PUSH1 0x20 MSTORE DUP1 PUSH0 MSTORE PUSH1 0x40 PUSH0 KECCAK256 PUSH0 SWAP2 POP SLOAD SWAP1 PUSH2 0x100 EXP SWAP1 DIV PUSH1 0xFF AND DUP2 JUMP JUMPDEST PUSH2 0x12C PUSH1 0x7 PUSH0 SWAP1 SLOAD SWAP1 PUSH2 0x100 EXP SWAP1 DIV PUSH20 0xFFFFFFFFFFFFFFFFFFFFFFFFFFFFFFFFFFFFFFFF AND PUSH20 0xFFFFFFFFFFFFFFFFFFFFFFFFFFFFFFFFFFFFFFFF AND PUSH4 0xBC06B8CD PUSH1 0x40 MLOAD DUP2 PUSH4 0xFFFFFFFF AND PUSH1 0xE0 SHL DUP2 MSTORE PUSH1 0x4 ADD PUSH1 0x20 PUSH1 0x40 MLOAD DUP1 DUP4 SUB DUP2 DUP7 GAS STATICCALL ISZERO DUP1 ISZERO PUSH2 0x29D JUMPI RETURNDATASIZE PUSH0 DUP1 RETURNDATACOPY RETURNDATASIZE PUSH0 REVERT JUMPDEST POP POP POP POP PUSH1 0x40 MLOAD RETURNDATASIZE PUSH1 0x1F NOT PUSH1 0x1F DUP3 ADD AND DUP3 ADD DUP1 PUSH1 0x40 MSTORE POP DUP2 ADD SWAP1 PUSH2 0x2C1 SWAP2 SWAP1 PUSH2 0x1419 JUMP JUMPDEST GT PUSH2 0x301 JUMPI PUSH1 0x40 MLOAD PUSH32 0x8C379A000000000000000000000000000000000000000000000000000000000 DUP2 MSTORE PUSH1 0x4 ADD PUSH2 0x2F8 SWAP1 PUSH2 0x149E JUMP JUMPDEST PUSH1 0x40 MLOAD DUP1 SWAP2 SUB SWAP1 REVERT JUMPDEST PUSH1 0x3 PUSH0 PUSH1 0x4 PUSH0 DUP2 SLOAD DUP2 LT PUSH2 0x318 JUMPI PUSH2 0x317 PUSH2 0x14BC JUMP JUMPDEST JUMPDEST SWAP1 PUSH0 MSTORE PUSH1 0x20 PUSH0 KECCAK256 ADD PUSH0 SWAP1 SLOAD SWAP1 PUSH2 0x100 EXP SWAP1 DIV PUSH20 0xFFFFFFFFFFFFFFFFFFFFFFFFFFFFFFFFFFFFFFFF AND PUSH20 0xFFFFFFFFFFFFFFFFFFFFFFFFFFFFFFFFFFFFFFFF AND PUSH20 0xFFFFFFFFFFFFFFFFFFFFFFFFFFFFFFFFFFFFFFFF AND DUP2 MSTORE PUSH1 0x20 ADD SWAP1 DUP2 MSTORE PUSH1 0x20 ADD PUSH0 KECCAK256 PUSH0 SWAP1 SLOAD SWAP1 PUSH2 0x100 EXP SWAP1 DIV PUSH1 0xFF AND DUP1 ISZERO PUSH2 0x415 JUMPI POP PUSH1 0x3 PUSH0 PUSH1 0x4 PUSH1 0x1 DUP2 SLOAD DUP2 LT PUSH2 0x3A5 JUMPI PUSH2 0x3A4 PUSH2 0x14BC JUMP JUMPDEST JUMPDEST SWAP1 PUSH0 MSTORE PUSH1 0x20 PUSH0 KECCAK256 ADD PUSH0 SWAP1 SLOAD SWAP1 PUSH2 0x100 EXP SWAP1 DIV PUSH20 0xFFFFFFFFFFFFFFFFFFFFFFFFFFFFFFFFFFFFFFFF AND PUSH20 0xFFFFFFFFFFFFFFFFFFFFFFFFFFFFFFFFFFFFFFFF AND PUSH20 0xFFFFFFFFFFFFFFFFFFFFFFFFFFFFFFFFFFFFFFFF AND DUP2 MSTORE PUSH1 0x20 ADD SWAP1 DUP2 MSTORE PUSH1 0x20 ADD PUSH0 KECCAK256 PUSH0 SWAP1 SLOAD SWAP1 PUSH2 0x100 EXP SWAP1 DIV PUSH1 0xFF AND ISZERO JUMPDEST ISZERO PUSH2 0x4A0 JUMPI PUSH1 0x4 PUSH0 DUP2 SLOAD DUP2 LT PUSH2 0x42E JUMPI PUSH2 0x42D PUSH2 0x14BC JUMP JUMPDEST JUMPDEST SWAP1 PUSH0 MSTORE PUSH1 0x20 PUSH0 KECCAK256 ADD PUSH0 SWAP1 SLOAD SWAP1 PUSH2 0x100 EXP SWAP1 DIV PUSH20 0xFFFFFFFFFFFFFFFFFFFFFFFFFFFFFFFFFFFFFFFF AND PUSH20 0xFFFFFFFFFFFFFFFFFFFFFFFFFFFFFFFFFFFFFFFF AND PUSH2 0x8FC PUSH1 0x1 SLOAD SWAP1 DUP2 ISZERO MUL SWAP1 PUSH1 0x40 MLOAD PUSH0 PUSH1 0x40 MLOAD DUP1 DUP4 SUB DUP2 DUP6 DUP9 DUP9 CALL SWAP4 POP POP POP POP ISZERO DUP1 ISZERO PUSH2 0x49A JUMPI RETURNDATASIZE PUSH0 DUP1 RETURNDATACOPY RETURNDATASIZE PUSH0 REVERT JUMPDEST POP PUSH2 0x688 JUMP JUMPDEST PUSH1 0x3 PUSH0 PUSH1 0x4 PUSH0 DUP2 SLOAD DUP2 LT PUSH2 0x4B7 JUMPI PUSH2 0x4B6 PUSH2 0x14BC JUMP JUMPDEST JUMPDEST SWAP1 PUSH0 MSTORE PUSH1 0x20 PUSH0 KECCAK256 ADD PUSH0 SWAP1 SLOAD SWAP1 PUSH2 0x100 EXP SWAP1 DIV PUSH20 0xFFFFFFFFFFFFFFFFFFFFFFFFFFFFFFFFFFFFFFFF AND PUSH20 0xFFFFFFFFFFFFFFFFFFFFFFFFFFFFFFFFFFFFFFFF AND PUSH20 0xFFFFFFFFFFFFFFFFFFFFFFFFFFFFFFFFFFFFFFFF AND DUP2 MSTORE PUSH1 0x20 ADD SWAP1 DUP2 MSTORE PUSH1 0x20 ADD PUSH0 KECCAK256 PUSH0 SWAP1 SLOAD SWAP1 PUSH2 0x100 EXP SWAP1 DIV PUSH1 0xFF AND ISZERO DUP1 ISZERO PUSH2 0x5B4 JUMPI POP PUSH1 0x3 PUSH0 PUSH1 0x4 PUSH1 0x1 DUP2 SLOAD DUP2 LT PUSH2 0x545 JUMPI PUSH2 0x544 PUSH2 0x14BC JUMP JUMPDEST JUMPDEST SWAP1 PUSH0 MSTORE PUSH1 0x20 PUSH0 KECCAK256 ADD PUSH0 SWAP1 SLOAD SWAP1 PUSH2 0x100 EXP SWAP1 DIV PUSH20 0xFFFFFFFFFFFFFFFFFFFFFFFFFFFFFFFFFFFFFFFF AND PUSH20 0xFFFFFFFFFFFFFFFFFFFFFFFFFFFFFFFFFFFFFFFF AND PUSH20 0xFFFFFFFFFFFFFFFFFFFFFFFFFFFFFFFFFFFFFFFF AND DUP2 MSTORE PUSH1 0x20 ADD SWAP1 DUP2 MSTORE PUSH1 0x20 ADD PUSH0 KECCAK256 PUSH0 SWAP1 SLOAD SWAP1 PUSH2 0x100 EXP SWAP1 DIV PUSH1 0xFF AND JUMPDEST ISZERO PUSH2 0x640 JUMPI PUSH1 0x4 PUSH1 0x1 DUP2 SLOAD DUP2 LT PUSH2 0x5CE JUMPI PUSH2 0x5CD PUSH2 0x14BC JUMP JUMPDEST JUMPDEST SWAP1 PUSH0 MSTORE PUSH1 0x20 PUSH0 KECCAK256 ADD PUSH0 SWAP1 SLOAD SWAP1 PUSH2 0x100 EXP SWAP1 DIV PUSH20 0xFFFFFFFFFFFFFFFFFFFFFFFFFFFFFFFFFFFFFFFF AND PUSH20 0xFFFFFFFFFFFFFFFFFFFFFFFFFFFFFFFFFFFFFFFF AND PUSH2 0x8FC PUSH1 0x1 SLOAD SWAP1 DUP2 ISZERO MUL SWAP1 PUSH1 0x40 MLOAD PUSH0 PUSH1 0x40 MLOAD DUP1 DUP4 SUB DUP2 DUP6 DUP9 DUP9 CALL SWAP4 POP POP POP POP ISZERO DUP1 ISZERO PUSH2 0x63A JUMPI RETURNDATASIZE PUSH0 DUP1 RETURNDATACOPY RETURNDATASIZE PUSH0 REVERT JUMPDEST POP PUSH2 0x687 JUMP JUMPDEST CALLER PUSH20 0xFFFFFFFFFFFFFFFFFFFFFFFFFFFFFFFFFFFFFFFF AND PUSH2 0x8FC PUSH1 0x1 SLOAD SWAP1 DUP2 ISZERO MUL SWAP1 PUSH1 0x40 MLOAD PUSH0 PUSH1 0x40 MLOAD DUP1 DUP4 SUB DUP2 DUP6 DUP9 DUP9 CALL SWAP4 POP POP POP POP ISZERO DUP1 ISZERO PUSH2 0x685 JUMPI RETURNDATASIZE PUSH0 DUP1 RETURNDATACOPY RETURNDATASIZE PUSH0 REVERT JUMPDEST POP JUMPDEST JUMPDEST JUMP JUMPDEST PUSH1 0x1 SLOAD DUP2 JUMP JUMPDEST PUSH1 0x7 PUSH0 SWAP1 SLOAD SWAP1 PUSH2 0x100 EXP SWAP1 DIV PUSH20 0xFFFFFFFFFFFFFFFFFFFFFFFFFFFFFFFFFFFFFFFF AND DUP2 JUMP JUMPDEST PUSH1 0x2 PUSH1 0x20 MSTORE DUP1 PUSH0 MSTORE PUSH1 0x40 PUSH0 KECCAK256 PUSH0 SWAP2 POP SWAP1 POP SLOAD DUP2 JUMP JUMPDEST PUSH1 0x2 PUSH0 SLOAD EQ PUSH2 0x70E JUMPI PUSH1 0x40 MLOAD PUSH32 0x8C379A000000000000000000000000000000000000000000000000000000000 DUP2 MSTORE PUSH1 0x4 ADD PUSH2 0x705 SWAP1 PUSH2 0x1533 JUMP JUMPDEST PUSH1 0x40 MLOAD DUP1 SWAP2 SUB SWAP1 REVERT JUMPDEST PUSH1 0x3 PUSH0 CALLER PUSH20 0xFFFFFFFFFFFFFFFFFFFFFFFFFFFFFFFFFFFFFFFF AND PUSH20 0xFFFFFFFFFFFFFFFFFFFFFFFFFFFFFFFFFFFFFFFF AND DUP2 MSTORE PUSH1 0x20 ADD SWAP1 DUP2 MSTORE PUSH1 0x20 ADD PUSH0 KECCAK256 PUSH0 SWAP1 SLOAD SWAP1 PUSH2 0x100 EXP SWAP1 DIV PUSH1 0xFF AND ISZERO PUSH2 0x798 JUMPI PUSH1 0x40 MLOAD PUSH32 0x8C379A000000000000000000000000000000000000000000000000000000000 DUP2 MSTORE PUSH1 0x4 ADD PUSH2 0x78F SWAP1 PUSH2 0x159B JUMP JUMPDEST PUSH1 0x40 MLOAD DUP1 SWAP2 SUB SWAP1 REVERT JUMPDEST PUSH1 0x2 PUSH0 CALLER PUSH20 0xFFFFFFFFFFFFFFFFFFFFFFFFFFFFFFFFFFFFFFFF AND PUSH20 0xFFFFFFFFFFFFFFFFFFFFFFFFFFFFFFFFFFFFFFFF AND DUP2 MSTORE PUSH1 0x20 ADD SWAP1 DUP2 MSTORE PUSH1 0x20 ADD PUSH0 KECCAK256 SLOAD PUSH1 0x6 PUSH0 SWAP1 SLOAD SWAP1 PUSH2 0x100 EXP SWAP1 DIV PUSH20 0xFFFFFFFFFFFFFFFFFFFFFFFFFFFFFFFFFFFFFFFF AND PUSH20 0xFFFFFFFFFFFFFFFFFFFFFFFFFFFFFFFFFFFFFFFF AND PUSH4 0x3CF5040A DUP4 PUSH1 0x40 MLOAD DUP3 PUSH4 0xFFFFFFFF AND PUSH1 0xE0 SHL DUP2 MSTORE PUSH1 0x4 ADD PUSH2 0x830 SWAP2 SWAP1 PUSH2 0x12E1 JUMP JUMPDEST PUSH1 0x20 PUSH1 0x40 MLOAD DUP1 DUP4 SUB DUP2 DUP7 GAS STATICCALL ISZERO DUP1 ISZERO PUSH2 0x84B JUMPI RETURNDATASIZE PUSH0 DUP1 RETURNDATACOPY RETURNDATASIZE PUSH0 REVERT JUMPDEST POP POP POP POP PUSH1 0x40 MLOAD RETURNDATASIZE PUSH1 0x1F NOT PUSH1 0x1F DUP3 ADD AND DUP3 ADD DUP1 PUSH1 0x40 MSTORE POP DUP2 ADD SWAP1 PUSH2 0x86F SWAP2 SWAP1 PUSH2 0x15CD JUMP JUMPDEST EQ PUSH2 0x8AF JUMPI PUSH1 0x40 MLOAD PUSH32 0x8C379A000000000000000000000000000000000000000000000000000000000 DUP2 MSTORE PUSH1 0x4 ADD PUSH2 0x8A6 SWAP1 PUSH2 0x1642 JUMP JUMPDEST PUSH1 0x40 MLOAD DUP1 SWAP2 SUB SWAP1 REVERT JUMPDEST PUSH1 0x1 PUSH1 0x3 PUSH0 CALLER PUSH20 0xFFFFFFFFFFFFFFFFFFFFFFFFFFFFFFFFFFFFFFFF AND PUSH20 0xFFFFFFFFFFFFFFFFFFFFFFFFFFFFFFFFFFFFFFFF AND DUP2 MSTORE PUSH1 0x20 ADD SWAP1 DUP2 MSTORE PUSH1 0x20 ADD PUSH0 KECCAK256 PUSH0 PUSH2 0x100 EXP DUP2 SLOAD DUP2 PUSH1 0xFF MUL NOT AND SWAP1 DUP4 ISZERO ISZERO MUL OR SWAP1 SSTORE POP PUSH1 0x6 PUSH0 SWAP1 SLOAD SWAP1 PUSH2 0x100 EXP SWAP1 DIV PUSH20 0xFFFFFFFFFFFFFFFFFFFFFFFFFFFFFFFFFFFFFFFF AND PUSH20 0xFFFFFFFFFFFFFFFFFFFFFFFFFFFFFFFFFFFFFFFF AND PUSH4 0x701FD0F1 DUP3 PUSH1 0x40 MLOAD DUP3 PUSH4 0xFFFFFFFF AND PUSH1 0xE0 SHL DUP2 MSTORE PUSH1 0x4 ADD PUSH2 0x95E SWAP2 SWAP1 PUSH2 0x12E1 JUMP JUMPDEST PUSH0 PUSH1 0x40 MLOAD DUP1 DUP4 SUB DUP2 PUSH0 DUP8 DUP1 EXTCODESIZE ISZERO DUP1 ISZERO PUSH2 0x975 JUMPI PUSH0 DUP1 REVERT JUMPDEST POP GAS CALL ISZERO DUP1 ISZERO PUSH2 0x987 JUMPI RETURNDATASIZE PUSH0 DUP1 RETURNDATACOPY RETURNDATASIZE PUSH0 REVERT JUMPDEST POP POP POP POP PUSH1 0x3 PUSH0 PUSH1 0x4 PUSH0 DUP2 SLOAD DUP2 LT PUSH2 0x9A2 JUMPI PUSH2 0x9A1 PUSH2 0x14BC JUMP JUMPDEST JUMPDEST SWAP1 PUSH0 MSTORE PUSH1 0x20 PUSH0 KECCAK256 ADD PUSH0 SWAP1 SLOAD SWAP1 PUSH2 0x100 EXP SWAP1 DIV PUSH20 0xFFFFFFFFFFFFFFFFFFFFFFFFFFFFFFFFFFFFFFFF AND PUSH20 0xFFFFFFFFFFFFFFFFFFFFFFFFFFFFFFFFFFFFFFFF AND PUSH20 0xFFFFFFFFFFFFFFFFFFFFFFFFFFFFFFFFFFFFFFFF AND DUP2 MSTORE PUSH1 0x20 ADD SWAP1 DUP2 MSTORE PUSH1 0x20 ADD PUSH0 KECCAK256 PUSH0 SWAP1 SLOAD SWAP1 PUSH2 0x100 EXP SWAP1 DIV PUSH1 0xFF AND DUP1 ISZERO PUSH2 0xA9E JUMPI POP PUSH1 0x3 PUSH0 PUSH1 0x4 PUSH1 0x1 DUP2 SLOAD DUP2 LT PUSH2 0xA2F JUMPI PUSH2 0xA2E PUSH2 0x14BC JUMP JUMPDEST JUMPDEST SWAP1 PUSH0 MSTORE PUSH1 0x20 PUSH0 KECCAK256 ADD PUSH0 SWAP1 SLOAD SWAP1 PUSH2 0x100 EXP SWAP1 DIV PUSH20 0xFFFFFFFFFFFFFFFFFFFFFFFFFFFFFFFFFFFFFFFF AND PUSH20 0xFFFFFFFFFFFFFFFFFFFFFFFFFFFFFFFFFFFFFFFF AND PUSH20 0xFFFFFFFFFFFFFFFFFFFFFFFFFFFFFFFFFFFFFFFF AND DUP2 MSTORE PUSH1 0x20 ADD SWAP1 DUP2 MSTORE PUSH1 0x20 ADD PUSH0 KECCAK256 PUSH0 SWAP1 SLOAD SWAP1 PUSH2 0x100 EXP SWAP1 DIV PUSH1 0xFF AND JUMPDEST ISZERO PUSH2 0xAAC JUMPI PUSH2 0xAAB PUSH2 0xD52 JUMP JUMPDEST JUMPDEST POP JUMP JUMPDEST PUSH0 SLOAD DUP2 JUMP JUMPDEST PUSH1 0x6 PUSH0 SWAP1 SLOAD SWAP1 PUSH2 0x100 EXP SWAP1 DIV PUSH20 0xFFFFFFFFFFFFFFFFFFFFFFFFFFFFFFFFFFFFFFFF AND DUP2 JUMP JUMPDEST PUSH1 0x5 SLOAD DUP2 JUMP JUMPDEST PUSH1 0x2 PUSH0 SLOAD LT PUSH2 0xB23 JUMPI PUSH1 0x40 MLOAD PUSH32 0x8C379A000000000000000000000000000000000000000000000000000000000 DUP2 MSTORE PUSH1 0x4 ADD PUSH2 0xB1A SWAP1 PUSH2 0x16AA JUMP JUMPDEST PUSH1 0x40 MLOAD DUP1 SWAP2 SUB SWAP1 REVERT JUMPDEST PUSH0 DUP1 SLOAD GT ISZERO PUSH2 0xBD6 JUMPI PUSH1 0x4 PUSH0 DUP2 SLOAD DUP2 LT PUSH2 0xB40 JUMPI PUSH2 0xB3F PUSH2 0x14BC JUMP JUMPDEST JUMPDEST SWAP1 PUSH0 MSTORE PUSH1 0x20 PUSH0 KECCAK256 ADD PUSH0 SWAP1 SLOAD SWAP1 PUSH2 0x100 EXP SWAP1 DIV PUSH20 0xFFFFFFFFFFFFFFFFFFFFFFFFFFFFFFFFFFFFFFFF AND PUSH20 0xFFFFFFFFFFFFFFFFFFFFFFFFFFFFFFFFFFFFFFFF AND CALLER PUSH20 0xFFFFFFFFFFFFFFFFFFFFFFFFFFFFFFFFFFFFFFFF AND SUB PUSH2 0xBD5 JUMPI PUSH1 0x40 MLOAD PUSH32 0x8C379A000000000000000000000000000000000000000000000000000000000 DUP2 MSTORE PUSH1 0x4 ADD PUSH2 0xBCC SWAP1 PUSH2 0x1712 JUMP JUMPDEST PUSH1 0x40 MLOAD DUP1 SWAP2 SUB SWAP1 REVERT JUMPDEST JUMPDEST DUP1 PUSH1 0x2 PUSH0 CALLER PUSH20 0xFFFFFFFFFFFFFFFFFFFFFFFFFFFFFFFFFFFFFFFF AND PUSH20 0xFFFFFFFFFFFFFFFFFFFFFFFFFFFFFFFFFFFFFFFF AND DUP2 MSTORE PUSH1 0x20 ADD SWAP1 DUP2 MSTORE PUSH1 0x20 ADD PUSH0 KECCAK256 DUP2 SWAP1 SSTORE POP PUSH1 0x4 CALLER SWAP1 DUP1 PUSH1 0x1 DUP2 SLOAD ADD DUP1 DUP3 SSTORE DUP1 SWAP2 POP POP PUSH1 0x1 SWAP1 SUB SWAP1 PUSH0 MSTORE PUSH1 0x20 PUSH0 KECCAK256 ADD PUSH0 SWAP1 SWAP2 SWAP1 SWAP2 SWAP1 SWAP2 PUSH2 0x100 EXP DUP2 SLOAD DUP2 PUSH20 0xFFFFFFFFFFFFFFFFFFFFFFFFFFFFFFFFFFFFFFFF MUL NOT AND SWAP1 DUP4 PUSH20 0xFFFFFFFFFFFFFFFFFFFFFFFFFFFFFFFFFFFFFFFF AND MUL OR SWAP1 SSTORE POP PUSH0 DUP1 DUP2 SLOAD DUP1 SWAP3 SWAP2 SWAP1 PUSH2 0xC89 SWAP1 PUSH2 0x175D JUMP JUMPDEST SWAP2 SWAP1 POP SSTORE POP PUSH1 0x2 PUSH0 SLOAD SUB PUSH2 0xD14 JUMPI PUSH1 0x7 PUSH0 SWAP1 SLOAD SWAP1 PUSH2 0x100 EXP SWAP1 DIV PUSH20 0xFFFFFFFFFFFFFFFFFFFFFFFFFFFFFFFFFFFFFFFF AND PUSH20 0xFFFFFFFFFFFFFFFFFFFFFFFFFFFFFFFFFFFFFFFF AND PUSH4 0xA63F7C53 PUSH1 0x40 MLOAD DUP2 PUSH4 0xFFFFFFFF AND PUSH1 0xE0 SHL DUP2 MSTORE PUSH1 0x4 ADD PUSH0 PUSH1 0x40 MLOAD DUP1 DUP4 SUB DUP2 PUSH0 DUP8 DUP1 EXTCODESIZE ISZERO DUP1 ISZERO PUSH2 0xCFD JUMPI PUSH0 DUP1 REVERT JUMPDEST POP GAS CALL ISZERO DUP1 ISZERO PUSH2 0xD0F JUMPI RETURNDATASIZE PUSH0 DUP1 RETURNDATACOPY RETURNDATASIZE PUSH0 REVERT JUMPDEST POP POP POP POP JUMPDEST POP JUMP JUMPDEST PUSH1 0x4 DUP2 DUP2 SLOAD DUP2 LT PUSH2 0xD26 JUMPI PUSH0 DUP1 REVERT JUMPDEST SWAP1 PUSH0 MSTORE PUSH1 0x20 PUSH0 KECCAK256 ADD PUSH0 SWAP2 POP SLOAD SWAP1 PUSH2 0x100 EXP SWAP1 DIV PUSH20 0xFFFFFFFFFFFFFFFFFFFFFFFFFFFFFFFFFFFFFFFF AND DUP2 JUMP JUMPDEST PUSH0 PUSH1 0x3 PUSH1 0x6 PUSH0 SWAP1 SLOAD SWAP1 PUSH2 0x100 EXP SWAP1 DIV PUSH20 0xFFFFFFFFFFFFFFFFFFFFFFFFFFFFFFFFFFFFFFFF AND PUSH20 0xFFFFFFFFFFFFFFFFFFFFFFFFFFFFFFFFFFFFFFFF AND PUSH4 0x3CF5040A PUSH1 0x4 PUSH0 DUP2 SLOAD DUP2 LT PUSH2 0xDA6 JUMPI PUSH2 0xDA5 PUSH2 0x14BC JUMP JUMPDEST JUMPDEST SWAP1 PUSH0 MSTORE PUSH1 0x20 PUSH0 KECCAK256 ADD PUSH0 SWAP1 SLOAD SWAP1 PUSH2 0x100 EXP SWAP1 DIV PUSH20 0xFFFFFFFFFFFFFFFFFFFFFFFFFFFFFFFFFFFFFFFF AND PUSH1 0x40 MLOAD PUSH1 0x20 ADD PUSH2 0xDDE SWAP2 SWAP1 PUSH2 0x17E9 JUMP JUMPDEST PUSH1 0x40 MLOAD PUSH1 0x20 DUP2 DUP4 SUB SUB DUP2 MSTORE SWAP1 PUSH1 0x40 MSTORE DUP1 MLOAD SWAP1 PUSH1 0x20 ADD KECCAK256 PUSH1 0x40 MLOAD DUP3 PUSH4 0xFFFFFFFF AND PUSH1 0xE0 SHL DUP2 MSTORE PUSH1 0x4 ADD PUSH2 0xE10 SWAP2 SWAP1 PUSH2 0x12E1 JUMP JUMPDEST PUSH1 0x20 PUSH1 0x40 MLOAD DUP1 DUP4 SUB DUP2 DUP7 GAS STATICCALL ISZERO DUP1 ISZERO PUSH2 0xE2B JUMPI RETURNDATASIZE PUSH0 DUP1 RETURNDATACOPY RETURNDATASIZE PUSH0 REVERT JUMPDEST POP POP POP POP PUSH1 0x40 MLOAD RETURNDATASIZE PUSH1 0x1F NOT PUSH1 0x1F DUP3 ADD AND DUP3 ADD DUP1 PUSH1 0x40 MSTORE POP DUP2 ADD SWAP1 PUSH2 0xE4F SWAP2 SWAP1 PUSH2 0x15CD JUMP JUMPDEST PUSH0 SHR PUSH2 0xE5B SWAP2 SWAP1 PUSH2 0x1830 JUMP JUMPDEST SWAP1 POP PUSH0 PUSH1 0x3 PUSH1 0x6 PUSH0 SWAP1 SLOAD SWAP1 PUSH2 0x100 EXP SWAP1 DIV PUSH20 0xFFFFFFFFFFFFFFFFFFFFFFFFFFFFFFFFFFFFFFFF AND PUSH20 0xFFFFFFFFFFFFFFFFFFFFFFFFFFFFFFFFFFFFFFFF AND PUSH4 0x3CF5040A PUSH1 0x4 PUSH1 0x1 DUP2 SLOAD DUP2 LT PUSH2 0xEB2 JUMPI PUSH2 0xEB1 PUSH2 0x14BC JUMP JUMPDEST JUMPDEST SWAP1 PUSH0 MSTORE PUSH1 0x20 PUSH0 KECCAK256 ADD PUSH0 SWAP1 SLOAD SWAP1 PUSH2 0x100 EXP SWAP1 DIV PUSH20 0xFFFFFFFFFFFFFFFFFFFFFFFFFFFFFFFFFFFFFFFF AND PUSH1 0x40 MLOAD PUSH1 0x20 ADD PUSH2 0xEEA SWAP2 SWAP1 PUSH2 0x17E9 JUMP JUMPDEST PUSH1 0x40 MLOAD PUSH1 0x20 DUP2 DUP4 SUB SUB DUP2 MSTORE SWAP1 PUSH1 0x40 MSTORE DUP1 MLOAD SWAP1 PUSH1 0x20 ADD KECCAK256 PUSH1 0x40 MLOAD DUP3 PUSH4 0xFFFFFFFF AND PUSH1 0xE0 SHL DUP2 MSTORE PUSH1 0x4 ADD PUSH2 0xF1C SWAP2 SWAP1 PUSH2 0x12E1 JUMP JUMPDEST PUSH1 0x20 PUSH1 0x40 MLOAD DUP1 DUP4 SUB DUP2 DUP7 GAS STATICCALL ISZERO DUP1 ISZERO PUSH2 0xF37 JUMPI RETURNDATASIZE PUSH0 DUP1 RETURNDATACOPY RETURNDATASIZE PUSH0 REVERT JUMPDEST POP POP POP POP PUSH1 0x40 MLOAD RETURNDATASIZE PUSH1 0x1F NOT PUSH1 0x1F DUP3 ADD AND DUP3 ADD DUP1 PUSH1 0x40 MSTORE POP DUP2 ADD SWAP1 PUSH2 0xF5B SWAP2 SWAP1 PUSH2 0x15CD JUMP JUMPDEST PUSH0 SHR PUSH2 0xF67 SWAP2 SWAP1 PUSH2 0x1830 JUMP JUMPDEST SWAP1 POP PUSH0 PUSH1 0x4 PUSH0 DUP2 SLOAD DUP2 LT PUSH2 0xF7E JUMPI PUSH2 0xF7D PUSH2 0x14BC JUMP JUMPDEST JUMPDEST SWAP1 PUSH0 MSTORE PUSH1 0x20 PUSH0 KECCAK256 ADD PUSH0 SWAP1 SLOAD SWAP1 PUSH2 0x100 EXP SWAP1 DIV PUSH20 0xFFFFFFFFFFFFFFFFFFFFFFFFFFFFFFFFFFFFFFFF AND SWAP1 POP PUSH0 PUSH1 0x4 PUSH1 0x1 DUP2 SLOAD DUP2 LT PUSH2 0xFBE JUMPI PUSH2 0xFBD PUSH2 0x14BC JUMP JUMPDEST JUMPDEST SWAP1 PUSH0 MSTORE PUSH1 0x20 PUSH0 KECCAK256 ADD PUSH0 SWAP1 SLOAD SWAP1 PUSH2 0x100 EXP SWAP1 DIV PUSH20 0xFFFFFFFFFFFFFFFFFFFFFFFFFFFFFFFFFFFFFFFF AND SWAP1 POP DUP3 PUSH1 0x3 PUSH1 0x1 DUP7 PUSH2 0xFF8 SWAP2 SWAP1 PUSH2 0x1860 JUMP JUMPDEST PUSH2 0x1002 SWAP2 SWAP1 PUSH2 0x1830 JUMP JUMPDEST SUB PUSH2 0x1052 JUMPI DUP1 PUSH20 0xFFFFFFFFFFFFFFFFFFFFFFFFFFFFFFFFFFFFFFFF AND PUSH2 0x8FC PUSH1 0x1 SLOAD SWAP1 DUP2 ISZERO MUL SWAP1 PUSH1 0x40 MLOAD PUSH0 PUSH1 0x40 MLOAD DUP1 DUP4 SUB DUP2 DUP6 DUP9 DUP9 CALL SWAP4 POP POP POP POP ISZERO DUP1 ISZERO PUSH2 0x104C JUMPI RETURNDATASIZE PUSH0 DUP1 RETURNDATACOPY RETURNDATASIZE PUSH0 REVERT JUMPDEST POP PUSH2 0x1162 JUMP JUMPDEST DUP4 PUSH1 0x3 PUSH1 0x1 DUP6 PUSH2 0x1062 SWAP2 SWAP1 PUSH2 0x1860 JUMP JUMPDEST PUSH2 0x106C SWAP2 SWAP1 PUSH2 0x1830 JUMP JUMPDEST SUB PUSH2 0x10BC JUMPI DUP2 PUSH20 0xFFFFFFFFFFFFFFFFFFFFFFFFFFFFFFFFFFFFFFFF AND PUSH2 0x8FC PUSH1 0x1 SLOAD SWAP1 DUP2 ISZERO MUL SWAP1 PUSH1 0x40 MLOAD PUSH0 PUSH1 0x40 MLOAD DUP1 DUP4 SUB DUP2 DUP6 DUP9 DUP9 CALL SWAP4 POP POP POP POP ISZERO DUP1 ISZERO PUSH2 0x10B6 JUMPI RETURNDATASIZE PUSH0 DUP1 RETURNDATACOPY RETURNDATASIZE PUSH0 REVERT JUMPDEST POP PUSH2 0x1161 JUMP JUMPDEST DUP2 PUSH20 0xFFFFFFFFFFFFFFFFFFFFFFFFFFFFFFFFFFFFFFFF AND PUSH2 0x8FC PUSH1 0x2 PUSH1 0x1 SLOAD PUSH2 0x10E5 SWAP2 SWAP1 PUSH2 0x1893 JUMP JUMPDEST SWAP1 DUP2 ISZERO MUL SWAP1 PUSH1 0x40 MLOAD PUSH0 PUSH1 0x40 MLOAD DUP1 DUP4 SUB DUP2 DUP6 DUP9 DUP9 CALL SWAP4 POP POP POP POP ISZERO DUP1 ISZERO PUSH2 0x110D JUMPI RETURNDATASIZE PUSH0 DUP1 RETURNDATACOPY RETURNDATASIZE PUSH0 REVERT JUMPDEST POP DUP1 PUSH20 0xFFFFFFFFFFFFFFFFFFFFFFFFFFFFFFFFFFFFFFFF AND PUSH2 0x8FC PUSH1 0x2 PUSH1 0x1 SLOAD PUSH2 0x1137 SWAP2 SWAP1 PUSH2 0x1893 JUMP JUMPDEST SWAP1 DUP2 ISZERO MUL SWAP1 PUSH1 0x40 MLOAD PUSH0 PUSH1 0x40 MLOAD DUP1 DUP4 SUB DUP2 DUP6 DUP9 DUP9 CALL SWAP4 POP POP POP POP ISZERO DUP1 ISZERO PUSH2 0x115F JUMPI RETURNDATASIZE PUSH0 DUP1 RETURNDATACOPY RETURNDATASIZE PUSH0 REVERT JUMPDEST POP JUMPDEST JUMPDEST POP POP POP POP JUMP JUMPDEST PUSH0 DUP1 REVERT JUMPDEST PUSH0 PUSH20 0xFFFFFFFFFFFFFFFFFFFFFFFFFFFFFFFFFFFFFFFF DUP3 AND SWAP1 POP SWAP2 SWAP1 POP JUMP JUMPDEST PUSH0 PUSH2 0x1195 DUP3 PUSH2 0x116C JUMP JUMPDEST SWAP1 POP SWAP2 SWAP1 POP JUMP JUMPDEST PUSH2 0x11A5 DUP2 PUSH2 0x118B JUMP JUMPDEST DUP2 EQ PUSH2 0x11AF JUMPI PUSH0 DUP1 REVERT JUMPDEST POP JUMP JUMPDEST PUSH0 DUP2 CALLDATALOAD SWAP1 POP PUSH2 0x11C0 DUP2 PUSH2 0x119C JUMP JUMPDEST SWAP3 SWAP2 POP POP JUMP JUMPDEST PUSH0 PUSH1 0x20 DUP3 DUP5 SUB SLT ISZERO PUSH2 0x11DB JUMPI PUSH2 0x11DA PUSH2 0x1168 JUMP JUMPDEST JUMPDEST PUSH0 PUSH2 0x11E8 DUP5 DUP3 DUP6 ADD PUSH2 0x11B2 JUMP JUMPDEST SWAP2 POP POP SWAP3 SWAP2 POP POP JUMP JUMPDEST PUSH0 DUP2 ISZERO ISZERO SWAP1 POP SWAP2 SWAP1 POP JUMP JUMPDEST PUSH2 0x1205 DUP2 PUSH2 0x11F1 JUMP JUMPDEST DUP3 MSTORE POP POP JUMP JUMPDEST PUSH0 PUSH1 0x20 DUP3 ADD SWAP1 POP PUSH2 0x121E PUSH0 DUP4 ADD DUP5 PUSH2 0x11FC JUMP JUMPDEST SWAP3 SWAP2 POP POP JUMP JUMPDEST PUSH0 DUP2 SWAP1 POP SWAP2 SWAP1 POP JUMP JUMPDEST PUSH2 0x1236 DUP2 PUSH2 0x1224 JUMP JUMPDEST DUP3 MSTORE POP POP JUMP JUMPDEST PUSH0 PUSH1 0x20 DUP3 ADD SWAP1 POP PUSH2 0x124F PUSH0 DUP4 ADD DUP5 PUSH2 0x122D JUMP JUMPDEST SWAP3 SWAP2 POP POP JUMP JUMPDEST PUSH0 DUP2 SWAP1 POP SWAP2 SWAP1 POP JUMP JUMPDEST PUSH0 PUSH2 0x1278 PUSH2 0x1273 PUSH2 0x126E DUP5 PUSH2 0x116C JUMP JUMPDEST PUSH2 0x1255 JUMP JUMPDEST PUSH2 0x116C JUMP JUMPDEST SWAP1 POP SWAP2 SWAP1 POP JUMP JUMPDEST PUSH0 PUSH2 0x1289 DUP3 PUSH2 0x125E JUMP JUMPDEST SWAP1 POP SWAP2 SWAP1 POP JUMP JUMPDEST PUSH0 PUSH2 0x129A DUP3 PUSH2 0x127F JUMP JUMPDEST SWAP1 POP SWAP2 SWAP1 POP JUMP JUMPDEST PUSH2 0x12AA DUP2 PUSH2 0x1290 JUMP JUMPDEST DUP3 MSTORE POP POP JUMP JUMPDEST PUSH0 PUSH1 0x20 DUP3 ADD SWAP1 POP PUSH2 0x12C3 PUSH0 DUP4 ADD DUP5 PUSH2 0x12A1 JUMP JUMPDEST SWAP3 SWAP2 POP POP JUMP JUMPDEST PUSH0 DUP2 SWAP1 POP SWAP2 SWAP1 POP JUMP JUMPDEST PUSH2 0x12DB DUP2 PUSH2 0x12C9 JUMP JUMPDEST DUP3 MSTORE POP POP JUMP JUMPDEST PUSH0 PUSH1 0x20 DUP3 ADD SWAP1 POP PUSH2 0x12F4 PUSH0 DUP4 ADD DUP5 PUSH2 0x12D2 JUMP JUMPDEST SWAP3 SWAP2 POP POP JUMP JUMPDEST PUSH2 0x1303 DUP2 PUSH2 0x12C9 JUMP JUMPDEST DUP2 EQ PUSH2 0x130D JUMPI PUSH0 DUP1 REVERT JUMPDEST POP JUMP JUMPDEST PUSH0 DUP2 CALLDATALOAD SWAP1 POP PUSH2 0x131E DUP2 PUSH2 0x12FA JUMP JUMPDEST SWAP3 SWAP2 POP POP JUMP JUMPDEST PUSH0 PUSH1 0x20 DUP3 DUP5 SUB SLT ISZERO PUSH2 0x1339 JUMPI PUSH2 0x1338 PUSH2 0x1168 JUMP JUMPDEST JUMPDEST PUSH0 PUSH2 0x1346 DUP5 DUP3 DUP6 ADD PUSH2 0x1310 JUMP JUMPDEST SWAP2 POP POP SWAP3 SWAP2 POP POP JUMP JUMPDEST PUSH0 PUSH2 0x1359 DUP3 PUSH2 0x127F JUMP JUMPDEST SWAP1 POP SWAP2 SWAP1 POP JUMP JUMPDEST PUSH2 0x1369 DUP2 PUSH2 0x134F JUMP JUMPDEST DUP3 MSTORE POP POP JUMP JUMPDEST PUSH0 PUSH1 0x20 DUP3 ADD SWAP1 POP PUSH2 0x1382 PUSH0 DUP4 ADD DUP5 PUSH2 0x1360 JUMP JUMPDEST SWAP3 SWAP2 POP POP JUMP JUMPDEST PUSH2 0x1391 DUP2 PUSH2 0x1224 JUMP JUMPDEST DUP2 EQ PUSH2 0x139B JUMPI PUSH0 DUP1 REVERT JUMPDEST POP JUMP JUMPDEST PUSH0 DUP2 CALLDATALOAD SWAP1 POP PUSH2 0x13AC DUP2 PUSH2 0x1388 JUMP JUMPDEST SWAP3 SWAP2 POP POP JUMP JUMPDEST PUSH0 PUSH1 0x20 DUP3 DUP5 SUB SLT ISZERO PUSH2 0x13C7 JUMPI PUSH2 0x13C6 PUSH2 0x1168 JUMP JUMPDEST JUMPDEST PUSH0 PUSH2 0x13D4 DUP5 DUP3 DUP6 ADD PUSH2 0x139E JUMP JUMPDEST SWAP2 POP POP SWAP3 SWAP2 POP POP JUMP JUMPDEST PUSH2 0x13E6 DUP2 PUSH2 0x118B JUMP JUMPDEST DUP3 MSTORE POP POP JUMP JUMPDEST PUSH0 PUSH1 0x20 DUP3 ADD SWAP1 POP PUSH2 0x13FF PUSH0 DUP4 ADD DUP5 PUSH2 0x13DD JUMP JUMPDEST SWAP3 SWAP2 POP POP JUMP JUMPDEST PUSH0 DUP2 MLOAD SWAP1 POP PUSH2 0x1413 DUP2 PUSH2 0x1388 JUMP JUMPDEST SWAP3 SWAP2 POP POP JUMP JUMPDEST PUSH0 PUSH1 0x20 DUP3 DUP5 SUB SLT ISZERO PUSH2 0x142E JUMPI PUSH2 0x142D PUSH2 0x1168 JUMP JUMPDEST JUMPDEST PUSH0 PUSH2 0x143B DUP5 DUP3 DUP6 ADD PUSH2 0x1405 JUMP JUMPDEST SWAP2 POP POP SWAP3 SWAP2 POP POP JUMP JUMPDEST PUSH0 DUP3 DUP3 MSTORE PUSH1 0x20 DUP3 ADD SWAP1 POP SWAP3 SWAP2 POP POP JUMP JUMPDEST PUSH32 0x54696D65206E6F74206578706972656400000000000000000000000000000000 PUSH0 DUP3 ADD MSTORE POP JUMP JUMPDEST PUSH0 PUSH2 0x1488 PUSH1 0x10 DUP4 PUSH2 0x1444 JUMP JUMPDEST SWAP2 POP PUSH2 0x1493 DUP3 PUSH2 0x1454 JUMP JUMPDEST PUSH1 0x20 DUP3 ADD SWAP1 POP SWAP2 SWAP1 POP JUMP JUMPDEST PUSH0 PUSH1 0x20 DUP3 ADD SWAP1 POP DUP2 DUP2 SUB PUSH0 DUP4 ADD MSTORE PUSH2 0x14B5 DUP2 PUSH2 0x147C JUMP JUMPDEST SWAP1 POP SWAP2 SWAP1 POP JUMP JUMPDEST PUSH32 0x4E487B7100000000000000000000000000000000000000000000000000000000 PUSH0 MSTORE PUSH1 0x32 PUSH1 0x4 MSTORE PUSH1 0x24 PUSH0 REVERT JUMPDEST PUSH32 0x4E6F7420656E6F75676820706C61796572730000000000000000000000000000 PUSH0 DUP3 ADD MSTORE POP JUMP JUMPDEST PUSH0 PUSH2 0x151D PUSH1 0x12 DUP4 PUSH2 0x1444 JUMP JUMPDEST SWAP2 POP PUSH2 0x1528 DUP3 PUSH2 0x14E9 JUMP JUMPDEST PUSH1 0x20 DUP3 ADD SWAP1 POP SWAP2 SWAP1 POP JUMP JUMPDEST PUSH0 PUSH1 0x20 DUP3 ADD SWAP1 POP DUP2 DUP2 SUB PUSH0 DUP4 ADD MSTORE PUSH2 0x154A DUP2 PUSH2 0x1511 JUMP JUMPDEST SWAP1 POP SWAP2 SWAP1 POP JUMP JUMPDEST PUSH32 0x416C72656164792072657665616C656400000000000000000000000000000000 PUSH0 DUP3 ADD MSTORE POP JUMP JUMPDEST PUSH0 PUSH2 0x1585 PUSH1 0x10 DUP4 PUSH2 0x1444 JUMP JUMPDEST SWAP2 POP PUSH2 0x1590 DUP3 PUSH2 0x1551 JUMP JUMPDEST PUSH1 0x20 DUP3 ADD SWAP1 POP SWAP2 SWAP1 POP JUMP JUMPDEST PUSH0 PUSH1 0x20 DUP3 ADD SWAP1 POP DUP2 DUP2 SUB PUSH0 DUP4 ADD MSTORE PUSH2 0x15B2 DUP2 PUSH2 0x1579 JUMP JUMPDEST SWAP1 POP SWAP2 SWAP1 POP JUMP JUMPDEST PUSH0 DUP2 MLOAD SWAP1 POP PUSH2 0x15C7 DUP2 PUSH2 0x12FA JUMP JUMPDEST SWAP3 SWAP2 POP POP JUMP JUMPDEST PUSH0 PUSH1 0x20 DUP3 DUP5 SUB SLT ISZERO PUSH2 0x15E2 JUMPI PUSH2 0x15E1 PUSH2 0x1168 JUMP JUMPDEST JUMPDEST PUSH0 PUSH2 0x15EF DUP5 DUP3 DUP6 ADD PUSH2 0x15B9 JUMP JUMPDEST SWAP2 POP POP SWAP3 SWAP2 POP POP JUMP JUMPDEST PUSH32 0x496E76616C69642072657665616C000000000000000000000000000000000000 PUSH0 DUP3 ADD MSTORE POP JUMP JUMPDEST PUSH0 PUSH2 0x162C PUSH1 0xE DUP4 PUSH2 0x1444 JUMP JUMPDEST SWAP2 POP PUSH2 0x1637 DUP3 PUSH2 0x15F8 JUMP JUMPDEST PUSH1 0x20 DUP3 ADD SWAP1 POP SWAP2 SWAP1 POP JUMP JUMPDEST PUSH0 PUSH1 0x20 DUP3 ADD SWAP1 POP DUP2 DUP2 SUB PUSH0 DUP4 ADD MSTORE PUSH2 0x1659 DUP2 PUSH2 0x1620 JUMP JUMPDEST SWAP1 POP SWAP2 SWAP1 POP JUMP JUMPDEST PUSH32 0x47616D652069732066756C6C0000000000000000000000000000000000000000 PUSH0 DUP3 ADD MSTORE POP JUMP JUMPDEST PUSH0 PUSH2 0x1694 PUSH1 0xC DUP4 PUSH2 0x1444 JUMP JUMPDEST SWAP2 POP PUSH2 0x169F DUP3 PUSH2 0x1660 JUMP JUMPDEST PUSH1 0x20 DUP3 ADD SWAP1 POP SWAP2 SWAP1 POP JUMP JUMPDEST PUSH0 PUSH1 0x20 DUP3 ADD SWAP1 POP DUP2 DUP2 SUB PUSH0 DUP4 ADD MSTORE PUSH2 0x16C1 DUP2 PUSH2 0x1688 JUMP JUMPDEST SWAP1 POP SWAP2 SWAP1 POP JUMP JUMPDEST PUSH32 0x506C6179657220616C7265616479207265676973746572656400000000000000 PUSH0 DUP3 ADD MSTORE POP JUMP JUMPDEST PUSH0 PUSH2 0x16FC PUSH1 0x19 DUP4 PUSH2 0x1444 JUMP JUMPDEST SWAP2 POP PUSH2 0x1707 DUP3 PUSH2 0x16C8 JUMP JUMPDEST PUSH1 0x20 DUP3 ADD SWAP1 POP SWAP2 SWAP1 POP JUMP JUMPDEST PUSH0 PUSH1 0x20 DUP3 ADD SWAP1 POP DUP2 DUP2 SUB PUSH0 DUP4 ADD MSTORE PUSH2 0x1729 DUP2 PUSH2 0x16F0 JUMP JUMPDEST SWAP1 POP SWAP2 SWAP1 POP JUMP JUMPDEST PUSH32 0x4E487B7100000000000000000000000000000000000000000000000000000000 PUSH0 MSTORE PUSH1 0x11 PUSH1 0x4 MSTORE PUSH1 0x24 PUSH0 REVERT JUMPDEST PUSH0 PUSH2 0x1767 DUP3 PUSH2 0x1224 JUMP JUMPDEST SWAP2 POP PUSH32 0xFFFFFFFFFFFFFFFFFFFFFFFFFFFFFFFFFFFFFFFFFFFFFFFFFFFFFFFFFFFFFFFF DUP3 SUB PUSH2 0x1799 JUMPI PUSH2 0x1798 PUSH2 0x1730 JUMP JUMPDEST JUMPDEST PUSH1 0x1 DUP3 ADD SWAP1 POP SWAP2 SWAP1 POP JUMP JUMPDEST PUSH0 DUP2 PUSH1 0x60 SHL SWAP1 POP SWAP2 SWAP1 POP JUMP JUMPDEST PUSH0 PUSH2 0x17BA DUP3 PUSH2 0x17A4 JUMP JUMPDEST SWAP1 POP SWAP2 SWAP1 POP JUMP JUMPDEST PUSH0 PUSH2 0x17CB DUP3 PUSH2 0x17B0 JUMP JUMPDEST SWAP1 POP SWAP2 SWAP1 POP JUMP JUMPDEST PUSH2 0x17E3 PUSH2 0x17DE DUP3 PUSH2 0x118B JUMP JUMPDEST PUSH2 0x17C1 JUMP JUMPDEST DUP3 MSTORE POP POP JUMP JUMPDEST PUSH0 PUSH2 0x17F4 DUP3 DUP5 PUSH2 0x17D2 JUMP JUMPDEST PUSH1 0x14 DUP3 ADD SWAP2 POP DUP2 SWAP1 POP SWAP3 SWAP2 POP POP JUMP JUMPDEST PUSH32 0x4E487B7100000000000000000000000000000000000000000000000000000000 PUSH0 MSTORE PUSH1 0x12 PUSH1 0x4 MSTORE PUSH1 0x24 PUSH0 REVERT JUMPDEST PUSH0 PUSH2 0x183A DUP3 PUSH2 0x1224 JUMP JUMPDEST SWAP2 POP PUSH2 0x1845 DUP4 PUSH2 0x1224 JUMP JUMPDEST SWAP3 POP DUP3 PUSH2 0x1855 JUMPI PUSH2 0x1854 PUSH2 0x1803 JUMP JUMPDEST JUMPDEST DUP3 DUP3 MOD SWAP1 POP SWAP3 SWAP2 POP POP JUMP JUMPDEST PUSH0 PUSH2 0x186A DUP3 PUSH2 0x1224 JUMP JUMPDEST SWAP2 POP PUSH2 0x1875 DUP4 PUSH2 0x1224 JUMP JUMPDEST SWAP3 POP DUP3 DUP3 ADD SWAP1 POP DUP1 DUP3 GT ISZERO PUSH2 0x188D JUMPI PUSH2 0x188C PUSH2 0x1730 JUMP JUMPDEST JUMPDEST SWAP3 SWAP2 POP POP JUMP JUMPDEST PUSH0 PUSH2 0x189D DUP3 PUSH2 0x1224 JUMP JUMPDEST SWAP2 POP PUSH2 0x18A8 DUP4 PUSH2 0x1224 JUMP JUMPDEST SWAP3 POP DUP3 PUSH2 0x18B8 JUMPI PUSH2 0x18B7 PUSH2 0x1803 JUMP JUMPDEST JUMPDEST DUP3 DUP3 DIV SWAP1 POP SWAP3 SWAP2 POP POP JUMP INVALID LOG2 PUSH5 0x6970667358 0x22 SLT KECCAK256 PUSH27 0x9AC4927674B2046652A0EB0F19EF4C30389B11BDB4A962A85EFD40 0xBA EXTCODESIZE POP CALL PUSH5 0x736F6C6343 STOP ADDMOD BYTE STOP CALLER "
				},
				"gasEstimates": {
					"creation": {
						"codeDepositCost": "1278600",
						"executionCost": "infinite",
						"totalCost": "infinite"
					},
					"external": {
						"addPlayer(bytes32)": "infinite",
						"claimTimeout()": "infinite",
						"commitReveal()": "infinite",
						"numPlayer()": "2446",
						"player_commit(address)": "2891",
						"player_revealed(address)": "2834",
						"players(uint256)": "5054",
						"reveal(bytes32)": "infinite",
						"revealDeadline()": "2491",
						"reward()": "2470",
						"timeUnit()": "infinite"
					},
					"internal": {
						"_checkWinnerAndPay()": "infinite"
					}
				},
				"methodIdentifiers": {
					"addPlayer(bytes32)": "e48e0b0b",
					"claimTimeout()": "0e1da6c3",
					"commitReveal()": "9d7b3f2d",
					"numPlayer()": "90d5d0c3",
					"player_commit(address)": "53356721",
					"player_revealed(address)": "07b06720",
					"players(uint256)": "f71d96cb",
					"reveal(bytes32)": "701fd0f1",
					"revealDeadline()": "b14b28a3",
					"reward()": "228cb733",
					"timeUnit()": "3c6a7f9b"
				}
			},
			"storageLayout": {
				"storage": [
					{
						"astId": 4,
						"contract": "RPS.sol:RPS",
						"label": "numPlayer",
						"offset": 0,
						"slot": "0",
						"type": "t_uint256"
					},
					{
						"astId": 7,
						"contract": "RPS.sol:RPS",
						"label": "reward",
						"offset": 0,
						"slot": "1",
						"type": "t_uint256"
					},
					{
						"astId": 11,
						"contract": "RPS.sol:RPS",
						"label": "player_commit",
						"offset": 0,
						"slot": "2",
						"type": "t_mapping(t_address,t_bytes32)"
					},
					{
						"astId": 15,
						"contract": "RPS.sol:RPS",
						"label": "player_revealed",
						"offset": 0,
						"slot": "3",
						"type": "t_mapping(t_address,t_bool)"
					},
					{
						"astId": 18,
						"contract": "RPS.sol:RPS",
						"label": "players",
						"offset": 0,
						"slot": "4",
						"type": "t_array(t_address)dyn_storage"
					},
					{
						"astId": 20,
						"contract": "RPS.sol:RPS",
						"label": "revealDeadline",
						"offset": 0,
						"slot": "5",
						"type": "t_uint256"
					},
					{
						"astId": 23,
						"contract": "RPS.sol:RPS",
						"label": "commitReveal",
						"offset": 0,
						"slot": "6",
						"type": "t_contract(CommitReveal)374"
					},
					{
						"astId": 26,
						"contract": "RPS.sol:RPS",
						"label": "timeUnit",
						"offset": 0,
						"slot": "7",
						"type": "t_contract(TimeUnit)398"
					}
				],
				"types": {
					"t_address": {
						"encoding": "inplace",
						"label": "address",
						"numberOfBytes": "20"
					},
					"t_array(t_address)dyn_storage": {
						"base": "t_address",
						"encoding": "dynamic_array",
						"label": "address[]",
						"numberOfBytes": "32"
					},
					"t_bool": {
						"encoding": "inplace",
						"label": "bool",
						"numberOfBytes": "1"
					},
					"t_bytes32": {
						"encoding": "inplace",
						"label": "bytes32",
						"numberOfBytes": "32"
					},
					"t_contract(CommitReveal)374": {
						"encoding": "inplace",
						"label": "contract CommitReveal",
						"numberOfBytes": "20"
					},
					"t_contract(TimeUnit)398": {
						"encoding": "inplace",
						"label": "contract TimeUnit",
						"numberOfBytes": "20"
					},
					"t_mapping(t_address,t_bool)": {
						"encoding": "mapping",
						"key": "t_address",
						"label": "mapping(address => bool)",
						"numberOfBytes": "32",
						"value": "t_bool"
					},
					"t_mapping(t_address,t_bytes32)": {
						"encoding": "mapping",
						"key": "t_address",
						"label": "mapping(address => bytes32)",
						"numberOfBytes": "32",
						"value": "t_bytes32"
					},
					"t_uint256": {
						"encoding": "inplace",
						"label": "uint256",
						"numberOfBytes": "32"
					}
				}
			},
			"userdoc": {
				"kind": "user",
				"methods": {},
				"version": 1
			}
		}
	}
}